:020000040800F2
:1000000090070020890100082B1300081511000833
:10001000291300088F020008CB160008000000001A
:100020000000000000000000000000002F13000886
:100030009D020008000000002D1300083113000885
:10004000A3010008A3010008A3010008A301000800
:10005000A3010008A30100089F020008A5020008F0
:10006000A3010008A3010008A3010008A3010008E0
:1000700091020008A3010008A3010008A3010008E1
:10008000A3010008A3010008A3010008A3010008C0
:10009000A3010008A3010008A3010008A3010008B0
:1000A000A3010008A3010008A3010008A3010008A0
:1000B000A3010008A3010008A3010008A301000890
:1000C000A3010008A3010008A3010008A301000880
:1000D000A3010008A3010008A3010008A301000870
:1000E000A3010008A3010008A301000800F002F822
:1000F00000F03AF80AA090E8000C82448344AAF188
:100100000107DA4501D100F02FF8AFF2090EBAE885
:100110000F0013F0010F18BFFB1A43F0010318473B
:100120003816000058160000103A24BF78C878C16D
:10013000FAD8520724BF30C830C144BF04680C60ED
:10014000704700000023002400250026103A28BF35
:1001500078C1FBD8520728BF30C148BF0B60704739
:100160001FB51FBD10B510BD00F058F81146FFF7C0
:10017000F7FF01F0BBFA00F076F803B4FFF7F2FFE7
:1001800003BC00F07DF8000009488047094800479B
:10019000FEE7FEE7FEE7FEE7FEE7FEE7FEE7FEE737
:1001A000FEE7FEE704480549054A064B7047000094
:1001B00093130008ED000008900100209007002034
:1001C00090030020900300204FF0000200B513467A
:1001D00094469646203922BFA0E80C50A0E80C5067
:1001E000B1F12001BFF4F7AF090728BFA0E80C5018
:1001F00048BF0CC05DF804EB890028BF40F8042B11
:1002000008BF704748BF20F8022B11F0804F18BF7D
:1002100000F8012B7047704770477047754600F033
:100220002BF8AE4605006946534620F00700854688
:1002300018B020B5FFF7B6FFBDE820404FF000062C
:100240004FF000074FF000084FF0000B21F00701BE
:10025000AC46ACE8C009ACE8C009ACE8C009ACE801
:10026000C0098D46704710B50446AFF300802046A4
:10027000BDE81040FFF781BF004870472C01002007
:1002800001491820ABBEFEE7260002007047FEE7DA
:10029000014800F00DB80000580000207047012010
:1002A00000F0F2B8022000F0EFB872B6FEE70000EE
:1002B0002DE9F05FC16B0C6801680B68D0F840C095
:1002C000042202FA0CF2494DDFF824A1494E4A4FAC
:1002D000DFF828B1DFF828E122422CD05A072AD5CE
:1002E0000A68920603D40A6822F004020A600168D0
:1002F000A94201D1042219E0514501D1402215E063
:10030000B14202D14FF4806210E0B94202D14FF401
:1003100080420BE0594502D14FF4802206E071453E
:1003200002D14FF4800201E04FF080622F4908397A
:100330004A60C16A3BE04FF0020808FA0CF818EA7C
:10034000040F4FF000094FF0010235D05FEA8378C7
:1003500032D50B689B0605D40B6823F00A030B60AB
:1003600080F821200168A94201D1022219E05145FB
:1003700001D1202215E0B14202D14FF4007210E009
:10038000B94202D14FF400520BE0594502D14FF46B
:10039000003206E0714502D14FF4001201E04FF047
:1003A0000072124908394A6080F82090816A002959
:1003B0001AD0BDE8F05F0847082505FA0CF525427C
:1003C00012D01B0710D50B6823F00E030B6090F8BA
:1003D0004010C36B02FA01F15960826380F821205A
:1003E00080F82090016BE2E7BDE8F09F0800024032
:1003F0001C0002403000024044000240580002400D
:100400006C00024030B528B308C8134914221944BF
:10041000B1FBF2F18900C163104981630221417788
:100420001A6843F6F0718A43D0E900142143D0E9F9
:1004300002452C43214304692143446921438469D3
:100440002143114319600021416301224277017762
:10045000084630BD012030BDF8FFFDBF000002405E
:1004600070B5044600F012F90546601C02D004483D
:100470000078044400F00AF9401BA042FAD370BD92
:100480000000002070470000044910B50A680242CD
:1004900002D00860FFF7F6FF10BD00001404014011
:1004A0002DE9F84FDFF8B8910024A9F1040B234699
:1004B0000F2709F1040AABF1040EC9E00125A5409C
:1004C0002A40AA427DD1674ED1F804C0ACEB0608A1
:1004D000B44532D014DCBCF1030F3AD009DCBCF1D6
:1004E000000F2AD0BCF1010F1CD0BCF1020F31D19A
:1004F0001DE0BCF1110F17D0BCF1120F2AD119E089
:10050000B8F5881F19D006DCB8F5803F15D0B8F5CE
:10051000801F1FD111E0B8F5001F0ED0B8F5041FE1
:1005200018D10AE0CB6815E0CB681B1D12E0CB6840
:1005300008330FE0CB680C330CE08B682BB1012B38
:100540004FF0080303D0456104E0042302E0056195
:1005500000E00023FF2A01D8064601E000F104066E
:100560004FEA840501D9A5F12005D6F8008007FAE5
:1005700005FC28EA0C0803FA05F548EA0508C6F860
:1005800000804D68ED0062D5374DAE6946F001063A
:10059000AE61AD6924F0030605F001050095334D09
:1005A00006EB050CDCF80850A607360F07FA06F82C
:1005B00025EA0805DFF8B880404503D14FF0000870
:1005C00017E044E0DFF8AC80404502D14FF001086D
:1005D0000FE0DFF8A480404502D14FF0020808E0A8
:1005E000DFF89880404502D14FF0030801E04FF05A
:1005F000040808FA06F848EA0508CCF808804D68AF
:10060000D9F80060ED024D4601D5164300E096434F
:100610002E604D68DAF80060AD02554601D51643EC
:1006200000E096432E604D68DBF80060AD035D4648
:1006300001D5164300E096432E604D68DEF8006059
:10064000ED03754601D5164300E096432E60641C09
:100650000D682A46E5407FF431AFBDE8F88F000011
:100660000804014000001110001002400000014089
:1006700000080140000C014000100140001401403E
:100680000AB1016170470904FBE700000148806876
:100690007047000000000020024881680278114481
:1006A0008160704700000020074810B5016841F0E4
:1006B00010010160032000F075F80F2000F006F82B
:1006C00000F024F8002010BD0020024070B50D4D50
:1006D00004464FF47A712878B1FBF0F00A490968B2
:1006E000B1FBF0F000F0DCFA48B9102C07D2002280
:1006F0002146501E00F036F800206C6070BD0120CD
:1007000070BD0000000000200C0000200C4808B55F
:10071000816941F001018161816901F0010100916C
:10072000C16941F08051C161C06900F08050009002
:100730000448416821F0E06141F00071416008BD6A
:100740000010024000000140002809DB00F01F02F9
:10075000012191404009800000F1E020C0F8001123
:1007600070470000F0B40E4B1B680C46C3F3022325
:10077000C3F10705042D00D90425191D072901D24D
:10078000002300E0DB1E012606FA05F1491E214088
:1007900099409E40761E16403143F0BC00F096BF53
:1007A0000CED00E0064900F0070208684FF6FF0371
:1007B000184040EA0220034A1043086070470000D6
:1007C0000CED00E00000FA052DE9F0470F460500AA
:1007D00061D0434E306800F00700B84209D230685B
:1007E00020F0070038433060306800F00700B8425E
:1007F00051D128683B4C810712D5400703D560686A
:1008000040F4E06060602878000703D5606840F439
:10081000605060606068A96820F0F0000843606084
:100820002878C00728D06868012810D021680228DD
:1008300010D0890700292EDA616821F003010143F5
:100840006160FFF723FF804641F288390DE021689F
:100850008903EFE78901EDE7FFF718FFA0EB080137
:10086000494502D90320BDE8F0876068696800F057
:100870000C00B0EB810FEFD1306800F00700B842F8
:100880000BD9306820F0070038433060306800F042
:100890000700B84201D00120E5E72878400705D5D8
:1008A0006068E96820F4E060084360602878000729
:1008B00006D56068296920F4605040EAC100606094
:1008C00000F038F86168084AC1F30311515CC84070
:1008D0000649086006480068FFF7F8FE0020C2E7F6
:1008E00000200240001002403E1700080C000020CB
:1008F000040000200448054900684968044AC1F31F
:100900000221515CC84070470C00002000100240DA
:100910004E1700080448054900684968044AC1F3B5
:10092000C221515CC84070470C00002000100240FA
:100930004E1700080E4A51680E4801F00C03042BB4
:1009400011D0082B0FD10C48C1F38343C903C05CFD
:100950000AD55168084AC1F34041921E515C054ACC
:100960005043B0FBF1F07047044948437047000022
:100970000010024000127A002E17000800093D0006
:100980002DE9F84F040070D02078C04DC00749D041
:100990006868C0F38100012807D06868C0F381004F
:1009A000022809D16868C00306D52868800339D5B4
:1009B00060680028E7D035E06068B0F5803F0BD074
:1009C00010B1B0F5A02F11D0286820F48030286035
:1009D000286820F4802002E0286840F480302860F5
:1009E000606890B1FFF752FE06460AE0286840F4BE
:1009F00080202860F0E700BFFFF748FE801B6428D6
:100A000073D828688003F7D50CE0FFF73FFE064651
:100A100005E000BFFFF73AFE801B6428F0D8286885
:100A20008003F7D420789A4E80074FF001094FF0E9
:100A3000000839D5686810F00C0F07D06868C0F35B
:100A40008100022809D16868C00306D4286880079D
:100A500014D52069012808D110E02069B0B1C6F88A
:100A60000090FFF713FE074605E00AE1FFF70EFED0
:100A7000C01B0228C4D828688007F7D52868616998
:100A800020F0F80040EAC10028600DE0C6F80080C0
:100A9000FFF7FCFD074604E0FFF7F8FDC01B022846
:100AA00023D828688007F7D4207800072CD5794808
:100AB000A169D9B1C0F80090FFF7E8FD074604E04E
:100AC000FFF7E4FDC01B02280FD8686A8007F7D53E
:100AD00071484FF4FA510068B0FBF1F0009000BF8C
:100AE0000098411E0091FAD20EE080E0C0F800802C
:100AF000FFF7CCFD074604E0FFF7C8FDC01B022846
:100B000075D8686A8007F7D42078400760D5E8690F
:100B10000027C00008D4E86940F08050E861E86927
:100B2000012700F0805000905C480168C90513D48B
:100B30000168834641F480710160FFF7A7FD82469A
:100B400006E000BFFFF7A2FDA0EB0A0064284ED824
:100B5000DBF80000C005F5D5E06801280AD008B12F
:100B6000052813D0286A20F001002862286A20F0A6
:100B7000040002E0286A40F001002862E06841F2C7
:100B8000883B98B1FFF782FD82460BE0286A40F06F
:100B900004002862EEE700BFFFF778FDA0EB0A0132
:100BA00059455AD8286A8007F6D50CE0FFF76EFD44
:100BB000824605E0FFF76AFDA0EB0A0159454CD8D3
:100BC000286A8007F6D41FB1E86920F08050E861F8
:100BD000E06988B36968C1F38101022944D0022821
:100BE000C6F8608004D0FFF751FD044638E034E0D9
:100BF000FFF74CFD074604E0FFF748FDC01B022845
:100C00002BD828688001F7D4206AB0F5803F05D141
:100C10006868A16820F4003008436860D4E90801DE
:100C20000843696821F4741108436860C6F860904D
:100C3000FFF72CFD044606E025E000BFFFF726FD88
:100C4000001B022809D828688001F7D51BE000BFE7
:100C5000FFF71CFD001B022802D90320BDE8F88F16
:100C600028688001F4D40EE00128F7D06868226A71
:100C700000F48031914204D1616A00F4701088421E
:100C800001D00120EAE70020E8E700000010024060
:100C900000004242800442420C00002000700040EC
:100CA00010B5401EB0F1807F01D3012010BD4FF080
:100CB000E02460610F21601700F008FD0020A061B2
:100CC00007202061002010BD10B590F83C20012ABB
:100CD00022D0012280F83C20CA688C6822F440723D
:100CE00022434C6822F4806222430C6822F40062A2
:100CF00022430C6922F4805222434C6922F40052B0
:100D00002243C969002322F480420A4301684A64ED
:100D100080F83C30002010BD022010BD70B590F866
:100D20003C20012A26D0012480F83C40022280F891
:100D30003D2003685A689D6822F070060A683243B5
:100D40005A600D4B02689A4208D0B2F1804F05D02C
:100D50000A4B9A4202D00A4B9A4204D1496825F0C4
:100D600080031943916080F83D40002180F83C10D9
:100D7000084670BD022070BD002C014000040040F8
:100D80000008004000B585B000210091019102915A
:100D9000039100680B49884212D10B48816941F0E8
:100DA000080181618069694600F0080004904FF4F1
:100DB000005000900220019003900448FFF770FB60
:100DC00005B000BD002C014000100240000C0140A5
:100DD00070B5044690F83C0000260D4601280FD05F
:100DE000012084F83C006AB1042A1DD0082A2FD0C3
:100DF0000C2A3FD00126002084F83C00304670BD0C
:100E0000022070BD206800F001FB2068816941F07C
:100E1000080181612068816921F0040181612068F5
:100E200081692A69114311E0206800F017FB2068EE
:100E3000816941F4006181612068816921F48061E8
:100E40008161206881692A6941EA02218161D2E7D2
:100E5000206800F02FFB2068C16941F00801C161E2
:100E60002068C16921F00401C1612068C1692A6953
:100E7000114311E0206800F049FB2068C16941F48A
:100E80000061C1612068C16921F48061C16120688D
:100E9000C1692A6941EA0221C161ACE710B50400C9
:100EA00003D094F83D0010B107E0012010BD0020F0
:100EB00084F83C00204600F01FF8022084F83D0032
:100EC000211D206800F066FA012084F8460084F8AD
:100ED0003E0084F83F0084F8400084F8410084F824
:100EE000420084F8430084F8440084F8450084F804
:100EF0003D00002010BD000038B5054600681349CC
:100F0000884221D11248816941F400618161806980
:100F1000114C00F4006000900E48206010206060CA
:100F20000020A0608020E0604000206180006061BF
:100F30002020A0610002E0612046FFF763FA08B1BB
:100F4000FFF7B3F96C62656238BD0000002C014008
:100F5000001002401C0002405800002070B5040040
:100F600004D094F84100002510B106E0012070BDC6
:100F700084F84050204600F023F8242084F84100F3
:100F80002068C16821F40051C160204600F008FBD0
:100F90002068016921F4904101612068416921F0D4
:100FA0002A0141612068C16841F40051C160656453
:100FB000202084F8410084F842006563002070BD61
:100FC00030B585B000240094019402940394244D1C
:100FD0000368244802210322AB421AD1C36943F4B7
:100FE0000033C361C36903F400330493836943F09E
:100FF0000403836180691C4D00F004000490042008
:10100000CDE90001039269462846FFF749FA082016
:101010001CE0164DAB4220D1C36943F48023C36169
:10102000C36903F480230493836943F00803836155
:101030008069039200F0080004902815CDE90001B2
:101040000B4D69462846FFF72BFAE814CDE900045A
:10105000694628460294FFF723FA05B030BD000028
:1010600000440040001002400008014000480040D9
:10107000000C01402DE9F843044690F841009846E1
:1010800016460D46202802D00220BDE8F88385B11F
:101090007EB100206064212084F84100FFF7F6FA59
:1010A000A6848146E684A0682027B0F5805F02D040
:1010B00003E00120E9E7206910B12E4600250EE08B
:1010C00000260CE08021204600F0C6FAA8B9C6B17F
:1010D00016F8010B21684860E08C401EE084E08C2B
:1010E0004B464FF00002CDF800800028EAD14FF0C7
:1010F0004001204600F0B0FA40B184F8417003206E
:10110000C3E735F8020BC0F30800E3E784F8417049
:101110000020BAE7FEE70000094808B5416941F040
:10112000010141614069002200F001000090114678
:101130000C20FFF717FBBDE808400C20FFF704BBAD
:10114000001002402DE9F04385B000242E480094A1
:10115000019402940394816941F0200181618169C5
:1011600001F020010491816941F0040181618169EC
:1011700001F004010491816941F0080181618069F5
:10118000DFF8888000F0080040F2F3350490002278
:1011900029464046FFF774FADFF874904FF4805701
:1011A000002239464846FFF76BFA009502260125D2
:1011B0000396CDE9015469464046FFF771F90320D3
:1011C00000901448CDE9010569464846FFF768F9E3
:1011D00000970396CDE9015469464846FFF760F948
:1011E000002211460620FFF7BDFA0620FFF7ACFAF1
:1011F000002211460720FFF7B5FA0720FFF7A4FAEF
:1012000005B0BDE8F0830000001002400008014076
:10121000000C01400000211010B592B000240F9482
:101220001C2108A81094FEF7CFFF20216846FEF786
:10123000CBFF20481E49C0E900145921C0E90241F2
:1012400080210461C0E90541FFF728FE08B1FFF7DE
:101250002CF80F940FA917481094FFF75FFD08B101
:10126000FFF723F86020CDE908040A940B940C944E
:101270000D94002208A90F480E94FFF7A9FD08B1AC
:10128000FFF713F800944FF40050CDE904400294A6
:1012900001940394694607480794FFF715FD08B1C8
:1012A000FFF703F80348FFF76DFD12B010BD000013
:1012B000002C0140100000200C4810B50A490160C4
:1012C0004FF416514160002181600C22C160C0E9D9
:1012D00004128161C161FFF741FE002803D0BDE81F
:1012E0001040FEF7E2BF10BD004400409C0000200B
:1012F0000C4810B50A4901604FF4165141600021B5
:1013000081600C22C160C0E904128161C161FFF7F4
:1013100025FE002803D0BDE81040FEF7C6BF10BD73
:1013200000480040E4000020FEE7FEE770477047F9
:10133000FFF7B2B930B58FB028216846FEF744FFF9
:1013400014210AA8FEF740FF01210804CDE900108E
:101350000024029402250491CDE907504FF4E010D7
:1013600009906846FFF70CFB08B172B6FEE70F2044
:10137000CDE90A054FF48060CDE90C4002210AA8AE
:101380000E94FFF721FA002801D072B6FEE70FB0E5
:1013900030BD7047F0B50268194B1A4C1A4D4FF02A
:1013A0008047984205D0B84203D0A04201D0A8425D
:1013B00003D122F070064A683243984205D0B84201
:1013C00003D0A04201D0A84203D122F44074CA68DD
:1013D00022434C6922F08002224302608A68C26282
:1013E0000A688262984201D1096901630121416161
:1013F0000169C90703D0016921F001010161F0BD54
:10140000002C0140000400400008004030B5036A91
:10141000026A22F0010202624268846924F07305C4
:101420000C682C4323F002058B682B430A4DA8421D
:101430000BD123F00805CB6822F440722B434D6991
:1014400023F0040315438A692A4342608461496892
:101450004163036230BD0000002C014030B5026AD8
:10146000036A23F010030362436884690D6824F45F
:10147000E64444EA05248D6822F0200242EA05127F
:101480000B4DA8420ED1CD6822F0800242EA05122F
:101490004D6923F4406343EA85038D6922F04002DD
:1014A00043EA85034360846149688163026230BD19
:1014B000002C014030B5036A026A22F48072026295
:1014C0004268C46923F4007324F073050C682C434C
:1014D0008D6843EA05230C4DA8420ED1CD6823F454
:1014E000006343EA05234D6922F4405242EA0512A3
:1014F0008D6923F4806342EA05124260C461496841
:10150000C163036230BD0000002C014030B5046AA5
:10151000026A22F4805202624268C3690D6823F4B1
:10152000E64343EA05238D6824F4005444EA053475
:10153000064DA84204D14D6922F4804242EA851248
:101540004260C36149680164046230BD002C0140FF
:1015500001680C3151E8002F22F4907241E8002319
:10156000002BF5D10168143151E8002F22F001025F
:1015700041E80023002BF5D1016B012909D1016855
:101580000C3151E8002F22F0100241E80023002B1B
:10159000F5D1202180F8421000210163704700003E
:1015A00070B5044600680169E26821F440511143B6
:1015B00001612169A0680843616908432168CA681C
:1015C00041F20C639A430243CA6020684169A269F0
:1015D00021F44071114341611E492068884202D1C3
:1015E000FFF798F901E0FFF785F900EBC00101EB87
:1015F0000012606864218000B2FBF0F3B3FBF1F3EA
:101600006FF018067343B2FBF0F5B2FBF0F605EB92
:101610008305322303EB0515B5FBF1F5B6FBF1F6B7
:1016200005F0F00505EB0615B2FBF0F6B2FBF0F0A5
:10163000B0FBF1F06FF01802504306EB800003EBB3
:101640000010B0FBF1F0216800F00F002844886022
:1016500070BD0000003801402DE9F8439846174658
:101660000D460446089E24E0701C22D0FFF70EF8B9
:10167000A0EB0800B0421AD8CEB12068C168490773
:1016800017D5802D15D0402D13D00168C943090707
:101690000FD401680025406800902046FFF758FFEE
:1016A0000820606484F840500120BDE8F8830320DE
:1016B000FBE72068006835EA000004D00020B8424B
:1016C000D2D00020F1E70120F9E7FEE70907090E73
:1016D000002804DB00F1E02080F80014704700F0DF
:1016E0000F0000F1E02080F8141D7047FEF7DCFFCA
:1016F000FFF720FEFFF726FDFFF70EFDFFF78CFD3D
:10170000FFF7DAFDFFF7F4FD4FF4FA7464230422C7
:1017100003A10548FFF7AEFC2046FEF7A1FEF5E762
:101720007465737400000000E400002001020203ED
:101730000405060708090A0B0C0D0E0F1010000017
:101740000000000000000102030406070809000071
:1017500000000102030400007817000800000020C8
:101760001000000028010008881700081000002061
:101770008007000044010008010000001000000084
:081780000000000000127A00D5
:04000005080000ED02
:00000001FF
