:020000040800F2
:10000000381500209D010008653600089529000874
:100010009931000845090008A143000800000000CC
:100020000000000000000000000000006936000829
:10003000F309000800000000673600088538000852
:10004000B7010008B7010008B7010008B7010008B0
:10005000B7010008B7010008B7010008B7010008A0
:10006000B7010008B7010008B7010008B701000890
:10007000BD090008B7010008B7010008B701000872
:10008000B7010008B7010008B7010008B701000870
:10009000B7010008B7010008B7010008F50900081A
:1000A000B7010008B7010008B7010008B701000850
:1000B000B7010008B7010008B7010008B701000840
:1000C000B7010008B7010008B7010008B701000830
:1000D000B7010008B7010008B70100089543000800
:1000E000B7010008B7010008B701000800F002F8E6
:1000F00000F045F80AA090E8000C82448344AAF17D
:100100000107DA4501D100F03AF8AFF2090EBAE87A
:100110000F0013F0010F18BFFB1A43F0010318473B
:100120005882000078820000103A24BF78C878C155
:10013000FAD8520724BF30C830C144BF04680C60ED
:10014000704700000023002400250026103A28BF35
:1001500078C1FBD8520728BF30C148BF0B60704739
:10016000642900F07980752900F07680732900F009
:100170004482002070471FB51FBD10B510BD00F0B0
:1001800040FA1146FFF7F7FF04F07EFA00F05EFA3E
:1001900003B4FFF7F2FF03BC00F066FA094880479A
:1001A00009480047FEE7FEE7FEE7FEE7FEE7FEE759
:1001B000FEE7FEE7FEE7FEE704480549054A064B71
:1001C000704700000B390008ED000008380F0020D0
:1001D0003815002038110020381100200FB41CB54C
:1001E000074B06AA7B4469460090059800F0DBF9AE
:1001F0000020694600F0EAF91CBC5DF814FB000021
:10020000E503000070B50C460546012A05D02878A4
:10021000800600D5EA69002302E0012305E05B1CAB
:10022000934202D2E05C0028F9D1A869E618C01A0E
:10023000A861286A184428622846AFF3008004E0C9
:10024000D5E9012114F8010B9047B442F8D32846B0
:10025000AFF3008070BD00002DE9F0410646002498
:1002600010687529314616A510D0AFF3008000281C
:1002700002DA404213A507E031688A0701D512A5CA
:1002800002E0490704D511A5012401E0AFF3008085
:1002900000210A2206F1240709E0B0FBF2FCB0FBC2
:1002A000F2F302FB1C00303078541846491C002839
:1002B000F3D123462A463046BDE8F04100F015B997
:1002C000000000002D0000002B00000020000000B6
:1002D0002DE9F0410F460546002028622846E968CE
:1002E000884770B3252805D0D5E901219047286AB1
:1002F000401CF2E7E9682846002688476C28044637
:100300000AD0682C08D04C2C35D06A2C31D0742CF3
:1003100031D07A2C2FD016E0E96806462846884767
:10032000B042044608D16C2E23D04FF48066284694
:10033000E9688847044606E06C2E03D04FF48076C7
:1003400001E01EE04026E4B1A4F14100192802D8E2
:10035000203446F400663A46214628462E60FFF7D0
:10036000FFFE60B1012808D0FF1D27F007070837FE
:10037000B4E78026DBE70026D9E73F1DAEE720463D
:10038000B2E7286ABDE8F08140EA0103024630B5D1
:100390009B0710D14FF0013400E008C208C91D1BB3
:1003A0009D4315EAC41FF8D013F0FF0102F8011BAA
:1003B0000DD01B0AF8E711F8013B002B02F8013BB6
:1003C00005D011F8013B002B02F8013BF3D130BD01
:1003D0004FF000020429C0F0128010F0030C00F06E
:1003E0001B80CCF1040CBCF1020F18BF00F8012BEC
:1003F000A8BF20F8022BA1EB0C0100F00DB85FEABA
:10040000C17C24BF00F8012B00F8012B48BF00F885
:10041000012B70474FF0000200B5134694469646F4
:10042000203922BFA0E80C50A0E80C50B1F1200107
:10043000BFF4F7AF090728BFA0E80C5048BF0CC0B5
:100440005DF804EB890028BF40F8042B08BF704713
:1004500048BF20F8022B11F0804F18BF00F8012B85
:10046000704700004FF0013C50F8042B51F8043B5A
:100470009A4221D1A2EB0C03934313EACC1317D178
:1004800050F8042B51F8043B9A4215D1A2EB0C030F
:10049000934313EACC130BD150F8042B51F8043BCF
:1004A0009A4209D1A2EB0C03934313EACC13DBD09D
:1004B0004FF00000704700BFD01A01BAB1FA81F1C5
:1004C00001F0180122FA01F0CB40C1F12001DBB2AA
:1004D000C0B2C01A2CFA01F3D11A914311EAC31128
:1004E000E6D170477047704770472DE9F0470D46D9
:1004F00099469246044600F124080168880604D50E
:10050000E06921F01001216000E00120A84201DD36
:10051000471B00E00027A1697A1902EB0900081ABD
:10052000A0612078C00602D42046AFF300800026E8
:1005300008E0D4E901211AF806009047206A401C1F
:10054000761C20624E45F4DB2078C0060AD5204692
:10055000AFF3008006E0D4E9012130209047206A03
:10056000401C2062381EA7F10107F4DC07E0D4E943
:10057000012118F805009047206A401C2062281EBF
:10058000A5F10105F3DC2046AFF3008020780006DA
:1005900002D50220BDE8F0870120FBE701694A1C73
:1005A00002610878704700B58FB0CDE901310021B4
:1005B000059105497944CDE9031011466846FFF7D6
:1005C00087FE0FB000BD0000E5FFFFFF0A6802F8DC
:1005D000010B0A60704710B5436913B1AFF3008097
:1005E00001E0FFF70FFE012010BD127800F1240199
:1005F0000A7000224A700122EDE711684FF0FF32C5
:10060000E9E7754600F02CF8AE460500694653460A
:1006100020F00700854618B020B5FFF7CDFDBDE8F6
:1006200020404FF000064FF000074FF000084FF059
:10063000000B21F00701AC46ACE8C009ACE8C009EA
:10064000ACE8C009ACE8C0098D46704710B5044657
:10065000AFF300802046BDE81040FFF799BD0000D1
:1006600000487047D40E002001491820ABBEFEE7B9
:10067000260002007047000070B5044600688168DB
:10068000C943C90717D1816821F00101816000F0D9
:100690001FFF05460AE000BF00F01AFF401B0228BA
:1006A00004D920688068C043C00706D020688068ED
:1006B000C043C007F0D0002070BDA06A40F0100019
:1006C000A062E06A40F00100E062012070BD00001D
:1006D000F8B500260446009600688168C943C9073A
:1006E0002DD0816841F001018160164816490068EB
:1006F000B0FBF1F000E0401E00900028FBD100F0BC
:10070000E7FE054616E000BF00F0E2FE401B0228AF
:1007100010D920688068C043C0070BD0A06A40F0A1
:100720001000A062E06A40F00100E06284F82460FA
:100730000120F8BD20688068C043C007E4D10020D4
:10074000F8BD0000C400002040420F00F0B589B0A1
:1007500000F0BEFE4F4C0646E06B301A64287DD395
:100760000820E66302F0BCFBB0F5805F01D340F6E1
:10077000FF70617CB1B1E16CDC22514300EBC00041
:1007800001EB8000000AE064616C884200D2606482
:10079000A16C884200D9A064D4E911128A4206D91A
:1007A000501A05E001216174E0646064F3E7012000
:1007B000E36C6225D21A6A43B2FBF0F2D5B2591A41
:1007C000F5225143B1FBF0F00A30C1B20A2900D240
:1007D0000A21207C814205D021740B460A46402024
:1007E00003F0D0FE2078062851D1206C301AC8289A
:1007F0004DD3266428A103A8E26CFFF7EFFC002785
:100800001020CDE900704FF6FF7303AA28210A20BB
:10081000029702F0F7FA48F2304650237222194646
:100820000E20009602F0EEF85A23722219460E208E
:10083000009602F0E7F80E225A2350211046009647
:1008400002F0E0F872225A2350211046009602F07E
:10085000D9F8E07B85421AD00DD900E017E047F6C1
:10086000FF7100914FF0590305F10F024FF0510154
:1008700000F10F0008E04FF059034FF071024FF004
:10088000510105F10F00009702F015F9E57309B069
:10089000F0BD0000000000204C696768743A202514
:1008A0006C7520202000000001220249024801F05E
:1008B00083BE0000B50000200802002008494B78E4
:1008C0008A78934209D040B1064B9B5C0370521C5E
:1008D00002F01F0088700120704700207047000060
:1008E000B5000020B40E00200B4908B50020487068
:1008F0008870087002460121272000F055FE27204D
:1009000000F044FE05480068016840680090BDE8BA
:100910000840FFF7C9BF0000B50000200802002012
:10092000074882B090F84210222906D0006801687A
:100930004068009002B0FFF7B7BF02B070470000F8
:1009400008020020FEE7000010B500224FF480519D
:10095000054800F0B7FD054C0120207000F0B8FDFF
:100960000F30606010BD0000000C0140AC000020A2
:1009700010B501221103044800F0A4FD0348002132
:100980000170416010BD0000000C0140AC0000206F
:1009900010B5084C207800280BD000F099FD616854
:1009A000401A06D401221103034800F08BFD0020F9
:1009B000207010BDAC000020000C0140014800F088
:1009C0004DBB00007C01002030B590F84050012460
:1009D000AC40C56B6C60046863604368102B0368AF
:1009E00003D099600068C26030BD9A600068C16041
:1009F00030BD704710B5402000F068FCBDE81040E5
:100A0000802000F063BC72B6FEE70000F8B5002558
:100A10000446009590F8240001280BD0012084F8AA
:100A200024002046FFF728FE2046FFF751FE06006F
:100A300002D050E00220F8BDA06A20F4885040F0B7
:100A40000200A062022000F0E1FD25490968B1FB27
:100A5000F0F0400000E0401E00900028FBD120682C
:100A6000816841F00801816000F032FD074608E02E
:100A700000F02EFDC01B0A2803D9206880680007FB
:100A800015D4206880680007F2D42068816841F09E
:100A90000401816000F01CFD074612E000F018FD23
:100AA000C01B0A280DD920688068400709D5A06AB4
:100AB00020F0020040F01000A06284F824500120D1
:100AC000F8BD206880684007E8D4A06A20F00200E2
:100AD00040F00100A06284F824503046F8BD0000C8
:100AE000C4000020F8B50024009490F82420254686
:100AF000012A12D0012280F824204A681F23072AE5
:100B00000DD20668776B521E02EB820293409F4320
:100B10000B6893401F43776319E00220F8BD066815
:100B20000D2A0AD2376BD21F02EB820293409F43F9
:100B30000B6893401F43376309E0F76A0D3A02EBF5
:100B4000820293409F430B6893401F43F7620A68F9
:100B5000072306680A2A0AD3F7680A3A02EB420218
:100B600093409F438B6893401F43F76008E03769C9
:100B700002EB420293409F438B6893401F433761CF
:100B80000A68102A01D0112A20D1124B02689A4219
:100B900017D193681B0219D4936843F40003936040
:100BA0000968102912D10C490C4A0968B1FBF2F10D
:100BB00001EB8101490000E0491E00910029FBD1B1
:100BC00004E0816A41F020018162012480F8245010
:100BD0002046F8BD00240140C400002040420F0020
:100BE0000068C06C704700002DE9F0414FF000072D
:100BF00004003D467ED0A06A002628B9E66284F84B
:100C00002460204600F07EF82046FFF735FDA16AFB
:100C1000C90600D420B1A06A40F01000A06269E0CB
:100C2000A16A21F4885141F00201A1626268E16980
:100C3000237B0A4347EA43010A43A1684FF48077C4
:100C4000B94209D0012907D05FF0000194F814C01F
:100C5000BCF1010F02D00AE03946F7E7F3B1A36A0D
:100C600043F02003A362E36A43F00103E3622368D5
:100C7000D3F804C02CF4694C4CEA010CC3F804C04E
:100C800021688B68DFF870C003EA0C0313438B60A4
:100C9000A168B9420BD0012909D00CE0DFF85CC093
:100CA000A3690CEB43330B4343F40061DFE7218A74
:100CB0000D05A5F580152168CB6A23F470032B433D
:100CC000CB62216889680E4B1940914208D1E662D7
:100CD000A16A21F0020141F00101A162BDE8F081A9
:100CE000A06A20F0020040F01000A062E06A40F02C
:100CF0000100E0620120F1E7FDF7E1FF00E0FFFF06
:100D0000FE0E1FFF30B585B00021009101910291C8
:100D1000039100681649884227D1164CA06940F417
:100D20000070A061A06900F400700490A06940F018
:100D30000400A061A069032500F004000490402095
:100D4000CDE9000569460C4800F0CCFAA06940F0F6
:100D50000800A061A069694600F008000490012025
:100D6000CDE90005054800F0BDFA05B030BD000032
:100D7000002401400010024000080140000C014026
:100D80002DE9F84300270D460446009700F0A0FB2C
:100D9000804620688168C90508D5A06A40F0200017
:100DA000A06284F824700120BDE8F8834168C90579
:100DB00003D4C06A10F4700F2AD0022000F026FC81
:100DC0003B490968B1FBF0F62068036939490B42D9
:100DD0004FEA61014FEAA1121FD1C3684FEA611CBB
:100DE00013EA0C0F19D103690B4225D1C0681042D8
:100DF00022D1142023E0681C0AD02DB100F068FB3A
:100E0000A0EB0800A84203D920680068800725D518
:100E1000206800688007EED52DE003690B4202D1FF
:100E2000C168114206D0026923490A4206D1C0684E
:100E3000084203D1542002E0292000E0FC20464370
:100E4000009816E0681C11D02DB100F041FBA0EB1A
:100E50000800A8420AD90098B04207D2A06A40F020
:100E60000400A06284F8247003209DE70098401CD1
:100E70000090B042E6D321686FF012000860A06ACB
:100E800040F40070A06220688068C0F342400728E8
:100E90000CD1207B50B9A06A20F48070A062A06AB7
:100EA000C00403D4A06A40F00100A06200207BE7E8
:100EB000C4000020244992244992240070B50446BD
:100EC00090F8240001280DD0012084F82400204649
:100ED000FFF7FEFB02004FF0000005D084F824006D
:100EE000104670BD022070BDA16A40F201239943F3
:100EF00041F48071A1621F4D23681F49AB4218D194
:100F00000E6816F4702F14D0A66A46F48016A662F6
:100F10000E68760505D5A66A26F4005646F4805676
:100F2000A662A66AF6040AD5E66A26F00606E66216
:100F300006E0A66A26F48016A6625E68E9E7E0622B
:100F400084F824006FF00200186020688368C3F3FF
:100F50004243072B05D1A84208D1096811F4702F2C
:100F600004D0816841F480118160B9E7816841F45F
:100F7000A001F9E7002801400424014010B590F8D1
:100F800021100022022905D00421816380F820204D
:100F9000012010BD01680B6823F00E030B6001688F
:100FA0000B6823F001030B6090F84030C46B012103
:100FB00001FA03F3636080F8211080F820201046C6
:100FC00010BD000010B590F821100024022903D0B4
:100FD0000421816301243DE001680A6822F00E02C9
:100FE0000A6001680A6822F001020A601A4A016870
:100FF000914201D1012121E0174A1432914201D1DD
:1010000010211BE0144A2832914201D1891515E0C4
:10101000114A3C32914201D189140FE00E4A5032FC
:10102000914202D14FF4803108E00B4A6432914280
:1010300002D14FF4801101E04FF08071064A083A66
:101040005160012180F82110002180F82010416BAF
:1010500001B18847204610BD080002402DE9F05F2D
:10106000C16B0C6801680B68D0F840C0042202FA1A
:101070000CF2494DDFF824A1494E4A4FDFF828B160
:10108000DFF828E122422CD05A072AD50A689206B6
:1010900003D40A6822F004020A600168A94201D15F
:1010A000042219E0514501D1402215E0B14202D19C
:1010B0004FF4806210E0B94202D14FF480420BE05D
:1010C000594502D14FF4802206E0714502D14FF418
:1010D000800201E04FF080622F4908394A60C16AFE
:1010E0003BE04FF0020808FA0CF818EA040F4FF042
:1010F00000094FF0010235D05FEA837832D50B68E2
:101100009B0605D40B6823F00A030B6080F82120AE
:101110000168A94201D1022219E0514501D12022E2
:1011200015E0B14202D14FF4007210E0B94202D191
:101130004FF400520BE0594502D14FF4003206E063
:10114000714502D14FF4001201E04FF000721249D4
:1011500008394A6080F82090816A00291AD0BDE8D9
:10116000F05F0847082505FA0CF5254212D01B0749
:1011700010D50B6823F00E030B6090F84010C36B82
:1011800002FA01F15960826380F8212080F82090F2
:10119000016BE2E7BDE8F09F080002401C0002403E
:1011A0003000024044000240580002406C000240FF
:1011B00030B528B308C8134914221944B1FBF2F121
:1011C0008900C16310498163022141771A6843F69F
:1011D000F0718A43D0E900142143D0E902452C4341
:1011E0002143046921434469214384692143114314
:1011F000196000214163012242770177084630BD22
:10120000012030BDF8FFFDBF0000024070B504466C
:1012100090F82000002501280CD0012084F820003F
:1012200094F821600020012E06D084F820000225C9
:10123000284670BD022070BD022684F82160A0639C
:101240002068066826F0010606602046FFF7BCFB12
:10125000E06A00282068016802D041F00E0106E033
:1012600021F0040101602068016841F00A01016079
:101270002068016841F001010160D9E770B50446BA
:1012800000F026F90546601C02D0044800780444AA
:1012900000F01EF9401BA042FAD370BDB800002038
:1012A00010B5044600F014F907498A69821AC82A61
:1012B00006D30122402C04D0802C01D18A70886191
:1012C00010BD4A70FBE7000000000020044910B583
:1012D0000A68024202D00860FFF7E2FF10BD00007A
:1012E000140401402DE9F84FDFF8B8910024A9F16A
:1012F000040B23460F2709F1040AABF1040EC9E0E1
:101300000125A5402A40AA427DD1674ED1F804C0EC
:10131000ACEB0608B44532D014DCBCF1030F3AD074
:1013200009DCBCF1000F2AD0BCF1010F1CD0BCF1CC
:10133000020F31D11DE0BCF1110F17D0BCF1120F1B
:101340002AD119E0B8F5881F19D006DCB8F5803F1E
:1013500015D0B8F5801F1FD111E0B8F5001F0ED0D1
:10136000B8F5041F18D10AE0CB6815E0CB681B1D47
:1013700012E0CB6808330FE0CB680C330CE08B68CD
:101380002BB1012B4FF0080303D0456104E0042387
:1013900002E0056100E00023FF2A01D8064601E0D3
:1013A00000F104064FEA840501D9A5F12005D6F81D
:1013B000008007FA05FC28EA0C0803FA05F548EA5C
:1013C0000508C6F800804D68ED0062D5374DAE695E
:1013D00046F00106AE61AD6924F0030605F0010593
:1013E0000095334D06EB050CDCF80850A607360FC8
:1013F00007FA06F825EA0805DFF8B880404503D16A
:101400004FF0000817E044E0DFF8AC80404502D11F
:101410004FF001080FE0DFF8A480404502D14FF003
:10142000020808E0DFF89880404502D14FF0030839
:1014300001E04FF0040808FA06F848EA0508CCF87D
:1014400008804D68D9F80060ED024D4601D516437D
:1014500000E096432E604D68DAF80060AD02554614
:1014600001D5164300E096432E604D68DBF800601E
:10147000AD035D4601D5164300E096432E604D68EE
:10148000DEF80060ED03754601D5164300E0964393
:101490002E60641C0D682A46E5407FF431AFBDE83C
:1014A000F88F0000080401400000111000100240F5
:1014B0000000014000080140000C01400010014004
:1014C000001401400AB1016170470904FBE7000004
:1014D0000148806870470000B80000200248816819
:1014E0000278114481607047B8000020074810B5A9
:1014F000016841F010010160032000F075F80F2031
:1015000000F006F800F024F8002010BD0020024092
:1015100070B50D4D04464FF47A712878B1FBF0F0A8
:101520000A490968B1FBF0F000F0A4FB48B9102C9F
:1015300007D200222146501E00F036F800206C60D1
:1015400070BD012070BD0000B8000020C400002064
:101550000C4808B5816941F001018161816901F0A0
:1015600001010091C16941F08051C161C06900F081
:10157000805000900448416821F0E06141F0007122
:10158000416008BD0010024000000140002809DB56
:1015900000F01F02012191404009800000F1E0208D
:1015A000C0F8001170470000F0B40E4B1B680C46E9
:1015B000C3F30223C3F10705042D00D90425191D27
:1015C000072901D2002300E0DB1E012606FA05F1FF
:1015D000491E214099409E40761E16403143F0BC82
:1015E00003F042B80CED00E0064900F0070208687D
:1015F0004FF6FF03184040EA0220034A10430860F8
:10160000704700000CED00E00000FA0510B501463F
:101610000020234C012922D0022939D010291DD1C4
:1016200061682268D20119D51E48C1F38342C903FB
:10163000805C0AD561681B4AC1F34041921E515C2F
:10164000194AB2FBF1F1484301E018494843616887
:10165000490203D440000321B0FBF1F010BD226A1F
:10166000C2F30121012903D1920701D5C80310BD9E
:10167000022905D1626A920702D549F6404010BDA1
:101680000329FCD121688903F9D54FF2244010BD0C
:1016900000F02AF96168C1F38131491C4900DBE798
:1016A000001002401C83000800127A0000093D006F
:1016B0002DE9F84305460078354CC00754D0E06961
:1016C0000026C00008D4E06940F08050E061E06985
:1016D000012600F0805000902E480168C90512D400
:1016E0000168804641F480710160FFF7F1FE074612
:1016F00005E000BFFFF7ECFEC01B642823D8D8F834
:101700000000C005F6D5206A10F4407021D0A988E9
:1017100001F4407181421CD0206A1F49012220F44B
:1017200040700A6000220A602062C00711D0FFF7F3
:10173000CFFE074641F2883808E000BFFFF7C8FE39
:10174000C11B414502D90320BDE8F883206A800708
:10175000F4D5206A696820F44070084320621EB105
:10176000E06920F08050E0612878800705D5606846
:10177000A96820F44040084360602878C00605D579
:101780006068E96820F48000084360600020DBE7BF
:101790000010024000700040400442422DE9F04732
:1017A0000F46050061D0434E306800F00700B84294
:1017B00009D2306820F0070038433060306800F00C
:1017C0000700B84251D128683B4C810712D5400729
:1017D00003D5606840F4E06060602878000703D5B6
:1017E000606840F4605060606068A96820F0F000B4
:1017F000084360602878C00728D06868012810D0A6
:101800002168022810D0890700292EDA616821F0AA
:10181000030101436160FFF75BFE804641F28839B6
:101820000DE021688903EFE78901EDE7FFF750FE3E
:10183000A0EB0801494502D90320BDE8F0876068A4
:10184000696800F00C00B0EB810FEFD1306800F058
:101850000700B8420BD9306820F0070038433060E9
:10186000306800F00700B84201D00120E5E7287891
:10187000400705D56068E96820F4E06008436060CF
:101880002878000706D56068296920F4605040EA8E
:10189000C100606000F038F86168084AC1F30311C4
:1018A000515CC8400649086006480068FFF730FEF2
:1018B0000020C2E700200240001002402C830008F4
:1018C000C4000020BC0000200448054900684968A5
:1018D000044AC1F30221515CC8407047C400002093
:1018E000001002403C83000804480549006849682C
:1018F000044AC1F3C221515CC8407047C4000020B3
:10190000001002403C8300080E4A51680E4801F066
:101910000C03042B11D0082B0FD10C48C1F38343C7
:10192000C903C05C0AD55168084AC1F34041921E00
:10193000515C054A5043B0FBF1F0704704494843FD
:10194000704700000010024000127A000A8300086D
:1019500000093D002DE9F84F040070D02078C04DFB
:10196000C00749D06868C0F38100012807D06868C3
:10197000C0F38100022809D16868C00306D5286831
:10198000800339D560680028E7D035E06068B0F59D
:10199000803F0BD010B1B0F5A02F11D0286820F4F3
:1019A00080302860286820F4802002E0286840F415
:1019B00080302860606890B1FFF78AFD06460AE033
:1019C000286840F480202860F0E700BFFFF780FD22
:1019D000801B642873D828688003F7D50CE0FFF7D4
:1019E00077FD064605E000BFFFF772FD801B642807
:1019F000F0D828688003F7D420789A4E80074FF0FB
:101A000001094FF0000839D5686810F00C0F07D0B5
:101A10006868C0F38100022809D16868C00306D451
:101A20002868800714D52069012808D110E02069B2
:101A3000B0B1C6F80090FFF74BFD074605E00AE19C
:101A4000FFF746FDC01B0228C4D828688007F7D5D9
:101A50002868616920F0F80040EAC10028600DE0C4
:101A6000C6F80080FFF734FD074604E0FFF730FDBD
:101A7000C01B022823D828688007F7D420780007E5
:101A80002CD57948A169D9B1C0F80090FFF720FDA5
:101A9000074604E0FFF71CFDC01B02280FD8686A48
:101AA0008007F7D571484FF4FA510068B0FBF1F0A8
:101AB000009000BF0098411E0091FAD20EE080E035
:101AC000C0F80080FFF704FD074604E0FFF700FDC3
:101AD000C01B022875D8686A8007F7D420784007B1
:101AE00060D5E8690027C00008D4E86940F080505C
:101AF000E861E869012700F0805000905C480168C7
:101B0000C90513D40168834641F480710160FFF771
:101B1000DFFC824606E000BFFFF7DAFCA0EB0A001C
:101B200064284ED8DBF80000C005F5D5E068012830
:101B30000AD008B1052813D0286A20F001002862D5
:101B4000286A20F0040002E0286A40F001002862C0
:101B5000E06841F2883B98B1FFF7BAFC82460BE09F
:101B6000286A40F004002862EEE700BFFFF7B0FCEF
:101B7000A0EB0A0159455AD8286A8007F6D50CE02F
:101B8000FFF7A6FC824605E0FFF7A2FCA0EB0A01E6
:101B900059454CD8286A8007F6D41FB1E86920F06F
:101BA0008050E861E06988B36968C1F38101022966
:101BB00044D00228C6F8608004D0FFF789FC0446B0
:101BC00038E034E0FFF784FC074604E0FFF780FCD0
:101BD000C01B02282BD828688001F7D4206AB0F5F2
:101BE000803F05D16868A16820F400300843686030
:101BF000D4E908010843696821F474110843686056
:101C0000C6F86090FFF764FC044606E025E000BFDC
:101C1000FFF75EFC001B022809D828688001F7D571
:101C20001BE000BFFFF754FC001B022802D9032071
:101C3000BDE8F88F28688001F4D40EE00128F7D0C1
:101C40006868226A00F48031914204D1616A00F42C
:101C50007010884201D00120EAE70020E8E7000088
:101C6000001002400000424280044242C4000020B2
:101C70000070004010B5401EB0F1807F01D30120FC
:101C800010BD4FF0E02460610F21601702F0ECFC02
:101C90000020A06107202061002010BD10B590F841
:101CA0003C20012A22D0012280F83C20CA688C689E
:101CB00022F4407222434C6822F4806222430C6872
:101CC00022F4006222430C6922F4805222434C69C0
:101CD00022F400522243C969002322F480420A43BD
:101CE00001684A6480F83C30002010BD022010BD1D
:101CF00070B590F83C20012A26D0012480F83C40A1
:101D0000022280F83D2003685A689D6822F0700620
:101D10000A6832435A600D4B02689A4208D0B2F109
:101D2000804F05D00A4B9A4202D00A4B9A4204D106
:101D3000496825F080031943916080F83D400021F7
:101D400080F83C10084670BD022070BD002C014098
:101D500000040040000800402DE9F04117460D0046
:101D600004464FF000060CD0042D11D0082D16D0DB
:101D700094F84500022819D094F84500012818D09D
:101D80005AE094F84200022810D094F84200F5E797
:101D900094F84300022809D094F84300EEE794F841
:101DA0004400022802D094F84400E7E70220BDE88E
:101DB000F08187B37BB33A493A4ADFF8ECC002209E
:101DC0003DB1042D16D0082D26D084F845000126FB
:101DD00063E084F84200606A8162606A3946C262E8
:101DE000606AC0F830C02268606A3432FFF70EFAC9
:101DF00088B923E084F84300A06A8162A06A39466A
:101E0000C262A06AC0F830C02268A06A3832FFF708
:101E1000FDF900B917E00FE084F84400E06A816240
:101E2000E06A3946C262E06AC0F830C02268E06AFF
:101E30003C32FFF7EBF958B10120B8E72068C168E0
:101E400041F4007108E02068C16841F4806103E05A
:101E50002068C16841F40061C160042229462068FD
:101E600001F090FD2068416C41F4004141640F494C
:101E70002068884208D0B0F1804F05D00C498842D4
:101E800002D00C49884204D1816801F0070106297B
:101E900003D0016841F001010160304687E700008E
:101EA000D73900089F390008213A0008002C01406A
:101EB000000400400008004070B50D0004464FF0DB
:101EC000000605D0042D0AD0082D0FD001263CE0D5
:101ED0002068C16821F40071C160606A0CE020686C
:101EE000C16821F48061C160A06A05E02068C16812
:101EF00021F40061C160E06AFFF764F8002229461E
:101F0000206801F03FFD2068036A41F211110B4285
:101F100040F2444206D1036A134203D1436C23F4D6
:101F2000004343642068036A0B4206D1016A1142F0
:101F300003D1016821F00101016001203DB1042DB0
:101F400008D0082D09D084F84500304670BD84F8CB
:101F50004200FAE784F84300F7E784F84400F4E726
:101F60007047000000B585B00021009101910291F9
:101F7000039100680B49884212D10B48816941F0F6
:101F8000080181618069694600F0080004904FF4FF
:101F9000005000900220019003900448FFF7A2F93E
:101FA00005B000BD002C014000100240000C0140B3
:101FB00070B5044690F83C0000260D4601280FD06D
:101FC000012084F83C006AB1042A1DD0082A2FD0D1
:101FD0000C2A3FD00126002084F83C00304670BD1A
:101FE000022070BD206801F03BFD2068816941F04E
:101FF000080181612068816921F004018161206804
:1020000081692A69114311E0206801F051FD2068BF
:10201000816941F4006181612068816921F48061F6
:102020008161206881692A6941EA02218161D2E7E0
:10203000206801F069FD2068C16941F00801C161B3
:102040002068C16921F00401C1612068C1692A6961
:10205000114311E0206801F083FD2068C16941F45B
:102060000061C1612068C16921F48061C16120689B
:10207000C1692A6941EA0221C161ACE710B50400D7
:1020800003D094F83D0010B107E0012010BD0020FE
:1020900084F83C00204600F01FF8022084F83D0040
:1020A000211D206801F032FC012084F8460084F8EC
:1020B0003E0084F83F0084F8400084F8410084F832
:1020C000420084F8430084F8440084F8450084F812
:1020D0003D00002010BD000038B5054600681249DB
:1020E000884220D11148816941F400618161806991
:1020F000104C00F4006000900D48206010206060DB
:1021000000208021C4E90201490021618900C4E95D
:102110000510C800E0612046FFF74AF808B1FEF755
:1021200072FC6C62656238BD002C014000100240F8
:102130001C0002407C01002010B50068054988425F
:1021400006D100210448FFF7B7FE044900200870BB
:1021500010BD0000002C014034010020B40000201C
:1021600070477047064982B0884206D10868016806
:102170004068009002B0FEF797BB02B070470000C5
:1021800008020020F8B5016804460868CA684B696F
:1021900010F00F0F4FF0000559D003F0010602F4C4
:1021A0009077374365D0C10705D0D10503D5616C61
:1021B00041F001016164410705D5D90703D0616C85
:1021C00041F002016164810705D5D90703D0616C34
:1021D00041F004016164010707D502F02001314399
:1021E00003D0616C41F008016164616C00293AD050
:1021F000800604D5900602D5204601F002FD206835
:102200004069616CC0F38010090700D460B32046B8
:1022100001F0D0FC20684069400621D520681430C8
:1022200050E8001F21F0400140E80012002AF5D1DB
:10223000E06BA8B16D494163E06BFEF7C3FE002877
:1022400011D0E06B416B01B0BDE8F0400847830658
:102250000FD593060DD52046BDE8F84001F0D1BC5E
:102260002046FFF77FFFF8BD2046FFF77BFF656440
:10227000F8BD266B2023012E7CD1C6067AD5D60662
:1022800078D508684868009048694FF00206400613
:1022900040D5E16B086840680004000CE8D0A28DCE
:1022A0008242E5D9E085886920282DD020680C304D
:1022B00050E8001F21F4807140E80012002AF5D197
:1022C0002068143050E8001F21F0010140E800129E
:1022D000002AF5D12068143050E8001F21F0400199
:1022E00040E80012002AF5D184F8423025632068C6
:1022F0000C3050E8001F21F0100140E80012002AC5
:10230000F5D1E06BFEF73AFE6663A08DE18D401AD1
:1023100081B22AE0A08DE18D401A81B2E08D0028C3
:10232000A6D00029A4D022680C3252E8000F20F475
:10233000907042E80007002FF5D12068143050E873
:10234000002F22F0010240E80027002FF5D184F889
:102350004230256320680C3050E8002F22F0100234
:1023600040E80023002BF5D166632046FFF7F9FE15
:10237000F8BDFFE705062BD5150629D594F84100D1
:102380002128F5D1A068B0F5805F01D12069B0B1F6
:10239000206A411C2162216800784860E08C401E60
:1023A0000004000CE084E3D12068C16821F08001C2
:1023B000C1602068C16841F04001C160D8E7206A6F
:1023C0000088C0F308004860206A801C2062E5E7AE
:1023D0004006CDD55006CBD5CA68204622F0400233
:1023E000CA6084F8413000F019F9C1E7A53B000844
:1023F00070B5040004D094F84100002510B106E047
:10240000012070BD84F84050204600F023F82420BD
:1024100084F841002068C16821F40051C160204661
:1024200001F050FC2068016921F4904101612068AD
:10243000416921F02A0141612068C16841F40051DD
:10244000C1606564202084F8410084F8420065631F
:10245000002070BD30B585B0002400940194029432
:102460000394244D0368244802210322AB421AD16D
:10247000C36943F40033C361C36903F400330493B5
:10248000836943F00403836180691C4D00F00400FC
:1024900004900420CDE90001039269462846FEF726
:1024A00021FF08201CE0164DAB4220D1C36943F444
:1024B0008023C361C36903F480230493836943F0D9
:1024C000080383618069039200F0080004902815D6
:1024D000CDE900010B4D69462846FEF703FFE814DD
:1024E000CDE90004694628460294FEF7FBFE05B0DC
:1024F00030BD0000004400400010024000080140D0
:1025000000480040000C01402DE9F84F044690F8C7
:1025100042009A4616460D46202802D00220BDE809
:10252000F88FB5B1AEB100206064222184F842106A
:102530002063FEF7CDFFA6858146E685A0684FF4AF
:1025400080582027404501D1206920B12E46002522
:1025500029E00120E3E7002625E04B460022202168
:102560002046CDF800A001F024FC18B184F8427098
:102570000320D4E726B1A06840451AD038B108E05E
:1025800020684068C0F3080025F8020B08E02069C5
:1025900078B12068406800F07F0000BF06F8010BAA
:1025A000E08D401EE085E08D0028D6D184F8427091
:1025B000B5E720684068F1E790F84230202B01D061
:1025C0000220704721B11AB10023036301F0D6BB8A
:1025D000012070470E4930B4884216D10D48017869
:1025E000303909290ED8CBB2417884784A1C02F0E0
:1025F0001F02A24203D1641C04F01F048470064C25
:102600006354427030BCFEF74FB930BC70470000D5
:1026100008020020B5000020B40E002070472DE90C
:10262000F0434FEA102CC0B200EB4000470001FB22
:1026300007F64FF4C069C1F1FF00A7F2FF577F42D0
:102640007943B6FBF9F691FBF9F1C6F1FF06C1F14A
:10265000FF0156435143CF17DDE9075450434FEA7A
:10266000E678000A06EB186601EB1761C6F3072649
:10267000C1F30721BCF1050F17D2DFE80CF0030608
:102680000B0F12001A70297001E01E702A70207062
:10269000BDE8F08318702A702170F9E718702E7069
:1026A00001E0197028702270F2E71A702870267005
:1026B000EEE700002DE9FC4100252C4603E000BFB9
:1026C0009DF8005001246846FEF7F8F80028F7D17D
:1026D000002C4CD0002601274A4C8DF800500321D5
:1026E0004DB1227804F15C00052A40D2DFE802F007
:1026F00023417E5772002078082838D2DFE800F0A6
:1027000037571157040404042078052802D1667253
:10271000A68226722170402001F018FF01F082FB92
:1027200023E0402001F012FFE7702670E672266277
:102730002673002016E0012D05D0022D09D0032DAF
:1027400015D12170EAE727701E210B46E7701A4663
:1027500037E002202070E6722662FEF7B9FEE061E3
:102760002773012001F01EFED8E7FEF7EDF8BDE863
:10277000FC81681E0228FAD8E57001F053FBE0786E
:10278000012808D0022808D0FF210B461A46402015
:1027900001F0F8FEE9E71E21F7E77821F5E7012DC2
:1027A0000BD0022D11D0032D11D0042DDFD14020EC
:1027B00001F0CCFEE7702670B0E70421217021798A
:1027C0000DE0402001F0DEFEA8E7052000E0062035
:1027D0002070A3E76D1E062DC9D8E9B2217100EB68
:1027E000C10210F8311093785278EAE7681E042885
:1027F000BDD830358DF804508DF8056001A801F082
:1028000021FEB2E7000000202DE9F041604C607825
:1028100003270126002504F15C08002859D06570C3
:10282000FEF792F82078082853D2DFE800F0040C75
:1028300045252B3D40406079401CB0FBF7F107FB7C
:102840001100607143E0E078032802D2401CE07080
:1028500000E0E67001F0E6FAE078012808D00228EE
:1028600008D0FF210B461A46402001F08BFE30E0D5
:102870001E21F7E77821F5E7A079401C00F003005E
:10288000A07124E020790721401CB0FBF1F201FB8C
:102890001201217108EBC10218F8311093785278B7
:1028A000402001F06FFE12E06572A582257227704C
:1028B000402001F04BFE0AE0402001F047FEE670A8
:1028C0002570E57225622573002001F06BFD01F093
:1028D000A9FAA078002858D0A570FEF735F820781E
:1028E000082852D2DFE800F0041D47233B433B3B5E
:1028F000607918B1012807D0277034E026701E23B4
:10290000E6701A46194624E002202070E57225621E
:10291000FEF7DEFDE06126735FF0010001F042FD8D
:1029200021E0402001F012FEE67025701BE0A07946
:1029300030B1012811D00228F3D10620207012E016
:1029400004202070217908EBC10218F83110937827
:102950005278402001F016FE05E00520EEE72770D2
:10296000402001F0F3FDBDE8F04101F05BBA657273
:10297000A5822572F3E7402001F0E8FDE67025709E
:10298000E572256225730020C8E7BDE8F0810000EC
:1029900000000020FEE72DE9F04107461C461546E1
:1029A0000E462A2000F056FABF1CB8B200F047FAD3
:1029B000AD1CA8B200F043FA2B2000F04BFA761CB5
:1029C000B0B200F03CFA641CA0B200F038FABDE8E6
:1029D000F0412C2000F03EBA70B506467F2300215E
:1029E0001A460846FFF7D7FF00240025304600F0BE
:1029F00026FA6D1CADB2802DF8D3641CA4B2802CD5
:102A0000F3D370BD2DE9FE4F161ACDE900104FF03B
:102A100000085D1A47464FF0FF30002E02DD4FF0F0
:102A2000010102E003D14FF000018B4602E0834632
:102A3000C6F10006002D02DD4FF0010002E003D1D7
:102A40004FF00000824602E08246C5F10005AE422A
:102A500001DD344600E02C46601C4FF00009029076
:102A600019E000980C9A81B2019880B200F018F831
:102A7000B0442F44A04504DD0198A8EB0408584455
:102A80000190A74203DD00983F1B5044009009F1DC
:102A900001001FFA80F902998945E2DBBDE8FE8F4B
:102AA00010B514460B460246FFF775FF2046BDE8F9
:102AB000104000F0C4B92DE9F04780461F46581E6B
:102AC00083B21646501E82B20C464046DDF8209076
:102AD000FFF761FF0AE0454604E0484600F0AFF921
:102AE0006D1CADB2B542F8D3641CA4B2BC42F2D3A3
:102AF000BDE8F08710B57E4C002201212046FEF78C
:102B0000E1FC6420FEF7BAFB012211462046FEF7E5
:102B1000D9FC6420FEF7B2FB012251027548FEF792
:102B2000D1FC7820FEF7AAFB112000F093F9782061
:102B3000FEF7A4FBB12000F08DF9052000F09EF90E
:102B40003C2000F09BF93C2000F098F9B22000F006
:102B500081F9052000F092F93C2000F08FF93C202B
:102B600000F08CF9B32000F075F9052000F086F92B
:102B70003C2000F083F93C2000F080F9052000F0B3
:102B80007DF93C2000F07AF93C2000F077F9B42080
:102B900000F060F9032000F071F9C02000F05AF94C
:102BA000282000F06BF9082000F068F9042000F0FC
:102BB00065F9C12000F04EF9C02000F05FF9C22095
:102BC00000F048F90D2000F059F9002000F056F906
:102BD000C32000F03FF98D2000F050F92A2000F0CA
:102BE0004DF9C42000F036F98D2000F047F9EE20B1
:102BF00000F044F9C52000F02DF91A2000F03EF94C
:102C0000362000F027F9002000F038F9E02000F02D
:102C100021F9042000F032F9222000F02FF90720DA
:102C200000F02CF90A2000F029F92E2000F026F9F6
:102C3000302000F023F9252000F020F92A2000F0B0
:102C40001DF9282000F01AF9262000F017F92E208F
:102C500000F014F93A2000F011F9002000F00EF90C
:102C6000012000F00BF9032000F008F9132000F018
:102C700005F9E12000F0EEF8042000F0FFF816203E
:102C800000F0FCF8062000F0F9F80D2000F0F6F84E
:102C90002D2000F0F3F8262000F0F0F8232000F0BB
:102CA000EDF8272000F0EAF8272000F0E7F82520CB
:102CB00000F0E4F82D2000F0E1F83B2000F0DEF811
:102CC000002000F0DBF8012000F0D8F8042000F02C
:102CD000D5F8132000F0D2F83A2000F0BBF8052018
:102CE00000F0CCF8BDE81040292000F0B3B8000097
:102CF00000080140000C01402DE9FF4F81B004465F
:102D0000DDF83C9000904FEA59074FF00008780733
:102D100000D0012000EBD70000FB09FB203AD0B225
:102D20000390029802994844401E83B2E019401E65
:102D300082B22046FFF72FFE002553E0B9F10C0FB9
:102D40002AD0B9F1100F2ED0B9F1180F2ED0B9F149
:102D5000200F49D12749039801EB8010002610F875
:102D600005A0109800284FF0010000FA06F000EAD4
:102D70000A0022D020B12046049A0299FFF790FE63
:102D8000641C0098A4B2201AB84225D10298009C75
:102D9000401C80B2029023E00398174900EB4000EA
:102DA00001EB8000DAE71549039803E00398144922
:102DB00000EB400001EB0010D0E708B1049800E000
:102DC0000E9800F03CF808F10100C0B2B0FBF7F13A
:102DD000804607FB118050B1761CF6B2082EC0D396
:102DE0006D1CADB25D45A9D305B0BDE8F08F4FF0C5
:102DF0000008F5E7F4680008C04C000834510008EA
:102E0000245700082DE9FE4F9946DDE90D67144669
:102E10008A460546DDF830800CE0CDF800804B4650
:102E200051462846CDE90167FFF766FF05EB5600DE
:102E300085B2641C2278002AEFD1BDE8FE8F10B560
:102E40000446000A00F01AF8E0B2BDE8104000F0B5
:102E500015B8000070B5084C054600220221204636
:102E6000FEF730FB284600F009F82046BDE8704028
:102E700001220221FEF726BB000801402DE9F041A6
:102E8000DFF8548005464FF48077002239464046EB
:102E9000FEF718FB114E0024002220213046FEF7D9
:102EA00011FB280601D5012200E0002280213046D6
:102EB000FEF708FB012220213046FEF703FB6806DF
:102EC000641C050EE4B2082CE6D339464046BDE842
:102ED000F0410122FEF7F6BA000C01400008014063
:102EE00070B505004FF0000401D0002607E0002077
:102EF00070BD00BF00F008F8761C0444B6B2AE42C4
:102F0000F8D3B4FBF5F070BD0EB508200090012099
:102F100001900420029069460848FDF7E3FD074848
:102F2000FDF7CCFF0A210548FDF72AFF08B1002074
:102F30000EBDBDE80E400148FDF752BE0401002061
:102F4000704700003EB5002411480094019402949B
:102F50000E498460016004730475012505614FF416
:102F600060214460C161FDF73FFE08B1FDF74BFDF4
:102F70000620CDE90005694602940548FDF7B2FD3B
:102F8000002801D0FDF73FFD3EBD000000240140B8
:102F900004010020094808B5416941F0010141617F
:102FA0004069002200F00100009011460C20FEF75D
:102FB000FBFABDE808400C20FEF7E8BA001002401A
:102FC0002DE9F04385B000252B4800950195029529
:102FD0000395816941F020018161816901F020013F
:102FE0000491816941F004018161816901F004016A
:102FF0000491816941F0080181618069DFF87C807A
:1030000000F0080004900122B3214046FEF75AFA6E
:10301000DFF86C904FF49857012239464846FEF786
:1030200051FAB320012403268DE871006946404619
:10303000FEF758F9CDE9004669464846FEF752F9D1
:1030400001AA009782E8700069464846FEF74AF9EF
:10305000C02000900B48CDE9010469464846FEF7C0
:1030600041F9002211461720FEF79EFA1720FEF7BD
:103070008DFA05B0BDE8F083001002400008014061
:10308000000C01400000211010B592B000240F94F4
:103090001C2108A81094FDF7BDF920216846FDF712
:1030A000B9F920481E49C0E900145921C0E902417C
:1030B00080210461C0E90541FEF7E0FF08B1FDF79A
:1030C000A2FC0F940FA917481094FEF711FE08B147
:1030D000FDF799FC6020CDE908040A940B940C9448
:1030E0000D94002208A90F480E94FEF761FF08B165
:1030F000FDF789FC00944FF40050CDE904400294A0
:1031000001940394694607480794FEF7C7FD08B188
:10311000FDF779FC0348FEF725FF12B010BD000053
:10312000002C0140340100200C4810B50A49016010
:103130004FF416514160002181600C22C160C0E94A
:1031400004128161C161FFF753F9002803D0BDE883
:103150001040FDF758BC10BD00440040C0010020E5
:103160000C4810B50A4901604FF416514160002126
:1031700081600C22C160C0E904128161C161FFF766
:1031800037F9002803D0BDE81040FDF73CBC10BD66
:103190000048004008020020FEE770B50025044604
:1031A0000570FEF795F9C4E90105E560256170BD7C
:1031B00010B50446007801281DD0A0680844A0601E
:1031C000E068401CE060FEF783F96168401A41F254
:1031D0008831884202D2E06832280DD3D4E9020156
:1031E000B0FBF1F000EB400080000A21B0FBF1F0F1
:1031F00020610120207010BD002010BD70B5002599
:1032000006462C4605E000BF00F008F8641C0544A3
:10321000A4B2B442F8D3B5FBF6F070BD0EB50020F1
:103220000290062000900120019069460848FDF7B1
:1032300059FC0748FDF742FE0A210548FDF7A0FDAD
:1032400008B100200EBD0248FDF7CAFC0EBD00000B
:10325000040100200148FDF7D9BB00000401002053
:103260002DE9F04F91B0FEF733F9D94C0746606A6B
:10327000381A1E287DD304206762FFF7BFFF064679
:10328000607A002558B9D348FFF787FF01206072A4
:103290005F2370222D210F200095FFF70CFCDFF833
:1032A00034A39AF8000058B1E06AC0EB80108000A7
:1032B00000EB8600000AE06286427CD9361AFAE00A
:1032C0003146C448FFF774FFA06AA046381A4FF091
:1032D0001009B0F5FA7F59D3C8F82870DAF80C1045
:1032E0000026504611B18268B2FBF1F6DAF804000C
:1032F00041F288313F1A64207843B0FBF1F0C4B248
:10330000642C00D96424CDE900594FF6FF73B2A2B2
:103310002D210A200295FFF775FD4FF47A70B7FB57
:10332000F0F100FB11724FF0640BB2FBFBF3B7FB43
:10333000F0F2ADA106A8FCF751FFCDE9005947F620
:10334000FF7306AA41210A200295FFF75BFD324672
:10335000A9A106A8FCF742FFCDE900594FF6E0739A
:1033600006AA55210A200295FFF74CFD622044432E
:1033700000E08EE0B4FBFBF0C2B24FF4FC600090C2
:103380006E2369210F200F32FFF795FB9AF800009A
:10339000544601287DD10020FFF71EFB1F26002187
:1033A00014237F2208460096FFF785FBCDE90069CC
:1033B0004F46029500E07DE04FF6FF76334692A23D
:1033C00002211020FFF71EFDCDE900574FF4FC63EA
:1033D00091A21E210A200295FFF714FDD4E90201F3
:1033E000B0FBF1F291A106A8FCF7F8FECDE9005779
:1033F000334606AA32210A200295FFF703FD8FA16A
:1034000006A82269FCF7EAFECDE90057731006AA68
:1034100046210A200295FFF7F5FC48F230465F236B
:10342000722219460E200096FFF7ECFA69237222E9
:1034300019460E200096FFF7E5FA0E2269235F2158
:1034400010460096FFF7DEFA722269235F211046CC
:103450000096FFF7D7FA73237F22194600200096C3
:10346000FFF7D0FA0C20CDE90050334677A2762141
:1034700019200295FFF7C6FC40F2DC50FDF7FEFE76
:103480006823712260210F200095FFF714FB40464E
:1034900000E00CE088F80D50D4E90212B1FBF2F123
:1034A000C0E90B150121C8E90D5188F80E5011B083
:1034B000BDE8F08F861B606B08B9701C606307461F
:1034C00001F003FA4FF06632644B01F011FA00226A
:1034D000634B01F025F901F0CBF9864206D8C7EB22
:1034E0008711890001EB8601090A6163216B01EBF9
:1034F0004101890101EB8611090A2163814201D949
:10350000081A00E00020A16BC1EB8111C1F39711F3
:10351000A163884200D9A063A16B082901D20821C8
:10352000A163C0EB0020B0FBF1F0C6B21820B6FBDF
:10353000F0F0A18AFF2708444FF4C061801CB0FB63
:10354000F1F201FB1200F5217143B1FBF7F1A0820A
:103550000A31227AC9B211444A08227203AB04A983
:10356000CDE9001305ABE179FFF759F89DF80C3070
:103570009DF810209DF814100C2001F003F8622033
:103580004643B6FBF7F0C6B2622E00D96226207819
:1035900005288CD1607B864218D00BD947F6FF7185
:1035A00000914FF0680306F10E024FF0600100F148
:1035B0000F0008E000F10E024FF068034FF06001C9
:1035C00006F10F000095FFF776FA6673A5736EE7B4
:1035D00000000020C800002043616C6962726174C1
:1035E000696E672E2E2E000054696D653A20256C99
:1035F000752E256C75730000414443204176673A6F
:1036000020256C75000000004D5553494320524859
:103610005954484D0000000043616C696272617446
:10362000696F6E20446F6E65210000004E6F6973F4
:1036300065204176673A20256C75000054687265F4
:1036400073686F6C643A20256C7500004B31202F35
:10365000204B323A204578697400000066660640C7
:1036600000002040FEE77047704700002DE9F04F52
:103670008BB0FDF72DFF644D296D411AC8297DD30C
:1036800028650A20FFF7BAFD696D0446884200D913
:103690006C65A86D4FF0000A844202D1686DA042AB
:1036A0006DD1224659A103A8AC65FCF797FD102700
:1036B000CDE900A756464FF6FF7303AA1E210A2044
:1036C000CDF808A0FFF79EFB53A103A86A6DFCF795
:1036D00085FD4FF6E078CDE90067434603AA322125
:1036E0000A200296FFF78EFB4FF4FC6947F6FF7B3A
:1036F000B4F5FA7F02D24BA24B4618E040F2DC5000
:10370000844202D24BA25B4611E040F6C4108442D0
:1037100002D24CA243460AE040F6AC50844203D2A7
:103720004CA24FF61F0302E04EA24FF47843B2467C
:10373000CDE9006746210A200296FFF763FB64206B
:10374000604340F6FF71B0FBF1F0C6B2642E00D9C1
:10375000642648F230475A23732219460D200097F9
:10376000FFF750F96423732219460D200097FFF7E5
:1037700049F90D2264235A21104601E041E02FE06F
:103780000097FFF73FF9732264235A2110460097F0
:10379000FFF738F9DEB1B4F57A7F01D248460CE084
:1037A000B4F5FA6F01D2584607E040F6B8308442CB
:1037B00001D2404601E04FF478400090632306F1C7
:1037C0000E025B210E20FFF776F9642E08D26323E8
:1037D00072225B2106F10E00CDF800A0FFF76BF915
:1037E000A87C00280DD10C21CDE900A148F230437E
:1037F00021A26E210A20CDF808A0FFF703FB0120CB
:10380000A8740BB0BDE8F08F000000204144433A9B
:1038100020256C75202020004D61783A20256C759C
:10382000202020004C6576656C3A205175696574DE
:10383000202000004C6576656C3A204C6F77202084
:10384000202000004C6576656C3A204D65646975F2
:103850006D2000004C6576656C3A204869676820E9
:10386000202000004C6576656C3A20566572792000
:1038700048696768000000004B312F4B323A204204
:1038800061636B0010B5FDF729FEBDE81040FDF740
:103890007FB830B593B028216846FCF7BBFD1421F2
:1038A0000AA8FCF7B7FD002501200F95109511958A
:1038B000010412958DE8230004904FF4E010CDE947
:1038C0000810022407946846FEF744F808B172B65F
:1038D000FEE70AA90F2081E831004FF48060CDE9AE
:1038E0000D0502210AA8FDF759FF08B172B6FEE7DF
:1038F0004FF4004011900F940FA8FDF7D9FE002857
:1039000001D072B6FEE713B030BD7047F0B5026863
:10391000194B1A4C1A4D4FF08047984205D0B842C7
:1039200003D0A04201D0A84203D122F070064A6819
:103930003243984205D0B84203D0A04201D0A842F9
:1039400003D122F44074CA6822434C6922F08002F9
:10395000224302608A68C2620A688262984201D188
:1039600009690163012141610169C90703D0016946
:1039700021F001010161F0BD002C01400004004074
:103980000008004010B501F00F030421046A9940BB
:103990008C430462016A9A401143016210BD10B564
:1039A000446A616A814201D101200DE0A16A81422D
:1039B00001D1022008E0E16A814201D1042003E044
:1039C000216B814201D1082020772046FEF7C8FBF9
:1039D0000020207710BD10B5446A0121626A82423E
:1039E00005D121778069A8B984F8421012E0A26A53
:1039F000824206D102222277806958B984F84310A6
:103A000008E0E26A824205D104222277806908B97F
:103A100084F844102046FEF78FFB0020207710BD6D
:103A200010B5446A0121626A824203D1217784F889
:103A300042100EE0A26A824204D10220207784F86C
:103A4000431006E0E26A824203D10420207784F822
:103A500044102046FEF784FA0020207710BD0000B5
:103A600030B5036A026A22F0010202624268846988
:103A700024F073050C682C4323F002058B682B435C
:103A80000A4DA8420BD123F00805CB6822F44072FE
:103A90002B434D6923F0040315438A692A4342608E
:103AA000846149684163036230BD0000002C01401D
:103AB00030B5026A036A23F0100303624368846925
:103AC0000D6824F4E64444EA05248D6822F02002BF
:103AD00042EA05120B4DA8420ED1CD6822F08002B9
:103AE00042EA05124D6923F4406343EA85038D6978
:103AF00022F0400243EA85034360846149688163A0
:103B0000026230BD002C014030B5036A026A22F423
:103B1000807202624268C46923F4007324F0730562
:103B20000C682C438D6843EA05230C4DA8420ED146
:103B3000CD6823F4006343EA05234D6922F4405223
:103B400042EA05128D6923F4806342EA051242605D
:103B5000C4614968C163036230BD0000002C0140AC
:103B600030B5046A026A22F4805202624268C36974
:103B70000D6823F4E64343EA05238D6824F40054DA
:103B800044EA0534064DA84204D14D6922F480422E
:103B900042EA85124260C36149680164046230BD33
:103BA000002C014010B5406A0021C185C184FEF798
:103BB000D9FA10BD01680C3151E8002F22F490723F
:103BC00041E80023002BF5D10168143151E8002FA2
:103BD00022F0010241E80023002BF5D1016B0129FD
:103BE00009D101680C3151E8002F22F0100241E8A0
:103BF0000023002BF5D1202180F842100021016321
:103C0000704708B590F84210222901D0022008BD63
:103C100082684FF480539A4201D1016921B1816ACF
:103C20009A421BD04AB10AE00268816A5268C2F324
:103C300008020A80816A891C08E0026972B1026880
:103C4000526802F07F020A70816A491C8162C18D4C
:103C5000491E0904090CC18503D01BE002685268A3
:103C6000F1E70168CA6822F02002CA600168CA68E8
:103C700022F48072CA6001684A6922F001024A6136
:103C8000202180F8421000214163026B012A03D0F9
:103C9000FEF7A0FC002008BD016301680C3151E86B
:103CA000002F22F0100241E80023002BF5D101681B
:103CB0000A68D20602D50A6849680091818DFEF72C
:103CC00050FAE7E770B5044600680169E26821F43C
:103CD0004051114301612169A068084361690843AB
:103CE0002168CA6841F20C639A430243CA602068A3
:103CF0004169A26921F44071114341611E49206864
:103D0000884202D1FDF7F0FD01E0FDF7DDFD00EB9B
:103D1000C00101EB0012606864218000B2FBF0F387
:103D2000B3FBF1F36FF018067343B2FBF0F5B2FB8F
:103D3000F0F605EB8305322303EB0515B5FBF1F532
:103D4000B6FBF1F605F0F00505EB0615B2FBF0F653
:103D5000B2FBF0F0B0FBF1F06FF01802504306EB4D
:103D6000800003EB0010B0FBF1F0216800F00F00C1
:103D70002844886070BD000000380140816282855F
:103D8000C28500214164222180F84210016921B1DD
:103D90000168CA6842F48072CA6001684A6942F0E8
:103DA00001024A610068C16841F02001C160002041
:103DB00070472DE9F843984617460D460446089E7D
:103DC00024E0701C22D0FDF783FBA0EB0800B0427A
:103DD0001AD8CEB12068C168490717D5802D15D0F3
:103DE000402D13D00168C94309070FD4016800258D
:103DF000406800902046FFF7DDFE0820606484F8EC
:103E000040500120BDE8F8830320FBE720680068EC
:103E100035EA000004D00020B842D2D00020F1E7FB
:103E20000120F9E72DE9F04F8BB00020FEF7D4FD1B
:103E30001F27002114237F2208460097FEF73BFE30
:103E4000DFF89C9399F800101020002448F23045C8
:103E50004FF00C0847F6FF764FF6FF7308297DD226
:103E6000DFE801F0044AFC94E7FBFAF9CDE90070C1
:103E70008346824602941F46DAA202212020FEF7E2
:103E8000C1FFCDE9004A029499F80500CA4600280E
:103E90002ED03B46D6A224210820FEF7B3FFCDE961
:103EA000004B02949AF80500D946012822D03B46DF
:103EB000D3A23A210820FEF7A5FFCDE900490294DC
:103EC0009AF80500022800D03E463346D0A2502181
:103ED0000820FEF797FF69237F22194600200095EE
:103EE000FEF790FDCDE900482B46CCA2029446E0B7
:103EF0003346CFE73346DBE782460097CDE901A49E
:103F00009B46CBA202211820FEF77CFF99F8030004
:103F10004F46012836D0022836D0C8A2C9A103A82E
:103F2000FCF75CF9CDE9004AD9465B4603AA322189
:103F300014200294FEF766FF50236C2219461420C9
:103F4000CDF80090FEF75EFDF878532300EB4001BA
:103F5000C1EB40101430C2B24D2100E03CE114200E
:103F60000096FEF7A8FD69237F22194600200095E0
:103F7000FEF748FDCDE900482B46B5A202946E211C
:103F80000A2027E1B7A2C9E7B8A2C7E7CDE90070C8
:103F9000824602941F46B7A202211C20FEF732FF80
:103FA000CDE9004A029499F8060000283BD03B4630
:103FB000B3A21C210A20FEF725FFCDE9004A029496
:103FC00099F80600012830D03B46B1A230210A20E2
:103FD000FEF718FFCDE9004A029499F8060002287E
:103FE00025D03B46AEA244210A20FEF70BFFCDE9C7
:103FF000004A029499F80600032800D03E46334652
:10400000ABA258210A20FEF7FDFE6C237F22194641
:1040100000200095FEF7F6FCCDE900482B467FA274
:1040200070210294ACE73346C2E73346CDE733460E
:10403000D8E782460097CDE901A49B469EA20221C3
:104040001820FEF7DFFE4F4699F804209DA103A833
:10405000FCF7C4F803E07AE031E029E07DE0CDE947
:10406000004A5B4603AA32211E200294FEF7CAFED4
:104070005B4839795C3000EBC10095A1426803A828
:10408000FCF7ACF8CDE9004A334603AA50211420CE
:104090000294FEF7B7FE69237F221946002000959F
:1040A000FEF7B0FCCDE900482B468CA2029466E7EF
:1040B0000097CDE9010402218DA210208AE08146FB
:1040C0000097CDE901949A468DA202210A20FEF7BD
:1040D00099FECDE90048474633468DA219210A20B2
:1040E0000294FEF78FFECDE9004953468DA22821A8
:1040F0000A200294FEF786FE5023722219460E20F3
:104100000095FEF77FFC5A23722219460E20009577
:10411000FEF778FC0E225A23502110460095FEF738
:1041200071FC72225A23502110460095FEF76AFC5A
:1041300069237F22194600200095FEF763FCCDE934
:1041400000476E212B467AA21920029442E0009784
:10415000CDE901047AA2022112E70097CDE901041A
:1041600099467BA202210C20FEF74CFECDE90048C7
:1041700047464B4679A21E2106200294FEF742FED6
:10418000CDE9004733467AA22E2106200294FEF79D
:1041900039FECDE90047334679A244210620029436
:1041A000FEF730FECDE900470D4A4B4694324421DC
:1041B0002A200294FEF726FE69237F22194600205A
:1041C0000095FEF71FFCCDE900472B466EA26E213D
:1041D0000C200294FEF716FE0BB0BDE8F08F000035
:1041E000000000204D41494E204D454E5500000035
:1041F000312E204272696768746E65737300000027
:10420000322E20566F696365204374726C00000083
:10421000332E20457874656E646564004B313A53E3
:10422000656C20204B323A456E74657200000000C8
:104230004252494748544E45535300004252494761
:10424000485400004C6576656C3A202573000000E8
:104250004B313A4379636C6520204B323A4578699B
:10426000740000004441524B000000004D45444999
:10427000554D0000455854454E444544000000004B
:10428000312E20436F6C6F72204D6F64650000000B
:10429000322E204D75736963204D6F6465000000F8
:1042A000332E204175746F20427269676874000074
:1042B000342E204578697400434F4C4F52204D4FA7
:1042C00044450000496E6465783A2025640000008A
:1042D000436F6C6F723A2025730000004B313A4EE9
:1042E00065787420204B323A4261636B0000000015
:1042F0004D555349432052485954484D0000000041
:104300004155544F204252494748544E455353005B
:104310004175746F2064696D206279206C696768EB
:10432000740000004C696768743A202D2D2D2D0013
:104330004B31202F204B323A204578697400000021
:10434000534F554E4420444554454354000000000B
:10435000564F494345204D4F4445000042542044A8
:1043600069676974204374726C204F6E000000000E
:10437000436D643A312E2E3520303A4261636B0032
:104380004C6173743A0000004B312F4B323A20429B
:1043900061636B000148FDF7F5BE000008020020D4
:1043A000FEE7000020B1002210210248FDF78AB884
:1043B0000122F9E7000801402DE9F041FDF788F8F6
:1043C00005461D4F00261D4C16E0A07A0D2813D07F
:1043D0000A280AD0A0F1310104290DD8E17A272951
:1043E00009D27854491CE17206E0E07A20B13E54CB
:1043F000114800F027F8E6721049002301220A3123
:104400000F48FEF781F80028DFD0206A854201D2EC
:10441000012009E0E069281AB0F5967F0AD3E5612A
:10442000207B28B100202073BDE8F041FFF7BABF20
:104430000120F8E7BDE8F081DC000020000000204A
:10444000C00100203EB5044630A1FCF70BF800285F
:104450003FD02FA12046FCF705F8002841D02DA120
:104460002046FBF7FFFF002840D02BA12046FBF79A
:10447000F9FF002842D029A12046FBF7F3FF0028CE
:1044800026D1FF231A461946402000F07BF824A1CC
:104490002548FBF779FFFDF71BF8234900F5FA6083
:1044A000943908620120FFF77DFF002450237F220A
:1044B00044212A200094FEF7FEFA0C20CDE90040AA
:1044C0004FF6FF73184A44212A200294FEF79AFC03
:1044D0003EBDFF231A461946402000F053F813A1B1
:1044E000D6E7402000F032F812A1D1E700231A46A7
:1044F000FF21402000F046F810A1C9E70022FF2369
:104500001146402000F03EF80EA1C1E73100000046
:1045100032000000330000003400000035000000CD
:10452000353A77686974650094000020313A6F70FD
:10453000656E0000323A636C6F736500333A7265E2
:1045400064000000343A626C7565000070B5054681
:10455000002407E000231A461946204600F02AF8F6
:10456000641CA4B2AC42F5D32846BDE8704000F00C
:104570004FB8000040F664410148FBF729BF000036
:10458000500200202DE9F0411E4617468846054698
:10459000002407E033463A464146204600F00AF838
:1045A000641CA4B2AC42F5D32846BDE8F04100F04B
:1045B0002FB80000F0B5402827D2144D00244FF04A
:1045C000800E00EB400700BF2EFA04F0104202D02C
:1045D0004FF03A0C01E04FF0190C04EBC70608420B
:1045E00025F816C002D04FF03A0C01E04FF0190C3C
:1045F00005EB46061842A6F810C001D03A2000E0AC
:104600001920641C3084082CDEDBF0BD5002002031
:1046100070B5402801D9402001E000281DD00F4C82
:104620002178002919D10E4A0D4600EB400000BF49
:1046300001EBC003491C22F813503229F8DB012199
:104640002170322101EBC00083B2054A00210548E8
:10465000FDF782FB002800D0257070BDB40000205B
:1046600050020020340100200907090E002804DB55
:1046700000F1E02080F80014704700F00F0000F116
:10468000E02080F8141D7047FCF730FFFFF701F9B8
:10469000FEF796FCFEF77EFCFEF7F6FCFEF744FD07
:1046A000FEF75EFDFEF74EFCFEF724FA0020FEF753
:1046B00093F9FFF75FFFFEF7CDFDFCF759F9FEF721
:1046C0003FFCFCF711F90020FFF76CFEFFF7AAFB97
:1046D000124C00BFFCF724F9FDF7ECFFFEF794F84D
:1046E000FCF756F92078052809D02078062809D04B
:1046F0002078072809D02078022809D00AE0FEF7A0
:10470000AFFD07E0FCF722F804E0FEF7AFFF01E0A1
:10471000FFF752FE0A20FCF7B1FDDBE700000020A6
:1047200010B591EA030F48BF83F0004300F1E68122
:10473000841A71EB030C05D2121943EB0C03001B16
:1047400061EB0C01DFF824E14FEA1154A4EB135C98
:104750001EEA430F18BF9EEA445F73D023EA0E039C
:10476000DCF1200E21EA045143F4801332D322FA03
:104770000CFE10EB0E0023FA0CFE41EB0E01CCF107
:10478000200E03FA0EFE10EB0E0051F10001B1F500
:10479000801FCCF1200E32D201EB045112FA0EF23E
:1047A000BDE8104058BF7047401C38BF5FEA420266
:1047B00018BF7047002814BF20F0010041F100012C
:1047C0004FEA410313F5001F38BF7047A1F1C04104
:1047D00000F086B9012A43EB0302ACF1200CDCF1B6
:1047E0001F0E32BF4FF0000E23FA0CF310EB030044
:1047F00041EB0451B4EB115FD0D0A1EB045101F5B2
:10480000801149085FEA300001EB04510ED350F1EA
:10481000000038BF12FA0EFE08D1BDE81040C9E70B
:10482000401C38BF5FEA4202CAD1C3E7BDE810406E
:104830004FEA410313F5001F38BF7047A1F1C04193
:1048400000F04EB99EEA445F08D011EA5E0FBDE861
:10485000104004BF01F0004100207047BDE8104047
:1048600070B500F0EFF800BF64FBBE3E0000E0FF53
:104870004FEA1153A3F58063D3F11E03A8BFD3F110
:10488000200C08DB4FF0004242EAC12252EA5052AB
:1048900032FA03F0704709420BD4102BC4BF00203A
:1048A000704703F5787CBCF1FF3F05D04FF0FF3037
:1048B00070474FF00000704770B500F0C3F800BFBC
:1048C0004992248000207047F0E7B0FA80F310FA94
:1048D00003F10AD0C3F11D0303F580634FEA415091
:1048E0004FEA035202EBD12170474FF000007047AE
:1048F000DFF848C170B51CEA111E1EBF1CEA131573
:104900009EEA0C0F95EA0C0F00F06F8081EA030419
:1049100023EA4C134EEAD47E21EA4C1141F4801173
:1049200043F48013AE44A1FB024CA0FB0365AEF13F
:104930007F7E361955EB0C05A1FB034C4CF10003AF
:10494000A0FB021C16EB0C06654153F10003094263
:1049500018BF46F0010613F4007F0BD14FEA033174
:104960004FEA0530340341EA155140EA16506FF022
:1049700003020AE04FEAC3214FEAC520F40241EAEC
:10498000555140EA56506FF0020202EB2E4201EB05
:10499000025585EACE710AD05FEA440C18BF24F0B4
:1049A000004450F1000041F1000120EAD47040F2CF
:1049B000FE7C624500D270BDA84214BF4FF0804417
:1049C0004FF04044002E08BF0024BEF1806FA8BF06
:1049D000A1F1C041BDE8704080F282804FF000003C
:1049E00001F1C04101F0004170479EEA0C0F0CEA52
:1049F000131518BF95EA0C0F06D04FF0000081EA9E
:104A0000030E0EF0004170BD00F01CF88900013E5D
:104A100000F007B800F009B84FEA430C5FEA5C5CAD
:104A200008D081EA030100F05BB84FEA410C5FEA6D
:104A30005C5CF6D14FF00000014970470000FF07B1
:104A40000000F87F0EF1020E2EF0030E5EF8046BEC
:104A5000364205D4012A43EB030515F5001F12D891
:104A6000012841EB010C1CF5001F0CD80ED14FEAB8
:104A7000D17C15F5001F0CEB4C0C0CF1020C08BF9F
:104A80004CEBD37C04E04FF0080C01E04FEAD37C00
:104A90000CEB4C0526FA05F606F00706B6F1040CF9
:104AA00006D20EEB860CBDE870404CF0010C60475E
:104AB000DFE80CF0090B02024FF000414FF000005C
:104AC000A1F5002170BD19461046012851EB0104E3
:104AD00018BFD4F5001484BF002001F0004170BD60
:104AE0000808A0F500114FEA3101704710B591EAAE
:104AF000030F48BF83F000433FF51AAE841A71EBF1
:104B0000030C07D212198CF0004C43EB0C03001B72
:104B100061EB0C01DFF8A4E14FEA1154A4EB135C44
:104B20001EEA430F18BF9EEA445F00F0B08023EAFC
:104B30006E03524221EA0451C3EB6E0338BF5B1E81
:104B4000DCF1200E25D322FA0CFE10EB0E0043FA06
:104B50000CFE41EB0E01CCF1200E03FA0EFE10EB21
:104B60000E0051F10001CCF1200E29D412FA0EF200
:104B700001EB0451BDE8104058BF7047401C1CBFFA
:104B8000B2F1004F704700280CBF491C20F0010013
:104B9000704712EB020E43EB030218BF4FF0010EF9
:104BA0004EEA4202ACF1200CDCF11E0E54D943FA5D
:104BB0000CFE10EB0E0051F1FF31CCF11E0ED5D5DD
:104BC0000EF1010E12FA0EFE404141EB010101EB24
:104BD000445C5FEA5C5C10D910EBDE7001EB0451C1
:104BE00038BFBEF1004FBDE8104018BF7047002825
:104BF0000CBF491C20F00100704730D24FEAD42C82
:104C000011F5001124F400641BD0B1FA81F20B3AC3
:104C1000A41AA41ED2F12003914030FA03F31943E1
:104C2000904001EBCC71002C01EB0451BDE8104029
:104C3000A8BF704701F1C0414FF0000001F00041F2
:104C40007047B0FA80F310FA03F100D110BDE41AF6
:104C5000173C4805C90AE4E701EB045110BD4910AF
:104C600001EB0451BDE810404FEA300002E04FF084
:104C7000000170474A0008BF0042F8D0B2F5001F9B
:104C800028BF704701F000414FF0000070479EEAD6
:104C9000445F07D011EA5E0FBDE8104004BF002159
:104CA00000207047BDE8104070B5FFF7CBFE00BF95
:104CB00040DFF63E83F00041104670470000E0FF01
:104CC00000000000000000000000000000000404DC
:104CD000040404000004000014140A000000000092
:104CE0000000000000000A0A1F0A0A1F0A0A00004A
:104CF00000040E1505060C14150E04000000121514
:104D00000D152E2C2A1200000000040A0A36151573
:104D1000291600000202010000000000000000004F
:104D2000100808040404040408081000020404081D
:104D3000080808080404020000000004150E0E15FF
:104D40000400000000000008083E08080000000001
:104D5000000000000000000002020100000000004E
:104D6000003F000000000000000000000000000004
:104D700000020000002010100808040402020100D4
:104D800000000E1111111111110E00000000040697
:104D900004040404040E000000000E1111080402B3
:104DA000011F000000000E11100C1010110E000069
:104DB0000000080C0C0A091F081C000000001F015D
:104DC000010F1110110E000000000C12010D131143
:104DD000110E000000001E10080804040404000066
:104DE00000000E11110E1111110E000000000E1125
:104DF0001119161009060000000000000400000050
:104E00000004000000000000000400000004040092
:104E10000000100804020204081000000000000056
:104E20003F003F00000000000000020408101008CE
:104E30000402000000000E11110804040004000028
:104E400000001C22292D2D1D221C0000000004043E
:104E50000C0A0A1E1233000000000F12120E12126A
:104E6000120F000000001E1101010101110E0000CF
:104E700000000F1212121212120F000000001F1277
:104E80000A0E0A02121F000000001F120A0E0A0278
:104E90000207000000001C1201013911120C000071
:104EA00000003312121E12121233000000001F0401
:104EB00004040404041F000000003E080808080859
:104EC00008080907000037120A060A121237000004
:104ED0000000070202020202223F000000003B1B0A
:104EE0001B1B15151535000000003B1216161A1A6B
:104EF0001217000000000E1111111111110E000007
:104F000000000F12120E02020207000000000E1134
:104F100011111117190E180000000F12120E0A12AB
:104F20001237000000001E1101060810110F0000CA
:104F300000001F1504040404040E000000003312D6
:104F400012121212120C000000003312120A0A0C84
:104F5000040400000000151515150E0A0A0A0000C9
:104F600000001B0A0A04040A0A1B000000001B0AB6
:104F70000A0A0404040E000000001F0908040402C9
:104F8000121F00001C0404040404040404041C0094
:104F90000002020404040808081010000E080808A3
:104FA0000808080808080E00040A000000000000B5
:104FB0000000000000000000000000000000003FB2
:104FC00002040000000000000000000000000000DB
:104FD000000C121C123C000000030202020E12120E
:104FE000120E000000000000001C1202120C000053
:104FF00000181010101C1212123C000000000000DB
:10500000000C121E021C000000182404041E0404DC
:10501000041E000000000000003C120C021C221CB8
:1050200000030202020E12121237000000040400F4
:1050300000060404040E000000080800000C080824
:105040000808080700030202021A0A060A130000F1
:105050000007040404040404041F0000000000000E
:10506000000F15151515000000000000000F1212AA
:105070001237000000000000000C1212120C000099
:1050800000000000000F1212120E020700000000C4
:10509000001C1212121C103800000000001B060237
:1050A0000207000000000000001E020C101E00009D
:1050B00000000004041E0404041C000000000000A2
:1050C000001B1212123C000000000000001B0A0A24
:1050D00004040000000000000015150E0A0A00007C
:1050E00000000000001B0A040A1B00000000000072
:1050F000003312120C08040300000000001E080414
:10510000041E000018080808080C08080808180001
:10511000080808080808080808080808060404041D
:10512000040804040404060016090000000000003E
:10513000000000000000000000000000000000006F
:105140000000000000000008080808080808000027
:105150001818000000486C24120000000000000035
:10516000000000000000002424247F1212127F128D
:10517000121200000000081C2A2A0A0C1828282AEB
:105180002A1C080800000022251515152A58545419
:10519000542200000000000C1212120A7625291178
:1051A000916E0000000606040300000000000000ED
:1051B000000000000040201010080808080808102F
:1051C00010204000000204080810101010101008F1
:1051D000080402000000000008086B1C1C6B080893
:1051E0000000000000000000080808087F08080808
:1051F00008000000000000000000000000000000A7
:10520000060604030000000000000000FE0000008D
:10521000000000000000000000000000000000008E
:1052200006060000000080404020201010080804FE
:10523000040202000000001824424242424242425C
:1052400024180000000000080E08080808080808D4
:10525000083E00000000003C4242422020100804AA
:10526000427E00000000003C4242201820404042A4
:10527000221C0000000000203028242422227E204E
:10528000207800000000007E0202021A2640404200
:10529000221C0000000000382402021A264242426A
:1052A000241800000000007E2222101008080808C0
:1052B000080800000000003C4242422418244242F8
:1052C000423C000000000018244242426458404022
:1052D000241C00000000000000001818000000005E
:1052E0001818000000000000000000080000000086
:1052F0000008080400000040201008040204081000
:10530000204000000000000000007F0000007F003F
:1053100000000000000000020408102040201008D7
:10532000040200000000003C4242464020101000F1
:10533000181800000000001C225A555555552D42E2
:10534000221C00000000000808181414243C22420B
:1053500042E700000000001F2222221E2242424299
:10536000221F00000000007C4242010101010142B5
:10537000221C00000000001F2242424242424242E0
:10538000221F00000000003F4212121E12120242B1
:10539000423F00000000003F4212121E12120202A1
:1053A000020700000000003C2222010101712122BD
:1053B000221C0000000000E7424242427E4242427C
:1053C00042E700000000003E080808080808080836
:1053D000083E00000000007C10101010101010108B
:1053E0001010110F0000007722120A0E0A1212226A
:1053F00022770000000000070202020202020202FD
:10540000427F000000000077363636362A2A2A2AE4
:105410002A6B0000000000E346464A4A525252629C
:10542000624700000000001C2241414141414141CE
:10543000221C00000000003F424242423E020202A3
:10544000020700000000001C2241414141414D5330
:10545000321C60000000003F4242423E12122222F3
:1054600042C700000000007C424202041820404273
:10547000423E00000000007F4908080808080808AC
:10548000081C0000000000E7424242424242424201
:10549000423C0000000000E7424222242414141879
:1054A000080800000000006B49494949555536225B
:1054B00022220000000000E74224241818182424A7
:1054C00042E70000000000772222141408080808B0
:1054D000081C00000000007E212010100804044277
:1054E000423F000000780808080808080808080873
:1054F00008087800000002020404080808101020C0
:1055000020204040001E101010101010101010101D
:1055100010101E00003844000000000000000000D1
:10552000000000000000000000000000000000007B
:10553000000000FF0006080000000000000000005E
:1055400000000000000000000000003C42784442DF
:1055500042FC0000000000030202021A26424242FE
:10556000261A000000000000000000384402020279
:10557000443800000000006040404078444242420D
:1055800064D80000000000000000003C427E0202DF
:10559000423C0000000000F08808087E0808080867
:1055A000083E0000000000000000007C22221C02D7
:1055B0003C42423C000000030202023A46424242A0
:1055C00042E700000000000C0C00000E080808086C
:1055D000083E00000000003030000038202020206D
:1055E0002020221E0000000302020272120A16127C
:1055F000227700000000000E0808080808080808C4
:10560000083E0000000000000000007F929292928D
:1056100092B70000000000000000003B46424242FA
:1056200042E70000000000000000003C424242420D
:10563000423C0000000000000000001B26424242E5
:10564000221E02070000000000000078444242428F
:10565000447840E000000000000000774C0404049F
:10566000041F0000000000000000007C42023C40DB
:10567000423E0000000000000008083E080808083C
:105680000830000000000000000000634242424277
:1056900062DC000000000000000000E74224241447
:1056A0000808000000000000000000EB49495555C3
:1056B00022220000000000000000007624181818C4
:1056C000246E000000000000000000E742242414C3
:1056D00018080807000000000000007E22100808DB
:1056E000447E000000C02020202020102020202008
:1056F0002020C000101010101010101010101010EA
:1057000010101010000608080808081008080808FB
:10571000080806000C32C200000000000000000073
:105720000000000000000000000000000000000079
:105730000000000000000000000000000000000069
:105740000000000000000000000000000000000059
:105750000000000000000000000000006000600089
:1057600060006000600060006000400020002000D9
:1057700020000000000000006000600060000000E9
:105780000000000000000000600660063003980181
:10579000880044000000000000000000000000003D
:1057A00000000000000000000000000000000000F9
:1057B00000000000000000000000000010021002C5
:1057C00010021002FE07FE07080208010801080186
:1057D0000801FE07FE0704010401040104010000A2
:1057E0000000000000000000000040004000F00148
:1057F00058034C03CC034C0058007000E000C0017B
:10580000C00140034C035C034C034801F00040001E
:105810004000000000000000000000000E010A012E
:10582000910091009100510051003A00AE03A00296
:1058300050045004480448044804840284030000CF
:1058400000000000000000000000000038006C00B4
:105850006C006C006C006C002C0098071C011A0195
:10586000330133016301E300C308C6093C070000AC
:1058700000000000000000000C001C0010001000E0
:10588000080004000000000000000000000000000C
:105890000000000000000000000000000000000008
:1058A0000000000000000000000400020001800071
:1058B0008000400040002000200020002000200048
:1058C0002000200040004000800080000001000215
:1058D00000040000000000000200040008001000A6
:1058E0001000200020004000400040004000400028
:1058F00040004000200020001000100008000400BC
:105900000200000000000000000000000000000095
:105910004000C0004000460C4E0FD001F0015E0F69
:10592000460C400040004000000000000000000065
:105930000000000000000000000000000000000067
:10594000000040004000400040004000FE0F4000CA
:105950004000400040004000000000000000000047
:105960000000000000000000000000000000000037
:105970000000000000000000000000000000000027
:1059800000000000000000000C001C0010001000CF
:1059900008000400000000000000000000000000FB
:1059A000000000000000000000000000FE070000F2
:1059B00000000000000000000000000000000000E7
:1059C00000000000000000000000000000000000D7
:1059D00000000000000000000000000000000000C7
:1059E00000000000000000001C001C001C00000063
:1059F0000000000000000000000400060002000398
:105A00000001000180008000400040006000200094
:105A1000200010001000080008000C000400060020
:105A20000200000000000000000000000000F00084
:105A300098010C030C030606060606060606060673
:105A40000606060606060C030C039801F00000008B
:105A50000000000000000000000000000000400006
:105A60007C0060006000600060006000600060001A
:105A7000600060006000600060006000FC030000E7
:105A80000000000000000000000000000000F8001E
:105A90008401020306030603000300018001C00025
:105AA000600020001000080204020602FE0300004D
:105AB000000000000000000000000000000078006E
:105AC000C6008601860180018001C000700080014F
:105AD000000100030003060306038601F80000002E
