:020000040800F2
:10000000781400209D010008D12D000899210008D6
:100010007B29000821070008FD37000800000000C8
:10002000000000000000000000000000D52D0008C6
:100030009707000800000000D32D0008F12F0008EA
:10004000B7010008B7010008B7010008B7010008B0
:10005000B7010008B7010008B7010008B7010008A0
:10006000B7010008B7010008B7010008B701000890
:1000700061070008B7010008B7010008B7010008D0
:10008000B7010008B7010008B7010008B701000870
:10009000B7010008B7010008B70100089907000878
:1000A000B7010008B7010008B7010008B701000850
:1000B000B7010008B7010008B7010008B701000840
:1000C000B7010008B7010008B7010008B701000830
:1000D000B7010008B7010008B7010008B701000820
:1000E000B7010008B7010008B701000800F002F8E6
:1000F00000F045F80AA090E8000C82448344AAF17D
:100100000107DA4501D100F03AF8AFF2090EBAE87A
:100110000F0013F0010F18BFFB1A43F0010318473B
:10012000486F0000686F0000103A24BF78C878C19B
:10013000FAD8520724BF30C830C144BF04680C60ED
:10014000704700000023002400250026103A28BF35
:1001500078C1FBD8520728BF30C148BF0B60704739
:10016000642900F07980752900F07680732900F009
:100170001282002070471FB51FBD10B510BD00F0E2
:100180000EFA1146FFF7F7FF03F0CAFB00F02CFA56
:1001900003B4FFF7F2FF03BC00F034FA09488047CC
:1001A00009480047FEE7FEE7FEE7FEE7FEE7FEE759
:1001B000FEE7FEE7FEE7FEE704480549054A064B71
:1001C000704700006D300008ED000008780E002038
:1001D0007814002078100020781000200FB41CB58F
:1001E000074B06AA7B4469460090059800F0A9F9E0
:1001F0000020694600F0B8F91CBC5DF814FB000053
:100200008103000070B50C460546012A05D0287808
:10021000800600D5EA69002302E0012305E05B1CAB
:10022000934202D2E05C0028F9D1A869E618C01A0E
:10023000A861286A184428622846AFF3008004E0C9
:10024000D5E9012114F8010B9047B442F8D32846B0
:10025000AFF3008070BD00002DE9F0410646002498
:1002600010687529314616A510D0AFF3008000281C
:1002700002DA404213A507E031688A0701D512A5CA
:1002800002E0490704D511A5012401E0AFF3008085
:1002900000210A2206F1240709E0B0FBF2FCB0FBC2
:1002A000F2F302FB1C00303078541846491C002839
:1002B000F3D123462A463046BDE8F04100F0E2B8CB
:1002C000000000002D0000002B00000020000000B6
:1002D0002DE9F0410F460546002028622846E968CE
:1002E000884770B3252805D0D5E901219047286AB1
:1002F000401CF2E7E9682846002688476C28044637
:100300000AD0682C08D04C2C35D06A2C31D0742CF3
:1003100031D07A2C2FD016E0E96806462846884767
:10032000B042044608D16C2E23D04FF48066284694
:10033000E9688847044606E06C2E03D04FF48076C7
:1003400001E01EE04026E4B1A4F14100192802D8E2
:10035000203446F400663A46214628462E60FFF7D0
:10036000FFFE60B1012808D0FF1D27F007070837FE
:10037000B4E78026DBE70026D9E73F1DAEE720463D
:10038000B2E7286ABDE8F08110B5203AC0F00B80D2
:10039000B1E81850203AA0E81850B1E81850A0E889
:1003A0001850BFF4F5AF5FEA027C24BFB1E81850E3
:1003B000A0E8185044BF18C918C0BDE810405FEA53
:1003C000827C24BF51F8043B40F8043B08BF7047CF
:1003D000D20728BF31F8023B48BF11F8012B28BFD4
:1003E00020F8023B48BF00F8012B70474FF0000295
:1003F0000429C0F0128010F0030C00F01B80CCF137
:10040000040CBCF1020F18BF00F8012BA8BF20F8A4
:10041000022BA1EB0C0100F00DB85FEAC17C24BFF8
:1004200000F8012B00F8012B48BF00F8012B7047A2
:100430004FF0000200B5134694469646203922BF7D
:10044000A0E80C50A0E80C50B1F12001BFF4F7AFC8
:10045000090728BFA0E80C5048BF0CC05DF804EBAA
:10046000890028BF40F8042B08BF704748BF20F818
:10047000022B11F0804F18BF00F8012B7047704716
:10048000704770472DE9F0470D469946924604465D
:1004900000F124080168880604D5E06921F0100104
:1004A000216000E00120A84201DD471B00E0002799
:1004B000A1697A1902EB0900081AA0612078C00628
:1004C00002D42046AFF30080002608E0D4E90121E1
:1004D0001AF806009047206A401C761C20624E45A0
:1004E000F4DB2078C0060AD52046AFF3008006E092
:1004F000D4E9012130209047206A401C2062381E38
:10050000A7F10107F4DC07E0D4E9012118F80500A0
:100510009047206A401C2062281EA5F10105F3DCEB
:100520002046AFF300802078000602D50220BDE807
:10053000F0870120FBE7000001694A1C026108788E
:10054000704700B58FB0CDE9013100210591054913
:100550007944CDE9031011466846FFF7B9FE0FB0A4
:1005600000BD0000E5FFFFFF0A6802F8010B0A600A
:10057000704710B5436913B1AFF3008001E0FFF796
:1005800041FE012010BD127800F124010A70002202
:100590004A700122EDE711684FF0FF32E9E7754636
:1005A00000F02CF8AE4605006946534620F00700DF
:1005B000854618B020B5FFF7FFFDBDE820404FF09D
:1005C00000064FF000074FF000084FF0000B21F03D
:1005D0000701AC46ACE8C009ACE8C009ACE8C0090A
:1005E000ACE8C0098D46704710B50446AFF30080F3
:1005F0002046BDE81040FFF7CBBD00000048704723
:10060000180E002001491820ABBEFEE726000200AC
:100610007047000070B5044600688168C943C90787
:1006200017D1816821F00101816000F0F1FD0546DC
:100630000AE000BF00F0ECFD401B022804D920684E
:100640008068C043C00706D020688068C043C007E8
:10065000F0D0002070BDA06A40F01000A062E06AF7
:1006600040F00100E062012070BD0000F8B50026F6
:100670000446009600688168C943C9072DD0816887
:1006800041F001018160164816490068B0FBF1F0A5
:1006900000E0401E00900028FBD100F0B9FD0546A7
:1006A00016E000BF00F0B4FD401B022810D92068FE
:1006B0008068C043C0070BD0A06A40F01000A06261
:1006C000E06A40F00100E06284F824600120F8BD97
:1006D00020688068C043C007E4D10020F8BD000056
:1006E0005000002040420F0010B500F091FD0B4972
:1006F000CA69821AB2F5FA7F0FD3C86101F0F4FF1C
:1007000018B1FF231A46194602E01E231A4619465D
:10071000BDE81040402003F08DB810BD000000205F
:10072000FEE7000070B5094D4FF4805400222146C9
:10073000284600F068FD322000F03CFC21462846A7
:10074000BDE87040012200F05EBD0000000C0140D9
:1007500001221103014800F056BD0000000C0140C9
:10076000014800F017BB0000E000002030B590F811
:1007700040500124AC40C56B6C6004686360436802
:10078000102B036803D099600068C26030BD9A6086
:100790000068C16030BD704710B5402000F032FCE9
:1007A000BDE81040802000F02DBC72B6FEE70000CE
:1007B000F8B500250446009590F8240001280BD0D8
:1007C000012084F824002046FFF724FF2046FFF78D
:1007D0004DFF060002D050E00220F8BDA06A20F4D0
:1007E000885040F00200A062022000F0AFFD2549D1
:1007F0000968B1FBF0F0400000E0401E00900028C6
:10080000FBD12068816841F00801816000F000FDA3
:10081000074608E000F0FCFCC01B0A2803D920684A
:100820008068000715D4206880680007F2D420682B
:10083000816841F00401816000F0EAFC074612E0A3
:1008400000F0E6FCC01B0A280DD92068806840072C
:1008500009D5A06A20F0020040F01000A06284F8E0
:1008600024500120F8BD206880684007E8D4A06AC1
:1008700020F0020040F00100A06284F824503046CD
:10088000F8BD000050000020F8B50024009490F856
:1008900024202546012A12D0012280F824204A680B
:1008A0001F23072A0DD20668776B521E02EB8202C5
:1008B00093409F430B6893401F43776319E00220E6
:1008C000F8BD06680D2A0AD2376BD21F02EB8202EE
:1008D00093409F430B6893401F43376309E0F76AD7
:1008E0000D3A02EB820293409F430B6893401F43F3
:1008F000F7620A68072306680A2A0AD3F7680A3AE1
:1009000002EB420293409F438B6893401F43F76082
:1009100008E0376902EB420293409F438B689340A3
:100920001F4337610A68102A01D0112A20D1124BC7
:1009300002689A4217D193681B0219D4936843F452
:10094000000393600968102912D10C490C4A096808
:10095000B1FBF2F101EB8101490000E0491E009179
:100960000029FBD104E0816A41F020018162012469
:1009700080F824502046F8BD00240140500000209B
:1009800040420F000068C06C704700002DE9F04144
:100990004FF0000704003D467ED0A06A002628B92B
:1009A000E66284F82460204600F07EF82046FFF7D7
:1009B00031FEA16AC90600D420B1A06A40F010003F
:1009C000A06269E0A16A21F4885141F00201A162AC
:1009D0006268E169237B0A4347EA43010A43A1684D
:1009E0004FF48077B94209D0012907D05FF00001A8
:1009F00094F814C0BCF1010F02D00AE03946F7E7C1
:100A0000F3B1A36A43F02003A362E36A43F0010356
:100A1000E3622368D3F804C02CF4694C4CEA010C5F
:100A2000C3F804C021688B68DFF870C003EA0C03C8
:100A300013438B60A168B9420BD0012909D00CE0A7
:100A4000DFF85CC0A3690CEB43330B4343F4006154
:100A5000DFE7218A0D05A5F580152168CB6A23F40F
:100A600070032B43CB62216889680E4B1940914279
:100A700008D1E662A16A21F0020141F00101A16200
:100A8000BDE8F081A06A20F0020040F01000A062F2
:100A9000E06A40F00100E0620120F1E7FDF7E1FFCC
:100AA00000E0FFFFFE0E1FFF00B585B000210091A2
:100AB00001910291039100680E49884218D10E48B5
:100AC000816941F400718161816901F400710491CF
:100AD000816941F0040181618069694600F0040088
:100AE00004904020009003200190044800F096FA02
:100AF00005B000BD00240140001002400008014084
:100B00002DE9F84300270D460446009700F080FBCE
:100B1000804620688168C90508D5A06A40F0200099
:100B2000A06284F824700120BDE8F8834168C905FB
:100B300003D4C06A10F4700F2AD0022000F006FC23
:100B40003B490968B1FBF0F62068036939490B425B
:100B50004FEA61014FEAA1121FD1C3684FEA611C3D
:100B600013EA0C0F19D103690B4225D1C06810425A
:100B700022D1142023E0681C0AD02DB100F048FBDC
:100B8000A0EB0800A84203D920680068800725D59B
:100B9000206800688007EED52DE003690B4202D182
:100BA000C168114206D0026923490A4206D1C068D1
:100BB000084203D1542002E0292000E0FC204643F3
:100BC000009816E0681C11D02DB100F021FBA0EBBD
:100BD0000800A8420AD90098B04207D2A06A40F0A3
:100BE0000400A06284F8247003209DE70098401C54
:100BF0000090B042E6D321686FF012000860A06A4E
:100C000040F40070A06220688068C0F3424007286A
:100C10000CD1207B50B9A06A20F48070A062A06A39
:100C2000C00403D4A06A40F00100A06200207BE76A
:100C300050000020244992244992240070B50446B3
:100C400090F8240001280DD0012084F824002046CB
:100C5000FFF70CFD02004FF0000005D084F82400DF
:100C6000104670BD022070BDA16A40F20123994375
:100C700041F48071A1621F4D23681F49AB4218D116
:100C80000E6816F4702F14D0A66A46F48016A66279
:100C90000E68760505D5A66A26F4005646F48056F9
:100CA000A662A66AF6040AD5E66A26F00606E66299
:100CB00006E0A66A26F48016A6625E68E9E7E062AE
:100CC00084F824006FF00200186020688368C3F382
:100CD0004243072B05D1A84208D1096811F4702FAF
:100CE00004D0816841F480118160B9E7816841F4E2
:100CF000A001F9E7002801400424014010B590F854
:100D000021100024022903D00421816301243DE045
:100D100001680A6822F00E020A6001680A6822F07F
:100D200001020A601A4A0168914201D1012121E0C1
:100D3000174A1432914201D110211BE0144A283283
:100D4000914201D1891515E0114A3C32914201D1FD
:100D500089140FE00E4A5032914202D14FF4803193
:100D600008E00B4A6432914202D14FF4801101E055
:100D70004FF08071064A083A5160012180F8211035
:100D8000002180F82010416B01B18847204610BD3A
:100D9000080002402DE9F05FC16B0C6801680B6828
:100DA000D0F840C0042202FA0CF2494DDFF824A129
:100DB000494E4A4FDFF828B1DFF828E122422CD013
:100DC0005A072AD50A68920603D40A6822F0040258
:100DD0000A600168A94201D1042219E0514501D1FC
:100DE000402215E0B14202D14FF4806210E0B942D6
:100DF00002D14FF480420BE0594502D14FF48022DA
:100E000006E0714502D14FF4800201E04FF08062AC
:100E10002F4908394A60C16A3BE04FF0020808FADE
:100E20000CF818EA040F4FF000094FF0010235D01A
:100E30005FEA837832D50B689B0605D40B6823F0F4
:100E40000A030B6080F821200168A94201D1022227
:100E500019E0514501D1202215E0B14202D14FF4F1
:100E6000007210E0B94202D14FF400520BE0594534
:100E700002D14FF4003206E0714502D14FF4001266
:100E800001E04FF00072124908394A6080F8209062
:100E9000816A00291AD0BDE8F05F0847082505FAE5
:100EA0000CF5254212D01B0710D50B6823F00E035A
:100EB0000B6090F84010C36B02FA01F15960826335
:100EC00080F8212080F82090016BE2E7BDE8F09FD8
:100ED000080002401C000240300002404400024072
:100EE000580002406C00024030B528B308C81349CE
:100EF00014221944B1FBF2F18900C16310498163E6
:100F0000022141771A6843F6F0718A43D0E9001450
:100F10002143D0E902452C4321430469214344691C
:100F20002143846921431143196000214163012257
:100F300042770177084630BD012030BDF8FFFDBF84
:100F40000000024070B5044690F8200000250128FA
:100F50000CD0012084F8200094F821600020012E9C
:100F600006D084F820000225284670BD022070BDFE
:100F7000022684F82160A0632068066826F0010636
:100F800006602046FFF7F2FBE06A0028206801684F
:100F900002D041F00E0106E021F00401016020685A
:100FA000016841F00A0101602068016841F0010117
:100FB0000160D9E770B5044600F02AF90546601CC7
:100FC00002D004480078044400F022F9401BA042FB
:100FD000FAD370BD4400002010B5044600F018F9A3
:100FE00007490A69821AC82A06D30122402C04D074
:100FF000802C01D18A70086110BD4A70FBE70000A7
:1010000000000020044910B50A68024202D00860BE
:10101000FFF7E2FF10BD0000140401402DE9F84F76
:10102000DFF8B8910024A9F1040B23460F2709F13A
:10103000040AABF1040EC9E00125A5402A40AA42EA
:101040007DD1674ED1F804C0ACEB0608B44532D070
:1010500014DCBCF1030F3AD009DCBCF1000F2AD03C
:10106000BCF1010F1CD0BCF1020F31D11DE0BCF16D
:10107000110F17D0BCF1120F2AD119E0B8F5881F53
:1010800019D006DCB8F5803F15D0B8F5801F1FD108
:1010900011E0B8F5001F0ED0B8F5041F18D10AE012
:1010A000CB6815E0CB681B1D12E0CB6808330FE05E
:1010B000CB680C330CE08B682BB1012B4FF008038D
:1010C00003D0456104E0042302E0056100E0002351
:1010D000FF2A01D8064601E000F104064FEA840524
:1010E00001D9A5F12005D6F8008007FA05FC28EA09
:1010F0000C0803FA05F548EA0508C6F800804D68B3
:10110000ED0062D5374DAE6946F00106AE61AD69BE
:1011100024F0030605F001050095334D06EB050CA0
:10112000DCF80850A607360F07FA06F825EA080586
:10113000DFF8B880404503D14FF0000817E044E0E5
:10114000DFF8AC80404502D14FF001080FE0DFF836
:10115000A480404502D14FF0020808E0DFF89880F3
:10116000404502D14FF0030801E04FF0040808FAAF
:1011700006F848EA0508CCF808804D68D9F8006000
:10118000ED024D4601D5164300E096432E604D68B2
:10119000DAF80060AD02554601D5164300E09643EB
:1011A0002E604D68DBF80060AD035D4601D5164347
:1011B00000E096432E604D68DEF80060ED03754652
:1011C00001D5164300E096432E60641C0D682A4644
:1011D000E5407FF431AFBDE8F88F0000080401401E
:1011E0000000111000100240000001400008014002
:1011F000000C0140001001400014014080680840CC
:1012000000D0012070470AB1016170470904FBE773
:10121000014880687047000044000020024881684F
:10122000027811448160704744000020074810B5DF
:10123000016841F010010160032000F075F80F20F3
:1012400000F006F800F024F8002010BD0020024055
:1012500070B50D4D04464FF47A712878B1FBF0F06B
:101260000A490968B1FBF0F000F0A4FB48B9102C62
:1012700007D200222146501E00F036F800206C6094
:1012800070BD012070BD000044000020500000200F
:101290000C4808B5816941F001018161816901F063
:1012A00001010091C16941F08051C161C06900F044
:1012B000805000900448416821F0E06141F00071E5
:1012C000416008BD0010024000000140002809DB19
:1012D00000F01F02012191404009800000F1E02050
:1012E000C0F8001170470000F0B40E4B1B680C46AC
:1012F000C3F30223C3F10705042D00D90425191DEA
:10130000072901D2002300E0DB1E012606FA05F1C1
:10131000491E214099409E40761E16403143F0BC44
:1013200002F0EEBA0CED00E0064900F00702086892
:101330004FF6FF03184040EA0220034A10430860BA
:10134000704700000CED00E00000FA0510B5014602
:101350000020234C012922D0022939D010291DD187
:1013600061682268D20119D51E48C1F38342C903BE
:10137000805C0AD561681B4AC1F34041921E515CF2
:10138000194AB2FBF1F1484301E01849484361684A
:10139000490203D440000321B0FBF1F010BD226AE2
:1013A000C2F30121012903D1920701D5C80310BD61
:1013B000022905D1626A920702D549F6404010BD64
:1013C0000329FCD121688903F9D54FF2244010BDCF
:1013D00000F02AF96168C1F38131491C4900DBE75B
:1013E000001002400C70000800127A0000093D0055
:1013F0002DE9F84305460078354CC00754D0E06924
:101400000026C00008D4E06940F08050E061E06947
:10141000012600F0805000902E480168C90512D4C2
:101420000168804641F480710160FFF7F1FE0746D4
:1014300005E000BFFFF7ECFEC01B642823D8D8F8F6
:101440000000C005F6D5206A10F4407021D0A988AC
:1014500001F4407181421CD0206A1F49012220F40E
:1014600040700A6000220A602062C00711D0FFF7B6
:10147000CFFE074641F2883808E000BFFFF7C8FEFC
:10148000C11B414502D90320BDE8F883206A8007CB
:10149000F4D5206A696820F44070084320621EB1C8
:1014A000E06920F08050E0612878800705D5606809
:1014B000A96820F44040084360602878C00605D53C
:1014C0006068E96820F48000084360600020DBE782
:1014D0000010024000700040400442422DE9F047F5
:1014E0000F46050061D0434E306800F00700B84257
:1014F00009D2306820F0070038433060306800F0CF
:101500000700B84251D128683B4C810712D54007EB
:1015100003D5606840F4E06060602878000703D578
:10152000606840F4605060606068A96820F0F00076
:10153000084360602878C00728D06868012810D068
:101540002168022810D0890700292EDA616821F06D
:10155000030101436160FFF75BFE804641F2883979
:101560000DE021688903EFE78901EDE7FFF750FE01
:10157000A0EB0801494502D90320BDE8F087606867
:10158000696800F00C00B0EB810FEFD1306800F01B
:101590000700B8420BD9306820F0070038433060AC
:1015A000306800F00700B84201D00120E5E7287854
:1015B000400705D56068E96820F4E0600843606092
:1015C0002878000706D56068296920F4605040EA51
:1015D000C100606000F038F86168084AC1F3031187
:1015E000515CC8400649086006480068FFF730FEB5
:1015F0000020C2E700200240001002401C700008DA
:10160000500000204800002004480549006849684F
:10161000044AC1F30221515CC840704750000020C9
:10162000001002402C700008044805490068496811
:10163000044AC1F3C221515CC840704750000020E9
:10164000001002402C7000080E4A51680E4801F04C
:101650000C03042B11D0082B0FD10C48C1F383438A
:10166000C903C05C0AD55168084AC1F34041921EC3
:10167000515C054A5043B0FBF1F0704704494843C0
:10168000704700000010024000127A00FA6F000854
:1016900000093D002DE9F84F040070D02078C04DBE
:1016A000C00749D06868C0F38100012807D0686886
:1016B000C0F38100022809D16868C00306D52868F4
:1016C000800339D560680028E7D035E06068B0F560
:1016D000803F0BD010B1B0F5A02F11D0286820F4B6
:1016E00080302860286820F4802002E0286840F4D8
:1016F00080302860606890B1FFF78AFD06460AE0F6
:10170000286840F480202860F0E700BFFFF780FDE4
:10171000801B642873D828688003F7D50CE0FFF796
:1017200077FD064605E000BFFFF772FD801B6428C9
:10173000F0D828688003F7D420789A4E80074FF0BD
:1017400001094FF0000839D5686810F00C0F07D078
:101750006868C0F38100022809D16868C00306D414
:101760002868800714D52069012808D110E0206975
:10177000B0B1C6F80090FFF74BFD074605E00AE15F
:10178000FFF746FDC01B0228C4D828688007F7D59C
:101790002868616920F0F80040EAC10028600DE087
:1017A000C6F80080FFF734FD074604E0FFF730FD80
:1017B000C01B022823D828688007F7D420780007A8
:1017C0002CD57948A169D9B1C0F80090FFF720FD68
:1017D000074604E0FFF71CFDC01B02280FD8686A0B
:1017E0008007F7D571484FF4FA510068B0FBF1F06B
:1017F000009000BF0098411E0091FAD20EE080E0F8
:10180000C0F80080FFF704FD074604E0FFF700FD85
:10181000C01B022875D8686A8007F7D42078400773
:1018200060D5E8690027C00008D4E86940F080501E
:10183000E861E869012700F0805000905C48016889
:10184000C90513D40168834641F480710160FFF734
:10185000DFFC824606E000BFFFF7DAFCA0EB0A00DF
:1018600064284ED8DBF80000C005F5D5E0680128F3
:101870000AD008B1052813D0286A20F00100286298
:10188000286A20F0040002E0286A40F00100286283
:10189000E06841F2883B98B1FFF7BAFC82460BE062
:1018A000286A40F004002862EEE700BFFFF7B0FCB2
:1018B000A0EB0A0159455AD8286A8007F6D50CE0F2
:1018C000FFF7A6FC824605E0FFF7A2FCA0EB0A01A9
:1018D00059454CD8286A8007F6D41FB1E86920F032
:1018E0008050E861E06988B36968C1F38101022929
:1018F00044D00228C6F8608004D0FFF789FC044673
:1019000038E034E0FFF784FC074604E0FFF780FC92
:10191000C01B02282BD828688001F7D4206AB0F5B4
:10192000803F05D16868A16820F4003008436860F2
:10193000D4E908010843696821F474110843686018
:10194000C6F86090FFF764FC044606E025E000BF9F
:10195000FFF75EFC001B022809D828688001F7D534
:101960001BE000BFFFF754FC001B022802D9032034
:10197000BDE8F88F28688001F4D40EE00128F7D084
:101980006868226A00F48031914204D1616A00F4EF
:101990007010884201D00120EAE70020E8E700004B
:1019A00000100240000042428004424250000020E9
:1019B0000070004010B5401EB0F1807F01D30120BF
:1019C00010BD4FF0E02460610F21601701F098FF17
:1019D0000020A06107202061002010BD10B590F804
:1019E0003C20012A22D0012280F83C20CA688C6861
:1019F00022F4407222434C6822F4806222430C6835
:101A000022F4006222430C6922F4805222434C6982
:101A100022F400522243C969002322F480420A437F
:101A200001684A6480F83C30002010BD022010BDDF
:101A300070B590F83C20012A26D0012480F83C4063
:101A4000022280F83D2003685A689D6822F07006E3
:101A50000A6832435A600D4B02689A4208D0B2F1CC
:101A6000804F05D00A4B9A4202D00A4B9A4204D1C9
:101A7000496825F080031943916080F83D400021BA
:101A800080F83C10084670BD022070BD002C01405B
:101A900000040040000800402DE9F04117460D0009
:101AA00004464FF000060CD0042D11D0082D16D09E
:101AB00094F84500022819D094F84500012818D060
:101AC0005AE094F84200022810D094F84200F5E75A
:101AD00094F84300022809D094F84300EEE794F804
:101AE0004400022802D094F84400E7E70220BDE851
:101AF000F08187B37BB33A493A4ADFF8ECC0022061
:101B00003DB1042D16D0082D26D084F845000126BD
:101B100063E084F84200606A8162606A3946C262AA
:101B2000606AC0F830C02268606A3432FFF70AFA8F
:101B300088B923E084F84300A06A8162A06A39462C
:101B4000C262A06AC0F830C02268A06A3832FFF7CB
:101B5000F9F900B917E00FE084F84400E06A816207
:101B6000E06A3946C262E06AC0F830C02268E06AC2
:101B70003C32FFF7E7F958B10120B8E72068C168A7
:101B800041F4007108E02068C16841F4806103E01D
:101B90002068C16841F40061C160042229462068C0
:101BA00001F0A2FA2068416C41F4004141640F4900
:101BB0002068884208D0B0F1804F05D00C49884297
:101BC00002D00C49884204D1816801F0070106293E
:101BD00003D0016841F001010160304687E7000051
:101BE0003B3100080331000885310008002C01401A
:101BF000000400400008004070B50D0004464FF09E
:101C0000000605D0042D0AD0082D0FD001263CE097
:101C10002068C16821F40071C160606A0CE020682E
:101C2000C16821F48061C160A06A05E02068C168D4
:101C300021F40061C160E06AFFF760F800222946E4
:101C4000206801F051FA2068036A41F211110B4239
:101C500040F2444206D1036A134203D1436C23F499
:101C6000004343642068036A0B4206D1016A1142B3
:101C700003D1016821F00101016001203DB1042D73
:101C800008D0082D09D084F84500304670BD84F88E
:101C90004200FAE784F84300F7E784F84400F4E7E9
:101CA0007047000000B585B00021009101910291BC
:101CB000039100680B49884212D10B48816941F0B9
:101CC000080181618069694600F0080004904FF4C2
:101CD000005000900220019003900448FFF79EF905
:101CE00005B000BD002C014000100240000C014076
:101CF00070B5044690F83C0000260D4601280FD030
:101D0000012084F83C006AB1042A1DD0082A2FD093
:101D10000C2A3FD00126002084F83C00304670BDDC
:101D2000022070BD206801F04DFA2068816941F001
:101D3000080181612068816921F0040181612068C6
:101D400081692A69114311E0206801F063FA206873
:101D5000816941F4006181612068816921F48061B9
:101D60008161206881692A6941EA02218161D2E7A3
:101D7000206801F07BFA2068C16941F00801C16167
:101D80002068C16921F00401C1612068C1692A6924
:101D9000114311E0206801F095FA2068C16941F40F
:101DA0000061C1612068C16921F48061C16120685E
:101DB000C1692A6941EA0221C161ACE710B504009A
:101DC00003D094F83D0010B107E0012010BD0020C1
:101DD00084F83C00204600F01FF8022084F83D0003
:101DE000211D206801F044F9012084F8460084F8A0
:101DF0003E0084F83F0084F8400084F8410084F8F5
:101E0000420084F8430084F8440084F8450084F8D4
:101E10003D00002010BD000038B50546006813499C
:101E2000884221D11248816941F400618161806951
:101E3000114C00F4006000900E482060102060609B
:101E40000020A0608020E060400020618000606190
:101E50002020A0610002E0612046FFF745F808B1AC
:101E6000FEF7A3FC6C62656238BD0000002C0140E7
:101E7000001002401C000240E000002000680449FD
:101E8000884203D100210348FFF7B6BE7047000027
:101E9000002C014098000020704770B5040004D069
:101EA00094F84100002510B106E0012070BD84F8CF
:101EB0004050204600F024F8242084F84100206897
:101EC000C16821F40051C160204601F01DFA20686C
:101ED000016921F4904101612068416921F02A01E2
:101EE00041612068C16841F40051C16065642020EF
:101EF00084F8410084F842006563002070BD000052
:101F000030B585B000240094019402940394244DCC
:101F10000368244802210322AB421AD1C36943F467
:101F20000033C361C36903F400330493836943F04E
:101F30000403836180691C4D00F0040004900420B8
:101F4000CDE90001039269462846FFF767F80820AB
:101F50001CE0164DAB4220D1C36943F48023C3611A
:101F6000C36903F480230493836943F00803836106
:101F70008069039200F0080004902815CDE9000163
:101F80000B4D69462846FFF749F8E814CDE90004EF
:101F9000694628460294FFF741F805B030BD0000BD
:101FA000004400400010024000080140004800408A
:101FB000000C01402DE9F0434FEA102CC0B200EBB9
:101FC0004000470001FB07F64FF4C069C1F1FF0074
:101FD000A7F2FF577F427943B6FBF9F691FBF9F17F
:101FE000C6F1FF06C1F1FF0156435143CF17DDE9AA
:101FF000075450434FEAE678000A06EB186601EBF7
:102000001761C6F30726C1F30721BCF1050F17D2EC
:10201000DFE80CF003060B0F12001A70297001E0C4
:102020001E702A702070BDE8F08318702A7021702D
:10203000F9E718702E7001E0197028702270F2E72D
:102040001A7028702670EEE72DE9F041514C607847
:10205000022604F12C07002510B36570FEF762FB21
:1020600020780121072841D2DFE800F004061F256F
:10207000373A3A00217037E0E078032802D2401C5A
:10208000E07000E0E17001F09BF9E078012808D0F1
:10209000022808D0FF210B461A46402001F0CAFB57
:1020A00024E01E21F7E77821F5E76079401C00F075
:1020B0000300607118E020790721401CB0FBF1F2A9
:1020C00001FB1200207100EB4001C819795C837894
:1020D0004278402001F0AEFB06E02572A581E57153
:1020E0002670402001F08BFB01F06AF9A0780028EF
:1020F0004DD0A570FEF716FB20780321072846D2A5
:10210000DFE800F00406203C413C3C00267021E062
:10211000E078012802D9401EE07000E0E17001F093
:102120004FF9E078012809D0022809D0FF21BDE845
:10213000F0410B461A46402001F07CBB1E21F6E719
:102140007821F4E7607948B1012813D0022813D030
:1021500006202070BDE8F04101F032B921702079ED
:1021600000EB4000C1198B784A78395C402001F0BF
:1021700061FBEFE70420ECE70520EAE7267040204A
:1021800001F03DFBE6E72572A581E571F6E7BDE8C4
:10219000F081000000000020FEE72DE9F041074635
:1021A0001C4615460E462A2000F056FABF1CB8B24F
:1021B00000F047FAAD1CA8B200F043FA2B2000F063
:1021C0004BFA761CB0B200F03CFA641CA0B200F0EE
:1021D00038FABDE8F0412C2000F03EBA70B5064652
:1021E0007F2300211A460846FFF7D7FF0024002569
:1021F000304600F026FA6D1CADB2802DF8D3641C79
:10220000A4B2802CF3D370BD2DE9FE4F161ACDE990
:1022100000104FF000085D1A47464FF0FF30002EC7
:1022200002DD4FF0010102E003D14FF000018B46C7
:1022300002E08346C6F10006002D02DD4FF00100EA
:1022400002E003D14FF00000824602E08246C5F171
:102250000005AE4201DD344600E02C46601C4FF024
:102260000009029019E000980C9A81B2019880B29E
:1022700000F018F8B0442F44A04504DD0198A8EB05
:10228000040858440190A74203DD00983F1B5044C6
:10229000009009F101001FFA80F902998945E2DBFB
:1022A000BDE8FE8F10B514460B460246FFF775FFDA
:1022B0002046BDE8104000F0C4B92DE9F047804643
:1022C0001F46581E83B21646501E82B20C46404628
:1022D000DDF82090FFF761FF0AE0454604E048463C
:1022E00000F0AFF96D1CADB2B542F8D3641CA4B2D6
:1022F000BC42F2D3BDE8F08710B57E4C002201212C
:102300002046FEF780FF6420FEF754FE01221146AE
:102310002046FEF778FF6420FEF74CFE01225102B2
:102320007548FEF770FF7820FEF744FE112000F09C
:1023300093F97820FEF73EFEB12000F08DF90520DC
:1023400000F09EF93C2000F09BF93C2000F098F949
:10235000B22000F081F9052000F092F93C2000F055
:102360008FF93C2000F08CF9B32000F075F90520BE
:1023700000F086F93C2000F083F93C2000F080F961
:10238000052000F07DF93C2000F07AF93C2000F0B7
:1023900077F9B42000F060F9032000F071F9C02053
:1023A00000F05AF9282000F06BF9082000F068F9D5
:1023B000042000F065F9C12000F04EF9C02000F0C3
:1023C0005FF9C22000F048F90D2000F059F9002013
:1023D00000F056F9C32000F03FF98D2000F050F9CD
:1023E0002A2000F04DF9C42000F036F98D2000F0CD
:1023F00047F9EE2000F044F9C52000F02DF91A202D
:1024000000F03EF9362000F027F9002000F038F9FE
:10241000E02000F021F9042000F032F9222000F041
:102420002FF9072000F02CF90A2000F029F92E20BE
:1024300000F026F9302000F023F9252000F020F9E3
:102440002A2000F01DF9282000F01AF9262000F0BB
:1024500017F92E2000F014F93A2000F011F90020AD
:1024600000F00EF9012000F00BF9032000F008F94C
:10247000132000F005F9E12000F0EEF8042000F050
:10248000FFF8162000F0FCF8062000F0F9F80D2007
:1024900000F0F6F82D2000F0F3F8262000F0F0F818
:1024A000232000F0EDF8272000F0EAF8272000F0C4
:1024B000E7F8252000F0E4F82D2000F0E1F83B20BB
:1024C00000F0DEF8002000F0DBF8012000F0D8F882
:1024D000042000F0D5F8132000F0D2F83A2000F0E4
:1024E000BBF8052000F0CCF8BDE81040292000F032
:1024F000B3B8000000080140000C01402DE9FF4F77
:1025000081B00446DDF83C9000904FEA59074FF047
:102510000008780700D0012000EBD70000FB09FB82
:10252000203AD0B20390029802994844401E83B2E8
:10253000E019401E82B22046FFF72FFE002553E02F
:10254000B9F10C0F2AD0B9F1100F2ED0B9F1180F34
:102550002ED0B9F1200F49D12749039801EB801003
:10256000002610F805A0109800284FF0010000FA8E
:1025700006F000EA0A0022D020B12046049A02990F
:10258000FFF790FE641C0098A4B2201AB84225D12F
:102590000298009C401C80B2029023E003981749E7
:1025A00000EB400001EB8000DAE71549039803E0F7
:1025B0000398144900EB400001EB0010D0E708B18C
:1025C000049800E00E9800F03CF808F10100C0B259
:1025D000B0FBF7F1804607FB118050B1761CF6B2D4
:1025E000082EC0D36D1CADB25D45A9D305B0BDE8C2
:1025F000F08F4FF00008F5E7E4550008B039000807
:10260000243E0008144400082DE9FE4F9946DDE9F8
:102610000D6714468A460546DDF830800CE0CDF89B
:1026200000804B4651462846CDE90167FFF766FF1B
:1026300005EB560085B2641C2278002AEFD1BDE874
:10264000FE8F10B50446000A00F01AF8E0B2BDE8AB
:10265000104000F015B8000070B5084C0546002287
:1026600002212046FEF7CFFD284600F009F820465B
:10267000BDE8704001220221FEF7C5BD00080140FF
:102680002DE9F041DFF8548005464FF480770022B1
:1026900039464046FEF7B7FD114E002400222021A6
:1026A0003046FEF7B0FD280601D5012200E00022E9
:1026B00080213046FEF7A7FD012220213046FEF79B
:1026C000A2FD6806641C050EE4B2082CE6D3394668
:1026D0004046BDE8F0410122FEF795BD000C0140E7
:1026E000000801407047000010B501210348FEF7C3
:1026F00085FD08B1002010BD012010BD000C014077
:102700003EB5002411480094019402940E4984605F
:10271000016004730475012505614FF46021446074
:10272000C161FEF733F908B1FEF73FF80620CDE9A5
:102730000005694602940548FEF7A6F8002801D076
:10274000FEF733F83EBD0000002401406800002081
:10275000094808B5416941F0010141614069002221
:1027600000F00100009011460C20FEF7BDFDBDE811
:1027700008400C20FEF7AABD001002402DE9F043EE
:1027800085B000252C480095019502950395816937
:1027900041F020018161816901F02001049181698A
:1027A00041F004018161816901F0040104918169B2
:1027B00041F0080181618069DFF8808000F0080045
:1027C00004900122B3214046FEF71DFDDFF8709012
:1027D0004FF49857012239464846FEF714FDB320BE
:1027E000012403268DE8710069464046FEF716FC79
:1027F000CDE90045694648460294FEF70FFC01AA60
:10280000009782E8700069464846FEF707FCC02042
:1028100000900C48CDE9010469464846FEF7FEFBEE
:10282000002211461720FEF75FFD1720FEF74EFD30
:1028300005B0BDE8F0830000001002400008014030
:10284000000C01400000211010B592B000240F943C
:102850001C2108A81094FDF7EBFD20216846FDF728
:10286000E7FD20481E49C0E900145921C0E9024192
:1028700080210461C0E90541FFF7A0FA08B1FDF726
:1028800094FF0F940FA917481094FFF7D1F808B1DF
:10289000FDF78BFF6020CDE908040A940B940C949B
:1028A0000D94002208A90F480E94FFF721FA08B1F1
:1028B000FDF77BFF00944FF40050CDE904400294F3
:1028C00001940394694607480794FFF787F808B115
:1028D000FDF76BFF0348FFF7E5F912B010BD0000EC
:1028E000002C0140980000200C4810B50A490160F6
:1028F0004FF416514160002181600C22C160C0E993
:1029000004128161C161FFF7C8FA002803D0BDE855
:102910001040FDF74ABF10BD0044004024010020D4
:102920000C4810B50A4901604FF41651416000216E
:1029300081600C22C160C0E904128161C161FFF7AE
:10294000ACFA002803D0BDE81040FDF72EBF10BD43
:10295000004800406C01002030B41C46029B154624
:10296000082808D2082906D201EBC00022462946D1
:1029700030BC00F077BF30BC7047FEE770B5002573
:1029800004460570FEF744FCC4E90105E5602561D5
:1029900070BD10B50446007801281CD0A06808441A
:1029A000A060E068401CE060FEF732FC6168401AFD
:1029B00041F28831884202D2E06832280CD3D4E94F
:1029C0000201B0FBF1F0C0EB00100A21B0FBF1F006
:1029D00020610120207010BD002010BD70B50025C1
:1029E00006462C4605E000BF00F008F8641C0544CC
:1029F000A4B2B442F8D3B5FBF6F070BD10B50748E9
:102A0000FEF71CF90A210548FEF77AF808B1002004
:102A100010BDBDE810400148FDF7B4BF68000020BC
:102A20000148FDF7C5BE0000680000202DE9F04F09
:102A300091B0FEF7EDFBC34C06466069301A64287E
:102A40007ED30A206661FFF7C9FF0746207A00257A
:102A500058B9BD48FFF792FF012020725F23702212
:102A60002D210F200095FFF728FCDFF8DC8298F875
:102A70000000002870D0D8F810000026B84214D208
:102A8000381AC0EB00204FF4FA61B0FBF1F0C6B287
:102A90000A2E0AD9A08900EB161080B2A081B0F5E9
:102AA000C06F02D3A0F5C060A081C6EB4610C0EB9A
:102AB00006214FF0FF09B1FBF9F0E179B3221E3096
:102AC0005143C0B24D2200FB0210C0F30722E27155
:102AD0000DA903A8CDE90001A04604ABA179A08906
:102AE000FFF768FA002700249DF8340000909DF855
:102AF0000C309DF8102021463846FFF72DFF641C4E
:102B0000E4B2082CF0D37F1CFFB2082FEBD3402097
:102B100000F0D6FE00243EB162204643B6FBF9F039
:102B2000C4B2622C00D9622498F8000046460428FA
:102B300006D1707A844203D07ED947F6FF7101E056
:102B4000F1E009E000914FF0680304F10E024FF04C
:102B5000600100F10F00F0E039467B48FFF719FFF4
:102B6000A069A246301A4FF01009B0F5FA7F57D38A
:102B7000CAF81860D8F80C100027404611B18268D6
:102B8000B2FBF1F7D8F8040041F28831361A64201C
:102B90007043B0FBF1F0C4B2642C00D96424CDE9D9
:102BA00000594FF6FF7369A22D210A200295FFF705
:102BB0002BFD4FF47A70B6FBF0F100FB11624FF081
:102BC000640BB2FBFBF3B6FBF0F264A105A8FDF7C2
:102BD00005FBCDE9005947F6FF7305AA41210A20FC
:102BE0000295FFF711FD3A4660A105A8FDF7F6FA38
:102BF000CDE900594FF6E07305AA55210A20029548
:102C0000FFF702FD62204443B4FBFBF0C2B24FF475
:102C1000FC6000906E2369210F200F32FFF74DFBFF
:102C200098F80000444601287DD10020FFF7D6FA2D
:102C30001F2614237F2200E078E00021084600963A
:102C4000FFF73BFBCDE900694FF6FF764F46029553
:102C500033464AA202211020FFF7D6FCCDE90057E7
:102C60004FF4FC6349A21E210A200295FFF7CCFC19
:102C7000D4E90201B0FBF1F249A105A8FDF7AEFAD3
:102C8000CDE90057334605AA32210A200295FFF705
:102C9000BBFC47A105A82269FDF7A0FACDE90057C2
:102CA000731005AA46210A200295FFF7ADFC48F2F1
:102CB00030445F23722219460E200094FFF7A4FAD5
:102CC0006923722219460E200094FFF79DFA0E2206
:102CD00069235F2110460094FFF796FA7222692358
:102CE0005F2110460094FFF78FFA73237F22194665
:102CF00000200094FFF788FA0C20CDE9005023460D
:102D00002FA2762119200295FFF77EFC40F2DC50BD
:102D1000FEF750F96823712260210F200095FFF71C
:102D2000CCFA8AF8095011B0BDE8F08F00F10E021C
:102D30006823602104F10F000095FFF7BEFA74725A
:102D4000F1E70000000000205400002043616C699E
:102D500062726174696E672E2E2E000054696D6573
:102D60003A20256C752E256C757300004144432074
:102D70004176673A20256C75000000004D55534997
:102D8000432052485954484D0000000043616C698B
:102D900062726174696F6E20446F6E65210000007D
:102DA0004E6F697365204176673A20256C75000087
:102DB0005468726573686F6C643A20256C75000006
:102DC0004B31202F204B323A2045786974000000A7
:102DD000FEE77047704700002DE9F04F8BB0FEF71B
:102DE00017FA644D296A411AC8297DD328620A203E
:102DF000FFF7F4FD696A0446884200D96C62A86A4C
:102E00004FF0000A844202D1686AA0426DD1224686
:102E100059A103A8AC62FDF7E1F91027CDE900A79D
:102E200056464FF6FF7303AA1E210A20CDF808A0CC
:102E3000FFF7EAFB53A103A86A6AFDF7CFF94FF643
:102E4000E078CDE90067434603AA32210A200296C2
:102E5000FFF7DAFB4FF4FC6947F6FF7BB4F5FA7F26
:102E600002D24BA24B4618E040F2DC50844202D220
:102E70004BA25B4611E040F6C410844202D24CA241
:102E800043460AE040F6AC50844203D24CA24FF6CF
:102E90001F0302E04EA24FF47843B246CDE900672B
:102EA00046210A200296FFF7AFFB6420604340F6FC
:102EB000FF71B0FBF1F0C6B2642E00D9642648F26F
:102EC00030475A23732219460D200097FFF79CF9CB
:102ED0006423732219460D200097FFF795F90D2200
:102EE00064235A21104601E041E02FE00097FFF7EC
:102EF0008BF9732264235A2110460097FFF784F957
:102F0000DEB1B4F57A7F01D248460CE0B4F5FA6F31
:102F100001D2584607E040F6B830844201D240461C
:102F200001E04FF478400090632306F10E025B212C
:102F30000E20FFF7C2F9642E08D2632372225B21B0
:102F400006F10E00CDF800A0FFF7B7F9A87A002827
:102F50000DD10C21CDE900A148F2304321A26E2110
:102F60000A20CDF808A0FFF74FFB0120A8720BB094
:102F7000BDE8F08F000000204144433A20256C75E5
:102F8000202020004D61783A20256C7520202000FB
:102F90004C6576656C3A2051756965742020000097
:102FA0004C6576656C3A204C6F772020202000001D
:102FB0004C6576656C3A204D656469756D2000003E
:102FC0004C6576656C3A20486967682020200000CF
:102FD0004C6576656C3A2056657279204869676859
:102FE000000000004B312F4B323A204261636B00EE
:102FF000FEF714B930B593B028216846FDF718FAEA
:1030000014210AA8FDF714FA002501200F95109548
:103010001195010412958DE8230004904FF4E010FF
:10302000CDE90810022407946846FEF733FB08B187
:1030300072B6FEE70AA90F2081E831004FF48060E4
:10304000CDE90D0502210AA8FEF748FA08B172B6CB
:10305000FEE74FF4004011900F940FA8FEF7C8F957
:10306000002801D072B6FEE713B030BD70470000F3
:10307000F0B50268194B1A4C1A4D4FF08047984230
:1030800005D0B84203D0A04201D0A84203D122F01B
:1030900070064A683243984205D0B84203D0A04235
:1030A00001D0A84203D122F44074CA6822434C697B
:1030B00022F08002224302608A68C2620A68826249
:1030C000984201D109690163012141610169C90780
:1030D00003D0016921F001010161F0BD002C014024
:1030E000000400400008004010B501F00F03042167
:1030F000046A99408C430462016A9A401143016258
:1031000010BD10B5446A616A814201D101200DE011
:10311000A16A814201D1022008E0E16A814201D125
:10312000042003E0216B814201D108202077204652
:10313000FEF7B2FE0020207710BD10B5446A0121D1
:10314000626A824205D121778069A8B984F8421069
:1031500012E0A26A824206D102222277806958B91F
:1031600084F8431008E0E26A824205D10422227703
:10317000806908B984F844102046FEF77FFE0020DD
:10318000207710BD10B5446A0121626A824203D1E2
:10319000217784F842100EE0A26A824204D1022014
:1031A000207784F8431006E0E26A824203D10420CB
:1031B000207784F844102046FEF772FD0020207727
:1031C00010BD000030B5036A026A22F001020262FB
:1031D0004268846924F073050C682C4323F00205CF
:1031E0008B682B430A4DA8420BD123F00805CB680E
:1031F00022F440722B434D6923F0040315438A697E
:103200002A434260846149684163036230BD000023
:10321000002C014030B5026A036A23F010030362F8
:10322000436884690D6824F4E64444EA05248D6803
:1032300022F0200242EA05120B4DA8420ED1CD68C1
:1032400022F0800242EA05124D6923F4406343EA0A
:1032500085038D6922F0400243EA8503436084615F
:1032600049688163026230BD002C014030B5036AB9
:10327000026A22F4807202624268C46923F4007315
:1032800024F073050C682C438D6843EA05230C4D2C
:10329000A8420ED1CD6823F4006343EA05234D69AB
:1032A00022F4405242EA05128D6923F4806342EA17
:1032B00005124260C4614968C163036230BD000009
:1032C000002C014030B5046A026A22F48052026286
:1032D0004268C3690D6823F4E64343EA05238D6819
:1032E00024F4005444EA0534064DA84204D14D6943
:1032F00022F4804242EA85124260C3614968016457
:10330000046230BD002C014070B5044600680169BC
:10331000E26821F44051114301612169A06808432A
:10332000616908432168CA6841F20C639A43024309
:10333000CA6020684169A26921F44071114341616A
:103340001E492068884202D1FEF76EF901E0FEF7BF
:103350005BF900EBC00101EB0012606864218000A2
:10336000B2FBF0F3B3FBF1F36FF018067343B2FB5B
:10337000F0F5B2FBF0F605EB8305322303EB051500
:10338000B5FBF1F5B6FBF1F605F0F00505EB06151A
:10339000B2FBF0F6B2FBF0F0B0FBF1F06FF0180208
:1033A000504306EB800003EB0010B0FBF1F0216806
:1033B00000F00F002844886070BD00000038014014
:1033C0002DE9F04F93B00020FEF708FF1F270021E2
:1033D00014237F2208460097FEF76FFFDFF8A4A2B0
:1033E0009AF80000002448F230454FF00C094FF0E5
:1033F000100847F6FF764FF6FF73072871D2DFE813
:1034000000F0042E75D0FDFCFB000097CDE901848F
:103410001E469DA202212020FFF7F6F8CDE90048C4
:1034200033469CA22D210A200294FFF7EDF8CDE946
:10343000004833469BA24B210A200294FFF7E4F890
:1034400069237F22194600200095FEF7DDFECDE9B5
:1034500000496E212B4696A20F2002940CE10097A2
:10346000CDE901849B4697A202211820FFF7CCF8F2
:103470009AF803005746012834D0022834D094A289
:1034800095A103A8FCF7AAFECDE90048D8465B4603
:1034900003AA322114200294FFF7B6F850236C22BD
:1034A00019461420CDF80080FEF7AEFEF8785323BD
:1034B00000EB4001C1EB40101430C2B24D2114208A
:1034C0000096FEF7FAFE69237F2219460020009538
:1034D000FEF79AFECDE900492B4682A202946E21A6
:1034E00057E0CBE085A2CBE786A2C9E7CDE900781B
:1034F000C34602941F4685A202211C20FFF784F8D0
:10350000CDE9004802949AF80500002843D03B46D4
:1035100081A21C210A20FFF777F82046CDE9000B95
:1035200002909AF80500A0465C46012835D03B463B
:103530007DA230210A20FFF767F8CDE90084CDF89D
:1035400008809AF80500A346022828D03B467AA2B4
:1035500044210A20FFF758F8CDE9008BCDF8088008
:103560009AF805004446032800D03E46334676A22A
:1035700058210A20FFF748F86C237F2219460020C3
:103580000095FEF741FECDE900492B4672A270215D
:1035900002940A2070E03346BAE73346C8E7334660
:1035A000D5E70097CDE901849B4670A2022118203F
:1035B000FFF72AF857469AF804206FA103A8FCF7F2
:1035C0000DFECDE900485B4603AA32211E2002947D
:1035D000FFF71AF81C226B490BA8FCF7D5FE3979C6
:1035E0000BA850F8212068A103A8FCF7F7FDCDE94E
:1035F0000048334603AA02E038E017E011E050210A
:1036000014200294FFF700F869237F221946002056
:103610000095FEF7F9FDCDE900492B465DA2029425
:103620005DE7022160A21020009723E00097CDE91A
:10363000018461A202210A20FEF7E6FFCDE90048DD
:10364000334661A23C2114200294FEF7DDFF69237A
:103650007F22194600200095FEF7D6FDCDE90049EE
:103660006E212B465DA21920029405E002215FA283
:103670000A200097CDE90184FEF7C6FF13B0BDE82C
:10368000F08F0000000000204D41494E204D454E76
:1036900055000000312E204272696768746E6573B0
:1036A00073000000322E20457874656E64656400F6
:1036B0004B313A456E746572204B323A4E657874E0
:1036C000000000004252494748544E455353000001
:1036D00042524947485400004C6576656C3A2025B3
:1036E000730000004B313A2B20204B323A2D202022
:1036F0004B312B4B323A4578697400004441524BB0
:10370000000000004D454449554D000045585445C2
:103710004E44454400000000312E20436F6C6F7210
:10372000204D6F6465000000322E204D7573696373
:10373000204D6F6465000000332E204175746F20AA
:103740004272696768740000342E20536F756E648E
:1037500020446574656374004B313A53656C2020D6
:103760004B323A456E74657200000000434F4C4F77
:1037700052204D4F44450000496E6465783A20253B
:103780006400000094390008436F6C6F723A202582
:10379000730000004B313A4E65787420204B323A6A
:1037A0004261636B000000004D555349432052486D
:1037B0005954484D000000004155544F2042524991
:1037C0004748544E4553530053656E73696E6720E6
:1037D0004C696768742E2E2E000000004B31202F9C
:1037E000204B323A2045786974000000534F554E03
:1037F000442044455445435400000000FEE770B5A2
:103800000546002407E000231A461946204600F02A
:1038100029F8641CA4B2AC42F5D32846BDE8704038
:1038200000F04EB840F664410148FCF7DFBD0000EF
:10383000B40100202DE9F0411E4617468846054692
:10384000002407E033463A464146204600F00AF895
:10385000641CA4B2AC42F5D32846BDE8F04100F0A8
:103860002FB80000F0B5402827D2144D00244FF0A7
:10387000800E00EB400700BF2EFA04F0104202D089
:103880004FF03A0C01E04FF0190C04EBC706084268
:1038900025F816C002D04FF03A0C01E04FF0190C99
:1038A00005EB46061842A6F810C001D03A2000E009
:1038B0001920641C3084082CDEDBF0BDB40100202C
:1038C00030B4402800D9402000210B4B0A4600EBC1
:1038D000400000BF01EBC004491C23F8142032292A
:1038E000F8DB322101EBC00083B230BC024A002178
:1038F0000248FEF7D1B80000B40100209800002073
:103900000907090E002804DB00F1E02080F800140C
:10391000704700F00F0000F1E02080F8141D7047A0
:10392000FDF784FCFFF766FBFEF728FFFEF710FFAC
:10393000FEF78AFFFEF7D8FFFEF7F2FFFEF7E0FE84
:10394000FEF7DAFC0020FEF749FCFFF76BFFFFF7FC
:1039500067F8FCF7FDFEFEF7C5FEFFF731FD0C4CE6
:10396000FEF772FB2078042806D02078052806D0C0
:103970002078062806D007E0FFF758F804E0FCF7A7
:10398000B3FE01E0FFF728FA0A20FDF713FBE7E793
:1039900000000020347000085870000848700008CB
:1039A000607000083870000850700008407000080F
:1039B00000000000000000000000000000000404FF
:1039C000040404000004000014140A0000000000B5
:1039D0000000000000000A0A1F0A0A1F0A0A00006D
:1039E00000040E1505060C14150E04000000121537
:1039F0000D152E2C2A1200000000040A0A36151597
:103A00002916000002020100000000000000000072
:103A10001008080404040404080810000204040840
:103A2000080808080404020000000004150E0E1522
:103A30000400000000000008083E08080000000024
:103A40000000000000000000020201000000000071
:103A5000003F000000000000000000000000000027
:103A600000020000002010100808040402020100F7
:103A700000000E1111111111110E000000000406BA
:103A800004040404040E000000000E1111080402D6
:103A9000011F000000000E11100C1010110E00008C
:103AA0000000080C0C0A091F081C000000001F0180
:103AB000010F1110110E000000000C12010D131166
:103AC000110E000000001E10080804040404000089
:103AD00000000E11110E1111110E000000000E1148
:103AE0001119161009060000000000000400000073
:103AF00000040000000000000004000000040400B6
:103B00000000100804020204081000000000000079
:103B10003F003F00000000000000020408101008F1
:103B20000402000000000E1111080404000400004B
:103B300000001C22292D2D1D221C00000000040461
:103B40000C0A0A1E1233000000000F12120E12128D
:103B5000120F000000001E1101010101110E0000F2
:103B600000000F1212121212120F000000001F129A
:103B70000A0E0A02121F000000001F120A0E0A029B
:103B80000207000000001C1201013911120C000094
:103B900000003312121E12121233000000001F0424
:103BA00004040404041F000000003E08080808087C
:103BB00008080907000037120A060A121237000027
:103BC0000000070202020202223F000000003B1B2D
:103BD0001B1B15151535000000003B1216161A1A8E
:103BE0001217000000000E1111111111110E00002A
:103BF00000000F12120E02020207000000000E1158
:103C000011111117190E180000000F12120E0A12CE
:103C10001237000000001E1101060810110F0000ED
:103C200000001F1504040404040E000000003312F9
:103C300012121212120C000000003312120A0A0CA7
:103C4000040400000000151515150E0A0A0A0000EC
:103C500000001B0A0A04040A0A1B000000001B0AD9
:103C60000A0A0404040E000000001F0908040402EC
:103C7000121F00001C0404040404040404041C00B7
:103C80000002020404040808081010000E080808C6
:103C90000808080808080E00040A000000000000D8
:103CA0000000000000000000000000000000003FD5
:103CB00002040000000000000000000000000000FE
:103CC000000C121C123C000000030202020E121231
:103CD000120E000000000000001C1202120C000076
:103CE00000181010101C1212123C000000000000FE
:103CF000000C121E021C000000182404041E040400
:103D0000041E000000000000003C120C021C221CDB
:103D100000030202020E1212123700000004040017
:103D200000060404040E000000080800000C080847
:103D30000808080700030202021A0A060A13000014
:103D40000007040404040404041F00000000000031
:103D5000000F15151515000000000000000F1212CD
:103D60001237000000000000000C1212120C0000BC
:103D700000000000000F1212120E020700000000E7
:103D8000001C1212121C103800000000001B06025A
:103D90000207000000000000001E020C101E0000C0
:103DA00000000004041E0404041C000000000000C5
:103DB000001B1212123C000000000000001B0A0A47
:103DC00004040000000000000015150E0A0A00009F
:103DD00000000000001B0A040A1B00000000000095
:103DE000003312120C08040300000000001E080437
:103DF000041E000018080808080C08080808180025
:103E00000808080808080808080808080604040440
:103E10000408040404040600160900000000000061
:103E20000000000000000000000000000000000092
:103E3000000000000000000808080808080800004A
:103E40001818000000486C24120000000000000058
:103E5000000000000000002424247F1212127F12B0
:103E6000121200000000081C2A2A0A0C1828282A0E
:103E70002A1C080800000022251515152A5854543C
:103E8000542200000000000C1212120A762529119B
:103E9000916E000000060604030000000000000010
:103EA0000000000000402010100808080808081052
:103EB0001020400000020408081010101010100814
:103EC000080402000000000008086B1C1C6B0808B6
:103ED0000000000000000000080808087F0808082B
:103EE00008000000000000000000000000000000CA
:103EF000060604030000000000000000FE000000B1
:103F000000000000000000000000000000000000B1
:103F10000606000000008040402020101008080421
:103F2000040202000000001824424242424242427F
:103F300024180000000000080E08080808080808F7
:103F4000083E00000000003C4242422020100804CD
:103F5000427E00000000003C4242201820404042C7
:103F6000221C0000000000203028242422227E2071
:103F7000207800000000007E0202021A2640404223
:103F8000221C0000000000382402021A264242428D
:103F9000241800000000007E2222101008080808E3
:103FA000080800000000003C42424224182442421B
:103FB000423C000000000018244242426458404045
:103FC000241C000000000000000018180000000081
:103FD00018180000000000000000000800000000A9
:103FE0000008080400000040201008040204081023
:103FF000204000000000000000007F0000007F0063
:1040000000000000000000020408102040201008FA
:10401000040200000000003C424246402010100014
:10402000181800000000001C225A555555552D4205
:10403000221C00000000000808181414243C22422E
:1040400042E700000000001F2222221E22424242BC
:10405000221F00000000007C4242010101010142D8
:10406000221C00000000001F224242424242424203
:10407000221F00000000003F4212121E12120242D4
:10408000423F00000000003F4212121E12120202C4
:10409000020700000000003C2222010101712122E0
:1040A000221C0000000000E7424242427E4242429F
:1040B00042E700000000003E080808080808080859
:1040C000083E00000000007C1010101010101010AE
:1040D0001010110F0000007722120A0E0A1212228D
:1040E0002277000000000007020202020202020220
:1040F000427F000000000077363636362A2A2A2A08
:104100002A6B0000000000E346464A4A52525262BF
:10411000624700000000001C2241414141414141F1
:10412000221C00000000003F424242423E020202C6
:10413000020700000000001C2241414141414D5353
:10414000321C60000000003F4242423E1212222216
:1041500042C700000000007C424202041820404296
:10416000423E00000000007F4908080808080808CF
:10417000081C0000000000E7424242424242424224
:10418000423C0000000000E742422224241414189C
:10419000080800000000006B49494949555536227E
:1041A00022220000000000E74224241818182424CA
:1041B00042E70000000000772222141408080808D3
:1041C000081C00000000007E21201010080404429A
:1041D000423F000000780808080808080808080896
:1041E00008087800000002020404080808101020E3
:1041F00020204040001E1010101010101010101041
:1042000010101E00003844000000000000000000F4
:10421000000000000000000000000000000000009E
:10422000000000FF00060800000000000000000081
:1042300000000000000000000000003C4278444202
:1042400042FC0000000000030202021A2642424221
:10425000261A00000000000000000038440202029C
:104260004438000000000060404040784442424230
:1042700064D80000000000000000003C427E020202
:10428000423C0000000000F08808087E080808088A
:10429000083E0000000000000000007C22221C02FA
:1042A0003C42423C000000030202023A46424242C3
:1042B00042E700000000000C0C00000E080808088F
:1042C000083E000000000030300000382020202090
:1042D0002020221E0000000302020272120A16129F
:1042E000227700000000000E0808080808080808E7
:1042F000083E0000000000000000007F92929292B1
:1043000092B70000000000000000003B464242421D
:1043100042E70000000000000000003C4242424230
:10432000423C0000000000000000001B2642424208
:10433000221E0207000000000000007844424242B2
:10434000447840E000000000000000774C040404C2
:10435000041F0000000000000000007C42023C40FE
:10436000423E0000000000000008083E080808085F
:10437000083000000000000000000063424242429A
:1043800062DC000000000000000000E7422424146A
:104390000808000000000000000000EB49495555E6
:1043A00022220000000000000000007624181818E7
:1043B000246E000000000000000000E742242414E6
:1043C00018080807000000000000007E22100808FE
:1043D000447E000000C0202020202010202020202B
:1043E0002020C0001010101010101010101010100D
:1043F000101010100006080808080810080808081F
:10440000080806000C32C200000000000000000096
:10441000000000000000000000000000000000009C
:10442000000000000000000000000000000000008C
:10443000000000000000000000000000000000007C
:1044400000000000000000000000000060006000AC
:1044500060006000600060006000400020002000FC
:10446000200000000000000060006000600000000C
:1044700000000000000000006006600630039801A4
:104480008800440000000000000000000000000060
:10449000000000000000000000000000000000001C
:1044A00000000000000000000000000010021002E8
:1044B00010021002FE07FE070802080108010801A9
:1044C0000801FE07FE0704010401040104010000C5
:1044D0000000000000000000000040004000F0016B
:1044E00058034C03CC034C0058007000E000C0019E
:1044F000C00140034C035C034C034801F000400042
:104500004000000000000000000000000E010A0151
:10451000910091009100510051003A00AE03A002B9
:1045200050045004480448044804840284030000F2
:1045300000000000000000000000000038006C00D7
:104540006C006C006C006C002C0098071C011A01B8
:10455000330133016301E300C308C6093C070000CF
:1045600000000000000000000C001C001000100003
:10457000080004000000000000000000000000002F
:10458000000000000000000000000000000000002B
:104590000000000000000000000400020001800094
:1045A000800040004000200020002000200020006B
:1045B0002000200040004000800080000001000238
:1045C00000040000000000000200040008001000C9
:1045D000100020002000400040004000400040004B
:1045E00040004000200020001000100008000400DF
:1045F00002000000000000000000000000000000B9
:104600004000C0004000460C4E0FD001F0015E0F8C
:10461000460C400040004000000000000000000088
:10462000000000000000000000000000000000008A
:10463000000040004000400040004000FE0F4000ED
:10464000400040004000400000000000000000006A
:10465000000000000000000000000000000000005A
:10466000000000000000000000000000000000004A
:1046700000000000000000000C001C0010001000F2
:10468000080004000000000000000000000000001E
:10469000000000000000000000000000FE07000015
:1046A000000000000000000000000000000000000A
:1046B00000000000000000000000000000000000FA
:1046C00000000000000000000000000000000000EA
:1046D00000000000000000001C001C001C00000086
:1046E00000000000000000000004000600020003BB
:1046F00000010001800080004000400060002000B8
:10470000200010001000080008000C000400060043
:104710000200000000000000000000000000F000A7
:1047200098010C030C030606060606060606060696
:104730000606060606060C030C039801F0000000AE
:104740000000000000000000000000000000400029
:104750007C0060006000600060006000600060003D
:10476000600060006000600060006000FC0300000A
:104770000000000000000000000000000000F80041
:104780008401020306030603000300018001C00048
:10479000600020001000080204020602FE03000070
:1047A0000000000000000000000000000000780091
:1047B000C6008601860180018001C0007000800172
:1047C000000100030003060306038601F800000051
:1047D0000000000000000000000000000000800158
:1047E0008001C001A001A00190018801880184011D
:1047F0008201FE0F8001800180018001E00700003E
:104800000000000000000000000000000000FC03A9
:1048100004000400040004000400F4008C010403FC
:10482000000300030603060382018401F800000070
:104830000000000000000000000000000000E00197
:1048400018030C030C0004000600E60116030E0614
:1048500006060606060604060C021803F000000011
:104860000000000000000000000000000000F80749
:104870000C060402040100010001800080004000D9
:1048800040004000600060006000600060000000C8
:104890000000000000000000000000000000F8011F
:1048A0000C030606060606060C021C03F000C801EF
:1048B0000C0306060606060606060C03F0010000B9
:1048C0000000000000000000000000000000F000F8
:1048D0000C010C03060206060606060606078C06F1
:1048E00078060006000300030C018C01780000002C
:1048F00000000000000000000000000000000000B8
:104900000000000000000000E000E000E000000007
:104910000000000000000000E000E000E0000000F7
:104920000000000000000000000000000000000087
:1049300000000000000000006000600000000000B7
:104940000000000000000000000060006000400067
:104950002000200000000000000000000004000211
:104960000001800040002000100008000400080042
:104970001000200040008000000100020004000040
:104980000000000000000000000000000000000027
:104990000000000000000000FE0700000000000012
:1049A000FE07000000000000000000000000000002
:1049B00000000000000000000000000004000800EB
:1049C00010002000400080000001000200040002EE
:1049D00000018000400020001000080004000000DA
:1049E0000000000000000000000000000000E003E4
:1049F0001806040C040C0C0C0C0C00078001400081
:104A00004000400000000000E000E000E000000086
:104A1000000000000000000000000000E00018039B
:104A20000C02CC0564056605A605B604B604B604FA
:104A3000B604B602E4010C040C021803F0000000F6
:104A40000000000000000000000000000000600006
:104A500060005000D000900090008800880108019C
:104A6000F801040304030402020202060F0F00000F
:104A70000000000000000000000000000000FE0038
:104A80008C030C030C030C030C038C01FC000C03C3
:104A90000C020C060C060C060C060C03FE010000B2
:104AA0000000000000000000000000000000E00323
:104AB00018030C060C040404060006000600060099
:104AC0000600060006040C040C021803F0000000A7
:104AD00000000000000000000000000000007F0057
:104AE0008C010C030C030C060C060C060C060C06C1
:104AF0000C060C060C060C030C038C017F00000056
:104B00000000000000000000000000000000FF03A3
:104B1000060306040604060086008600FE008600E2
:104B2000860086000600060406040602FF03000055
:104B30000000000000000000000000000000FF0373
:104B4000060306040604060086008600FE008600B2
:104B50008600860006000600060006001F00000012
:104B60000000000000000000000000000000F00055
:104B700018010C020C0204020600060006000600E2
:104B8000C60F060306030C030C031803F000000015
:104B900000000000000000000000000000000F0FF7
:104BA000060606060606060606060606FE070606AC
:104BB0000606060606060606060606060F0F00008F
:104BC0000000000000000000000000000000FC03E6
:104BD00060006000600060006000600060006000D5
:104BE000600060006000600060006000FC03000086
:104BF0000000000000000000000000000000F807B6
:104C0000C000C000C000C000C000C000C000C000A4
:104C1000C000C000C000C000C000C000C000C6008E
:104C200066003C0000000000000000000000CF0310
:104C30008601C60046002600160036002E006E00D3
:104C40004600C60086008601060106038F070000A5
:104C500000000000000000000000000000001F0035
:104C60000600060006000600060006000600060014
:104C7000060006000600060406040602FF03000004
:104C80000000000000000000000000000000070716
:104C9000860386038E038E034E034E034A035A0394
:104CA0005A033A0332033203320312038707000028
:104CB00000000000000000000000000000008E0F57
:104CC0000C021C021C02340234026402640244021C
:104CD000C402840284038403040304031F0200004B
:104CE0000000000000000000000000000000F000D4
:104CF00098010C030C0206060606060606060606C2
:104D00000606060606060C020C039801F0000000D9
:104D10000000000000000000000000000000FF0094
:104D20000603060606060606060606068603FE00B7
:104D30000600060006000600060006001F00000030
:104D40000000000000000000000000000000F00073
:104D500098010C030C020606060606060606060661
:104D60000606060676064C02CC039801F000800782
:104D70000003000000000000000000000000FF0130
:104D8000060306060606060606060603FE0046009D
:104D9000C600860086010603060306060F0E000005
:104DA0000000000000000000000000000000F80209
:104DB0000C030602060206000E003C00F800E003A9
:104DC000800300070206020606060C03F00100003D
:104DD0000000000000000000000000000000FE07CE
:104DE00062046108610860006000600060006000AB
:104DF000600060006000600060006000F80100007A
:104E000000000000000000000000000000001E077D
:104E10000C020C020C020C020C020C020C020C0222
:104E20000C020C020C020C020C021801F000000033
:104E300000000000000000000000000000000F075C
:104E40000602040104010C010C018800880098008E
:104E5000980050005000700030002000200000003A
:104E60000000000000000000000000000000F70E3D
:104E7000620442044604460464026402E402E4025A
:104E80009C029C019801980188018800880000001C
:104E900000000000000000000000000000009E076D
:104EA0000C01080118019000B000600020006000B3
:104EB0006000D00090008801080104038E07000004
:104EC00000000000000000000000000000000F0FC4
:104ED000060404020C0208011801B800B0007000BA
:104EE000600060006000600060006000F801000089
:104EF0000000000000000000000000000000FC07AF
:104F00000C020603020180018000400040002000E6
:104F100020001000180008040C040402FE03000026
:104F20000000000000000000E0032000200020003E
:104F30002000200020002000200020002000200071
:104F40002000200020002000200020002000200061
:104F5000E003000000000000000000000400040066
:104F60000800080010001000100020002000400081
:104F70004000C0008000800000010001000200022B
:104F800000020004000000007C00400040004000DF
:104F90004000400040004000400040004000400011
:104FA0004000400040004000400040004000400001
:104FB0007C0000000000600090000801000000007C
:104FC00000000000000000000000000000000000E1
:104FD00000000000000000000000000000000000D1
:104FE00000000000000000000000000000000000C1
:104FF00000000000000000000000000000000000B1
:1050000000000000000000000000000000000000A0
:105010000000FF0F0000000018006000000000000A
:105020000000000000000000000000000000000080
:105030000000000000000000000000000000000070
:105040000000000000000000000000000000000060
:105050000000000000000000F0010C030C0300033E
:10506000E0031C030E03060306038E0B7C0E0000F8
:1050700000000000000000000000000008000E001A
:105080000C000C000C000C00CC013C031C060C06B0
:105090000C060C060C060C060C021C03E4010000B6
:1050A0000000000000000000000000000000000000
:1050B0000000000000000000F0008C018C0186015F
:1050C00006000600060006020C020C01F0000000BB
:1050D0000000000000000000000000000002C0030B
:1050E000000300030003000378038C030C03060392
:1050F000060306030603060304038C077801000079
:10510000000000000000000000000000000000009F
:105110000000000000000000E001180308020C0677
:105120000C06FC070C000C0018041802E00100003B
:105130000000000000000000000000000000C003AC
:105140006006300630003000FE01300030003000D4
:10515000300030003000300030003000FC01000032
:10516000000000000000000000000000000000003F
:105170000000000000000000F007D8068C018C0140
:105180008C019801F8000C00FC00CC030603060318
:105190008E03F800000000000000000008000E0070
:1051A0000C000C000C000C00EC011C030C030C03A5
:1051B0000C030C030C030C030C030C039E070000F0
:1051C000000000000000000000000000000060007F
:1051D00060000000000040007C0060006000600093
:1051E000600060006000600060006000FC03000080
:1051F0000000000000000000000000000000C001EE
:10520000C001000000000001F00180018001800168
:105210008001800180018001800180018001800186
:10522000CC007C00000000000000000008000E0020
:105230000C000C000C000C008C038C008C004C004B
:105240006C005C008C008C010C010C039E070000BC
:1052500000000000000000000000000040007C0092
:10526000600060006000600060006000600060003E
:10527000600060006000600060006000FC030000EF
:10528000000000000000000000000000000000001E
:1052900000000000000000003707EE066606660604
:1052A000660666066606660666066606FF0F000068
:1052B00000000000000000000000000000000000EE
:1052C0000000000000000000EE011C030C030C03B2
:1052D0000C030C030C030C030C030C039E070000CF
:1052E00000000000000000000000000000000000BE
:1052F0000000000000000000F00098010C0306060A
:1053000006060606060606060C030C03F00000005F
:10531000000000000000000000000000000000008D
:105320000000000000000000EE011C030C060C064B
:105330000C060C060C060C060C031C03EC010C00FE
:105340000C003E0000000000000000000000000013
:10535000000000000000000078028C030C0306032C
:10536000060306030603060304038C037803000305
:105370000003C00700000000000000000000000063
:1053800000000000000000009F03580638061800C7
:10539000180018001800180018001800FF0000007E
:1053A00000000000000000000000000000000000FD
:1053B0000000000000000000F0031C030C020C02BF
:1053C0003800F000C003040304038C03FC01000058
:1053D00000000000000000000000000000000000CD
:1053E0002000200030003000FE013000300030008E
:1053F000300030003000300030023002E0010000A8
:10540000000000000000000000000000000000009C
:1054100000000000000008028E030C030C030C03C4
:105420000C030C030C030C030C039C077801000015
:10543000000000000000000000000000000000006C
:1054400000000000000000001E070C020801080117
:1054500018019000B000B000600060002000000063
:10546000000000000000000000000000000000003C
:105470000000000000000000F70E62044604640211
:105480006402EC029C019801980198010800000058
:10549000000000000000000000000000000000000C
:1054A0000000000000000000BC0718011001B0005F
:1054B00060006000E0009000080108039E07000003
:1054C00000000000000000000000000000000000DC
:1054D00000000000000000009E070801080108010C
:1054E00090009000B000600060006000200020008C
:1054F00024001C000000000000000000000000006C
:105500000000000000000000FC018401C400440011
:10551000600020003000180208020C03FC010000AB
:1055200000000000000000000003800080008000F8
:10553000800080008000800080004000200040004B
:10554000800080008000800080008000800080005B
:1055500000030000400040004000400040004000C8
:10556000400040004000400040004000400040003B
:10557000400040004000400040004000400040002B
:1055800040004000000000000C001000100010005F
:10559000100010001000100010002000400020003B
:1055A000100010001000100010001000100010007B
:1055B0000C00000000001C002204C2048003000054
:1055C00000000000000000000000000000000000DB
:1055D00000000000000000000000000000000000CB
:1055E00000000000000000000000000000000000BB
:1055F00000000000000000000000000000000000AB
:10560000000000000000000000000000000000009A
:10561000000000000000000000000000000000008A
:105620000000000000000000000000000000C001B9
:10563000C001C001C001C001C001C00180008000E4
:1056400080008000800080008000000000000000DA
:1056500000008001C003C0038001000000000000C2
:1056600000000000000000000000E01CE01CF01E34
:10567000700E3807180308018400000000000000C5
:10568000000000000000000000000000000000001A
:10569000000000000000000000000000000000000A
:1056A00000000000000000000000000000000000FA
:1056B00020102010201020102010FE7FFE7F1008E8
:1056C000100810081008100810081008FE7FFE7F50
:1056D000080408040804080408040000000000008E
:1056E00000000000000000000000000000010001B8
:1056F000C007601910311831183918393801700194
:10570000E001C0038007000F001D003900311C318B
:105710001C310C310C11180DE007000100010001D3
:105720000000000000000000000000000000000079
:105730001C1036186308630C63046304630263027D
:105740006301361D9C378022806340634063206381
:105750002063306310221836081C0000000000008F
:105760000000000000000000000000000000000039
:10577000F00098018C018C018C018C018C00CC0014
:105780007800183E1C083608320863046304C3041A
:10579000C303834306438E26781C000000000000EC
:1057A000000000000000000000001C003C003C0065
:1057B0003000300010000C00060000000000000067
:1057C00000000000000000000000000000000000D9
:1057D00000000000000000000000000000000000C9
:1057E0000000000000000000000000400020001049
:1057F0000008000C00040006000300030003800101
:10580000800180018001800180018001800100030E
:105810000003000300060006000C00080010002032
:10582000004000000000000000000200040008002A
:105830001000300020006000C000C000C0008001E7
:105840008001800180018001800180018001C00011
:10585000C000C000600060003000100008000400BC
:105860000200000000000000000000000000000036
:105870000000000000018003800300011C713C79DE
:10588000783DC0070001C007783D3C791C710001DC
:105890008003800380010000000000000000000081
:1058A00000000000000000000000000000000000F8
:1058B00000000000000000010001000100010001E3
:1058C00000010001FC7F0001000100010001000156
:1058D00000010001000000000000000000000000C6
:1058E00000000000000000000000000000000000B8
:1058F00000000000000000000000000000000000A8
:105900000000000000000000000000000000000097
:10591000000000001C003C003C0030003000100083
:105920000C00060000000000000000000000000065
:105930000000000000000000000000000000000067
:1059400000000000FE7F00000000000000000000DA
:105950000000000000000000000000000000000047
:105960000000000000000000000000000000000037
:105970000000000000000000000000000000000027
:105980000000000000000000000000000000000017
:10599000000018003C003C0018000000000000005F
:1059A0000000000000000000000000400060002037
:1059B0000030001000180008000C0004000600026F
:1059C0000003000180018000C00040006000200052
:1059D00030001000180008000C000400060002004F
:1059E00000000000000000000000000000000000B7
:1059F000C007600C30181830183018200C600C608C
:105A00000C600C600C600C600C600C600C6018206A
:105A1000183018303018600CC0070000000000007B
:105A20000000000000000000000000000000000076
:105A300000018001F8018001800180018001800166
:105A4000800180018001800180018001800180014E
:105A5000800180018001C003F81F000000000000E9
:105A60000000000000000000000000000000000036
:105A7000E007101C0818043004300C300C300030E3
:105A800000180008000400020001800040002020EF
:105A9000102008200430FC1FFC1F00000000000044
:105AA00000000000000000000000000000000000F6
:105AB000E003180E0C0C0C180C180C180018000C35
:105AC0000006C003000E00180010003000300C303B
:105AD0000C300C100C18180CE00300000000000043
