:020000040800F2
:1000000020070020B5010008E92000082915000894
:10001000E520000871020008152200080000000019
:10002000000000000000000000000000F1200008B7
:100030007502000800000000ED200008F52000080F
:10004000CF010008CF010008CF010008CF01000850
:10005000CF010008CF010008CF010008CF01000840
:10006000CF010008CF010008CF010008CF01000830
:10007000CF010008CF010008CF010008CF01000820
:10008000CF010008CF010008CF010008CF01000810
:10009000CF010008CF010008CF010008CF01000800
:1000A000CF010008CF010008CF010008CF010008F0
:1000B000CF010008CF010008CF010008CF010008E0
:1000C000CF010008CF010008CF010008CF010008D0
:1000D000CF010008CF010008CF0100080922000865
:1000E000CF010008CF010008CF01000800F002F89E
:1000F00000F050F814A696E8000CB244B344DA4578
:1001000001D100F047F8BAE80F000FA696E83000DA
:10011000A5EB040504EB0607AAEB0704A7F101070A
:100120004FEA15154FEA3414A4F10104AC4201D38F
:1001300000F030F813F0010F18BFFB1A43F0010371
:1001400000F001F8DBE71847E85700000858000006
:10015000103A24BF78C878C1FAD8520724BF30C8F3
:1001600030C144BF04680C60704700007047000055
:100170000023002400250026103A28BF78C1FBD8B0
:10018000520728BF30C148BF0B6070471FB51FBD65
:1001900010B510BD00F031F81146FFF7F7FF02F07F
:1001A0002BF900F04FF803B4FFF7F2FF03BC00F0A7
:1001B00057F800000948804709480047FEE7FEE776
:1001C000FEE7FEE7FEE7FEE7FEE7FEE7FEE7FEE707
:1001D00004480549054A064B70470000F92000080D
:1001E000ED0000082001002020070020200300204F
:1001F00020030020704770477047754600F02CF8C8
:10020000AE4605006946534620F00700854618B003
:1002100020B5FFF7DDFFBDE820404FF000064FF0AE
:1002200000074FF000084FF0000BAC46ACE8C009E7
:10023000ACE8C009ACE8C009ACE8C00921F007018E
:100240008D46704710B50446AFF300802046BDE8E8
:100250001040FFF7A8BF00000048704710000020C2
:1002600001491820ABBEFEE72600020070470000DF
:10027000FEE7000070470000EFF3108072B600BF89
:10028000FEE70000014690F82100022816D1086818
:10029000D1E90FC3026822F00E020260026822F068
:1002A00001020260012000FA03F2CCF8042081F878
:1002B00021000020002281F820207047042088635C
:1002C0000120002281F820207047000080B590F8BE
:1002D0002110022924D10268116821F00E01116059
:1002E0002F211368C4F202018A4240F20401C4F2D1
:1002F000020123F00103136016DD3023C4F2020370
:100300009A421DD04423C4F202039A421CD05823BF
:10031000C4F202039A421DD14FF4803322E000BFA1
:1003200004218163012080BD0823C4F202039A42A4
:100330000ED01C23C4F202039A420BD1102311E009
:100340004FF480730EE000BF4FF480530AE000BF0B
:10035000012307E001F1680C4FF08073624508BF8C
:100360004FF480130B60012180F82110426B0021B3
:1003700080F820100AB190470021084680BD000097
:10038000B0B5044600F026F9054640F20000C2F27E
:1003900000000078611C18BF044400BF00F01AF987
:1003A000401BA042FAD3B0BD2DE9F04F82B041F21C
:1003B0000042C4F201020E680423904208BF0323E6
:1003C000002E009300F0F68040F2004C4FF6FF7EC6
:1003D0000022C4F2010C0124C1F2100E4FF0000AF9
:1003E0004FF0000947E000BF012502F00C040F2781
:1003F000A7402BEA070705FA04F43C4343F82640DC
:10040000D1F804B040F20C455FEACB23DCF80830A9
:1004100054BF23EA080343EA0803C4F20105CCF8F9
:1004200008302B685FEA8B2454BF23EA080343EAB1
:1004300008032B605FEA8B34DCF8043054BF23EAF6
:10044000080343EA08035FEACB34CCF80430DCF855
:1004500000304FF0010454BF23EA080343EA0803C5
:10046000CCF800300E680AF1010A36FA0AF302F1FC
:10047000040200F09F8004FA0AF816EA080FF1D08F
:100480004B68734512DC122B56D8DFE803F0350BAE
:100490004549555555555555555555555555554D30
:1004A000510000BFD1F80C9046E000BF4FF6FF7539
:1004B000C1F22105AB420FDC0025C1F21105AB42B0
:1004C0001AD00025C1F21205AB4215D00025C1F2A9
:1004D0002105AB4210D02FE00025C1F22205AB422E
:1004E0000AD00025C1F23105AB4205D00025C1F28A
:1004F0003205AB4220D100BF8B684BB1012B14BF3A
:10050000C0F81480C0F810804FF0080914E000BF54
:100510004FF0040910E000BFCB6803F108090BE0BD
:100520004FF0000908E000BFCB6803F1040903E0C5
:10053000CB6803F10C0900BF13460546BAF1080F5A
:1005400024BF203B04352E680F279F40BE4309FA85
:1005500003F333432B60CB79DB067FF583AF41F2A6
:100560001804C4F2020423684FEA9A0643F0010318
:100570002360236840F6000403F001030193019B0C
:10058000ACF57E7353F826B0C4F20104A0420FD03C
:1005900040F60044C4F20104A0423FF425AF41F20A
:1005A0000004C4F20104009DA04208BF02251CE71C
:1005B00000251AE702B0BDE8F08F0000806808400F
:1005C00018BF012070470000002A08BF090401611C
:1005D0007047000040F21810C2F200000068704737
:1005E00040F2000040F21811C2F20000C2F2000115
:1005F00000780A68104408607047000080B542F235
:100600000000C4F20200016841F010010160032003
:1006100000F08AF80F2000F005F800F027F800201D
:1006200080BD000070B540F20006C2F2000640F244
:1006300008013278C2F200014FF47A730968B3FB03
:10064000F2F20446B1FBF2F1084600F0E7FB0F2C92
:100650004FF0010508D838B94FF0FF30214600228D
:10066000002500F035F87460284670BD82B041F274
:100670001800C4F202000168022241F00101016089
:10068000016801F0010101910199416841F0805137
:100690004160406800F08050009000980420C4F24F
:1006A0000100016862F31A61016002B07047000046
:1006B000002848BF704700F01F01012202FA01F133
:1006C0004EF200124009CEF2000242F820107047AC
:1006D00010B54EF60C5CCEF2000CDCF80030C3F323
:1006E000022E8EF00704042C28BF0424BEF103035D
:1006F0004FF0FF3E0EFA04F438BF0023A1439940A7
:100700000EFA03F39A43114300F00F02043A6244D5
:1007100009010C3200F16043B0F1FF3FC8BF03F59F
:100720006442117010BD00004EF60C51CEF2000173
:100730000A684FF6FF031A4060F30A2242F0806015
:1007400040F0FD70086070472DE9F04381B000284B
:1007500000F0858042F20008C4F202080446D8F88E
:1007600000000D4600F0070088420CD2D8F80000C7
:1007700020F007002843C8F80000D8F8000000F077
:100780000700A8426BD1206841F204098107C4F236
:10079000020917D5410705D5D9F8001041F4E061E9
:1007A000C9F80010010705D5D9F8001041F46051CF
:1007B000C9F80010D9F80010A26821F0F001114327
:1007C000C9F80010C00741D1D8F8000000F00700B8
:1007D000A8420CD9D8F8000020F007002843C8F838
:1007E0000000D8F8000000F00700A84237D12068C8
:1007F000410707D5D9F80010E26821F4E061114300
:10080000C9F80010000708D5D9F80000216920F4C4
:10081000605040EAC100C9F80000D9F8002002F099
:100820000C00082841F20020C0F27A0050D145F6B1
:100830001E13C2F38341C0F60003595CD2033BD4BC
:1008400040F60010C0F23D00484341E060680228D5
:100850000AD001282AD159F8041C890308D40120A0
:1008600001B0BDE8F08300BF59F8041C8901F6D53A
:10087000D9F8001021F003010843C9F80000FFF780
:10088000A9FE064641F28837D9F80000616800F0F9
:100890000C00B0EB810F97D0FFF79CFE801BB84295
:1008A000F2D9032001B0BDE8F08300BF59F8041C61
:1008B0008907D4D5DCE700BFD9F8002042F22853DD
:1008C000C2F34042C0F600039A5C4843B0FBF2F02A
:1008D000D9F8001042F21052C1F30311C0F6000221
:1008E000515C40F2080220FA01F140F20400C2F229
:1008F00000000068C2F200021160FFF793FE0020C2
:1009000001B0BDE8F083000040F2080041F20401AC
:10091000C2F20000C4F202010068096842F22052EB
:10092000C1F30221C0F60002515CC84070470000CC
:1009300040F2080041F20401C2F20000C4F20201D8
:100940000068096842F22052C1F3C221C0F60002D9
:10095000515CC840704700002DE9F04182B000288A
:1009600068D00446007841F20006C007C4F20206CF
:1009700025D0706800F00C0004281BD0706800F0CF
:100980000C00082802D17068C00313D460680028E6
:1009900000F06881B0F5A02F00F07C81B0F5803FB9
:1009A00000F07C81306820F480303060306820F4C2
:1009B000802076E13068800301D56068D0B320786C
:1009C000800718D5706810F00C0F07D0706800F021
:1009D0000C0008286ED17068C0036BD430688007A3
:1009E00002D52069012825D13068616920F0F8001E
:1009F00040EAC1003060207800071FD4207840070B
:100A000032D4E56995B1706800F00C00082840F018
:100A10008F80012D0ED07068216A00F480328A42E6
:100A200008D1616A00F47010884203D1002002B03E
:100A3000BDE8F081012002B0BDE8F081A069002886
:100A400062D00020C4F242200121C0F88014FFF7D8
:100A5000C1FD0546706A800700F18C80FFF7BAFD82
:100A6000401B0228F6D92AE1F06910F0805808D11D
:100A7000F06940F08050F061F06900F08050009023
:100A8000009847F20007C4F200073868C00529D46F
:100A9000386840F480703860FFF79CFD054600BF61
:100AA0003868C0051ED4FFF795FD401B6428F7D9B0
:100AB00005E100BF2069002840F20000C4F2422096
:100AC00000F0828001210160FFF784FD054600BF30
:100AD000306880073FF588AFFFF77CFD401B022898
:100AE000F6D9ECE0E068002800F08080052800F0EE
:100AF0009780012800F09880306A20F00100306271
:100B0000306A20F0040092E00020C4F2422000216C
:100B1000C0F88014FFF75EFD054600BF706A8007CD
:100B20007FF56CAFFFF756FD401B0228F6D9C6E0F3
:100B30000027C4F2422700203866FFF74BFD022D44
:100B400005460BD13068800140F1BE80FFF742FDC1
:100B5000401B02284FF00300F4D968E73068800199
:100B60007FF564AFFFF736FD401B02284FF003000E
:100B7000F4D95CE740F20800C2F20000006844F6D5
:100B8000D351C1F26201A0FB0101480A019000BFEC
:100B900000BF0198411E002801913FF42FAF00BF14
:100BA0000198411E002801913FF428AF00BF019831
:100BB000411E002801913FF421AF00BF0198411E62
:100BC00000280191E4D119E700210160FFF702FD3F
:100BD000054600BF306880077FF50DAFFFF7FAFCD0
:100BE000401B02284FF00300F4D920E7306A20F0C0
:100BF00001003062306A20F004003062FFF7EAFC46
:100C0000054641F2883700BF306A800720D5FFF7DC
:100C1000E1FC401BB8424FF00300F5D907E700BFE5
:100C2000306A40F004003062306A40F00100306207
:100C3000FFF7D0FC054641F2883700BF306A8007D5
:100C400006D4FFF7C7FC401BB842F7D937E000BF16
:100C5000B8F1000F7FF4D5AEF06920F08050F0615C
:100C6000CFE600BF306820F480303060306820F478
:100C700080203060FFF7AEFC054600BF306880037F
:100C80007FF59DAEFFF7A6FC401B64284FF00300E4
:100C9000F4D9CCE6306840F480203060306840F40D
:100CA00080303060FFF796FC054600BF3068800357
:100CB0003FF585AEFFF78EFC401B6428F6D9032074
:100CC00002B0BDE8F08100BF206AB0F5803F05D1D9
:100CD0007168A26821F40031114371607168626A21
:100CE00021F4741110430843706001203866FFF747
:100CF00071FC0446306880013FF598AEFFF76AFC4E
:100D0000001B02284FF00300F4D990E670B538B10B
:100D10000446406A30B10020206104F1140007E06D
:100D2000012070BD6068B0F5827F03D004F11C0023
:100D3000002101600026A66294F8510020B92046E7
:100D400084F8506000F038F8022084F8510094E8EC
:100D5000071001F48271036802F4044223F0400397
:100D60000360236911440CF40062114403F0020291
:100D70006369114403F00102A369E569114403F4B6
:100D80000072114405F03802256A114405F0800212
:100D9000A56A114305F4005211430160042101EAE0
:100DA00013414160C16921F40061C16101206665A0
:100DB00084F85100304670BD80B586B0014640F6DB
:100DC0000000C4F20100096800F520530022994296
:100DD000049201D006B080BD41F21801C4F20201B4
:100DE0000A6842F480520A600A6802F48052019252
:100DF000019A0A6842F004020A60096801F00401DD
:100E000001910199A02102910221039103210591F1
:100E100002A9FFF7C9FA06B080BD0000411E0020FC
:100E2000B0EB116F1CBF012070474EF21002CEF2E2
:100E3000000251604EF62351CEF20001F0230B70F8
:100E400007219060116070477047000070470000F4
:100E5000B0B582B0044600680168C368426901F019
:100E60002F05202D03F0200506D12DB1204602B01C
:100E7000BDE8B04001F048B95FEA017C1EBF02F056
:100E8000010E03F4907212EB0E0255D1226B012A6F
:100E900005D111F0100218BF13F0100236D10A0666
:100EA00022D513F080021FD094F84110212941D19E
:100EB000A168B1F5805F03D12169002900F0728239
:100EC000216A4A1C226209784160E18C01390A04D6
:100ED000E1842FD1C16821F08001C160C16841F077
:100EE0004001C16002B0B0BD490623D513F04001F6
:100EF00020D0C16821F04001C1602021204684F843
:100F0000411002B0BDE8B04000F00CBB00210191DF
:100F1000016801914168019101994169490600F117
:100F20008F80A18DE28DE38D002B1CBF891A5FEAB3
:100F300001420CD102B0B0BDCA0718BF13F48072D1
:100F400040F038814A0700F13B8140E1206850E8D9
:100F5000030F226820F4907042E80303DBB120689D
:100F600050E8030F226820F4907042E8030393B125
:100F7000206850E8030F226820F4907042E80303D1
:100F80004BB1206850E8030F226820F4907042E8CB
:100F90000303002BDAD1206850E8050F226820F007
:100FA000010042E80503DBB1206850E8050F226824
:100FB00020F0010042E8050393B1206850E8050FD6
:100FC000226820F0010042E805034BB1206850E898
:100FD000050F226820F0010042E80503002BDAD15A
:100FE000202084F8420000202063206850E8030F8E
:100FF000226820F0100042E80303DBB1206850E8CB
:10100000030F226820F0100042E8030393B1206828
:1010100050E8030F226820F0100042E803034BB1B0
:10102000206850E8030F226820F0100042E8030314
:10103000002BDAD1022289B220466263B4E000BFFD
:10104000E16B0A68526893B2002B3FF473AFA58D31
:10105000AB42BFF46FAFE2858969202900F09D8023
:1010600050E8030F216820F4807041E80302EAB1E0
:10107000206850E8030F216820F4807041E80302E3
:10108000A2B1206850E8030F216820F4807041E885
:1010900003025AB1206850E8030F216820F48070E1
:1010A00041E8030212B12068DAE700BF206850E887
:1010B000050F216820F0010041E80502DAB120683F
:1010C00050E8050F216820F0010041E8050292B1C7
:1010D000206850E8050F216820F0010041E8050272
:1010E0004AB1206850E8050F216820F0010041E86E
:1010F0000502002ADAD1206850E8050F216820F0A7
:10110000400041E80502DAB1206850E8050F216887
:1011100020F0400041E8050292B1206850E8050F38
:10112000216820F0400041E805024AB1206850E8FB
:10113000050F216820F0400041E80502002ADAD1BD
:10114000202084F8420000202063206850E8030F2C
:10115000216820F0100041E80302DAB1206850E86D
:10116000030F216820F0100041E8030292B12068CB
:1011700050E8030F216820F0100041E803024AB153
:10118000206850E8030F216820F0100041E80302B6
:10119000002ADAD1E06BFFF775F802206063A08DBA
:1011A000E18D401A81B2204602B0BDE8B040FFF7A1
:1011B0004BBE00BF626C42F0010262644A0706D572
:1011C000BEF1000F03D0626C42F0020262648A0733
:1011D00006D5BEF1000F03D0626C42F004026264D7
:1011E000BCF1000F06D555EA0E0203D0626C42F046
:1011F00008026264626C002A3FF49CAE11F0200188
:1012000018BF002D03D0204600F07EFF2068416902
:10121000626C01F0400102F00802891800F0A2801F
:1012200050E8030F216820F4907041E80302C2B334
:10123000206850E8030F216820F4907041E8030211
:101240007AB3206850E8030F216820F4907041E8D9
:10125000030232B3206850E8030F216820F4907035
:1012600041E80302EAB12068DAE700BF206850E8ED
:10127000050F216820F0010041E80502DAB120687D
:1012800050E8050F216820F0010041E8050292B105
:10129000206850E8050F216820F0010041E80502B0
:1012A0004AB1206850E8050F216820F0010041E8AC
:1012B0000502002ADAD1206B012824D1206850E8E9
:1012C000030F216820F0100041E80302DAB1206822
:1012D00050E8030F216820F0100041E8030292B1AA
:1012E000206850E8030F216820F0100041E8030255
:1012F0004AB1206850E8030F216820F0100041E84F
:101300000302002ADAD1202084F842000020206362
:101310002068416949063FD550E8050F216820F053
:10132000400041E805022AB3206850E8050F216813
:1013300020F0400041E80502E2B1206850E8050FC6
:10134000216820F0400041E805029AB1206850E889
:10135000050F216820F0400041E8050252B12068E5
:10136000DAE700BF2046FFF771FD0020606402B09D
:10137000B0BD00BFE06B78B142F2FD01C0F60001E4
:101380004163FEF7A3FF00283FF4D4ADE06B416B4F
:1013900002B0BDE8B0400847204602B0BDE8B0400A
:1013A000FFF754BD216A31F8022B6FF35F224260D0
:1013B00021628AE5002804BF0120704710B5044669
:1013C00090F8410028B9002084F84000204600F041
:1013D00061F8242084F841002068D4E90212C3682F
:1013E00023F40053C360036923F440531A4302619A
:1013F000D4E904231143C268194341F20C639A43B0
:101400001143C1604169A26921F44071114343F65F
:101410000002C4F201029042416103D0FFF774FA66
:1014200002E000BFFFF784FA626819214843910087
:10143000B0FBF1F048F21F51C5F2EB11A0FB012304
:101440005A096FF0630302FB0300322303EB001021
:10145000A0FB0101F02303EA5113206803EB021201
:10146000C1F3431111448160016921F4904101618C
:10147000416921F02A014161C16841F40051C16014
:1014800000202021606484F8411084F842106063D9
:1014900010BD000070B586B040F60044C4F20104EF
:1014A0000068A4F5444100268842049602D006B0A4
:1014B00070BD00BF41F21800C4F20200416802ADE5
:1014C00041F480214160416801F48021019101993A
:1014D000016841F0080101600068294600F0080039
:1014E000019001984FF48060029002200390032045
:1014F00005902046FEF758FF4FF40060CDE9020644
:10150000204629460496FEF74FFF2720002100229F
:10151000FFF7DEF82720FFF7CBF806B070BD00001C
:101520007047000070470000FEE700002DE9F04121
:1015300040F60004C4F2010417460E460546204654
:10154000022100229846FFF73FF82A2000F08CFC89
:10155000204602210122FFF737F80235A8B2000A1F
:1015600000F082FCE8B200F07FFCBD1CA8B2000ACB
:1015700000F07AFCE8B200F077FC2046022100225D
:10158000FFF722F82B2000F06FFC204602210122F9
:10159000FFF71AF8751CA8B2000A00F065FCE8B263
:1015A00000F062FC08F10105A8B2000A00F05CFC42
:1015B000E8B200F059FC204602210022FFF704F8AF
:1015C0002C2000F051FC204602210122BDE8F04110
:1015D000FEF7FABF70B50546002000217F229F2349
:1015E000FFF7A4FF2C0A4FF4A046EDB2204600F00E
:1015F0003BFC284600F038FC013EF7D170BD0000EE
:10160000B0B584B041F21800C4F20200016840F69F
:10161000000441F0040101600068C4F2010400F01C
:1016200004000090009840F2A33000900120CDE922
:1016300001000320039069462046FEF7B5FE2046D0
:1016400020210122FEF7C0FF204680210122FEF763
:10165000BBFF04F5806528464FF480710122FEF738
:10166000B3FF204602210122FEF7AEFF20460121F2
:101670000122FEF7A9FF28464FF400710122FEF770
:10168000A3FF04B0B0BD0000B0B584B041F21800B3
:10169000C4F20200016840F6000441F00401016058
:1016A0000068C4F2010400F004000090009840F2C9
:1016B000A33000900120CDE901000320039069468A
:1016C0002046FEF771FE204620210122FEF77CFF16
:1016D000204680210122FEF777FF04F58065284629
:1016E0004FF480710122FEF76FFF20460221012294
:1016F000FEF76AFF204601210122FEF765FF28461A
:101700004FF400710122FEF75FFF20460121002205
:10171000FEF75AFF6420FEF733FE20460121012226
:10172000FEF752FF6420FEF72BFE28464FF40071AF
:101730000122FEF749FF7820FEF722FE2046022113
:101740000022FEF741FF112000F08EFB204602210F
:101750000122FEF739FF7820FEF712FE2046022113
:101760000022FEF731FFB12000F07EFB204602216F
:101770000122FEF729FF052000F076FB3C2000F057
:1017800073FB3C2000F070FB204602210022FEF794
:101790001BFFB22000F068FB204602210122FEF769
:1017A00013FF052000F060FB3C2000F05DFB3C20B7
:1017B00000F05AFB204602210022FEF705FFB3206D
:1017C00000F052FB204602210122FEF7FDFE05201B
:1017D00000F04AFB3C2000F047FB3C2000F044FBBB
:1017E000052000F041FB3C2000F03EFB3C2000F0D7
:1017F0003BFB204602210022FEF7E6FEB42000F06B
:1018000033FB204602210122FEF7DEFE032000F01A
:101810002BFB204602210022FEF7D6FEC02000F05E
:1018200023FB204602210122FEF7CEFE282000F0F5
:101830001BFB082000F018FB042000F015FB2046DD
:1018400002210022FEF7C0FEC12000F00DFB204661
:1018500002210122FEF7B8FEC02000F005FB204661
:1018600002210022FEF7B0FEC22000F0FDFA204661
:1018700002210122FEF7A8FE0D2000F0F5FA00205B
:1018800000F0F2FA204602210022FEF79DFEC3205E
:1018900000F0EAFA204602210122FEF795FE8D2093
:1018A00000F0E2FA2A2000F0DFFA204602210022AE
:1018B000FEF78AFEC42000F0D7FA2046022101225A
:1018C000FEF782FE8D2000F0CFFAEE2000F0CCFA79
:1018D000204602210022FEF777FEC52000F0C4FA60
:1018E000204602210122FEF76FFE1A2000F0BCFA0A
:1018F000204602210022FEF767FE362000F0B4FAEF
:10190000204602210122FEF75FFE002000F0ACFA23
:10191000204602210022FEF757FEE02000F0A4FA44
:10192000204602210122FEF74FFE042000F09CFA1F
:10193000222000F099FA072000F096FA0A2000F021
:1019400093FA2E2000F090FA302000F08DFA252036
:1019500000F08AFA2A2000F087FA282000F084FAA2
:10196000262000F081FA2E2000F07EFA3A2000F0C6
:101970007BFA002000F078FA012000F075FA0320CD
:1019800000F072FA132000F06FFA204602210022C4
:10199000FEF71AFEE12000F067FA2046022101223C
:1019A000FEF712FE042000F05FFA162000F05CFA49
:1019B000062000F059FA0D2000F056FA2D2000F014
:1019C00053FA262000F050FA232000F04DFA272089
:1019D00000F04AFA272000F047FA252000F044FAE8
:1019E0002D2000F041FA3B2000F03EFA002000F0EC
:1019F0003BFA012000F038FA042000F035FA1320F9
:101A000000F032FA204602210022FEF7DDFD3A20E6
:101A100000F02AFA204602210122FEF7D5FD05201A
:101A200000F022FA204602210022FEF7CDFD2920F7
:101A300000F01AFA204602210122FEF7C5FD04B08B
:101A4000B0BD00002DE9F04F8DB0179D0B930C46F3
:101A50006E082B0901219046720718BF01EB151380
:101A600000EB55014A1E6119013903FB05F792B2DB
:101A70008BB221460C90FFF759FD002F089700F01C
:101A8000CB81A5F10C00C1B2800140EA9100C0B247
:101A90000528069000F2C08106990120884010F0C8
:101AA0002B0F00F0B9811899A8F1200000290B999B
:101AB0003246C0B24FEA11290A9600F0AB8042F6D6
:101AC0008E7100EB4006C0F6000101EB0611039198
:101AD00042F69E11C0F6000101EB0011029144F2A2
:101AE0005E1140F60007C0F60001DDF830B00023BB
:101AF000C4F2010701EB80100496019009E000BFD9
:101B0000DDF830B0099C079B08980133834200F050
:101B100083810698079303280AD001280AD058B970
:101B2000049842F22A51C0F6000101EB800004E063
:101B3000039802E0029800E00198184490F80080B1
:101B4000601C099080B20594040A4FF0000A00BF9F
:101B500028FA0AF0C0074DD0384602210022FEF7CD
:101B600033FD2A2000F080F9384602210122FEF7D9
:101B70002BFD0BF10206B0B2050A284600F074F9FD
:101B8000F6B2304600F070F9284600F06DF93046A4
:101B900000F06AF9384602210022FEF715FD2B20DD
:101BA00000F062F9384602210122FEF70DFD2046C1
:101BB00000F05AF90998C5B2284600F055F92046B8
:101BC00000F052F9284600F04FF938460221002271
:101BD000FEF7FAFC2C2000F047F9384602210122DA
:101BE000FEF7F2FC484600F03FF90B98C0B200F057
:101BF0003BF90A9A0BF1010B0C991FFA8BF0401A72
:101C000090423FF47DAF0AF1010ABAF1080F9FD16B
:101C1000059C78E744F25E11C0F6000101EB8016E6
:101C200042F22A5100EB4002C0F6000101EB8201B2
:101C3000DDF858A0099142F69E11C0F600014FEA66
:101C40001A2B002701EB00104FF000080C920790B0
:101C5000069868B10B9901280ED0032810D10C9872
:101C600042F68E72C0F6000202EB0010384408E023
:101C700009980B99384404E00798384401E000BF04
:101C8000304604780D4614F00100484604BF58461B
:101C9000554600F0E9F8E8B200F0E6F8404608F1F1
:101CA00001000A9AC0B2B0FBF2F101FB1200002859
:101CB00000F0A88014F00200484608BF58460B9D6B
:101CC00008BF554600F0D0F8E8B200F0CDF8404625
:101CD0000A9A08F10200C0B2B0FBF2F101FB120057
:101CE000002800F08F8014F00400484608BF5846D2
:101CF0000B9D08BF554600F0B7F8E8B200F0B4F805
:101D000040460A9A08F10300C0B2B0FBF2F101FBB1
:101D10001200002876D014F00800484608BF584644
:101D20000B9D08BF554600F09FF8E8B200F09CF804
:101D300040460A9A08F10400C0B2B0FBF2F101FB80
:101D4000120000285ED014F01000484608BF584624
:101D50000B9D08BF554600F087F8E8B200F084F804
:101D600040460A9A08F10500C0B2B0FBF2F101FB4F
:101D70001200002846D014F02000484608BF5846FC
:101D80000B9D08BF554600F06FF8E8B200F06CF804
:101D900040460A9A08F10600C0B2B0FBF2F101FB1E
:101DA000120078B314F04000484608BF58460B9D17
:101DB00008BF554600F058F8E8B200F055F80A9A06
:101DC00008F10700C0B2B0FBF2F101FB1200C8B18C
:101DD00014F08000484608BF58460B9C08F10805DF
:101DE00008BF544600F040F8E0B200F03DF80A9A0F
:101DF000E8B2B0FBF2F101FB1208B8F1000F18BF16
:101E0000A84601E04FF0000808980137013806F1B4
:101E1000010608907FF41CAF0DB0BDE8F08F000004
:101E20002DE9F04F83B09B461378CBB1DDE90C9AD6
:101E3000DDF838800D4606464FEA5A07541E00BFAB
:101E4000B0B2DAB229465B46CDE9009ACDF80880F7
:101E5000FFF7F8FDA3783E44002B04F10104EFD115
:101E600003B0BDE8F08F000070B540F60005C4F285
:101E7000010505F58064064620464FF48071002276
:101E8000FEF7A2FB284620210022FEF79DFBF20967
:101E900028468021FEF798FB284620210122FEF7E4
:101EA00093FB284620210022FEF78EFBC6F380120A
:101EB00028468021FEF788FB284620210122FEF7D4
:101EC00083FB284620210022FEF77EFBC6F340124A
:101ED00028468021FEF778FB284620210122FEF7C4
:101EE00073FB284620210022FEF76EFBC6F300128A
:101EF00028468021FEF768FB284620210122FEF7B4
:101F000063FB284620210022FEF75EFBC6F3C002D9
:101F100028468021FEF758FB284620210122FEF7A3
:101F200053FB284620210022FEF74EFBC6F3800219
:101F300028468021FEF748FB284620210122FEF793
:101F400043FB284620210022FEF73EFBC6F3400259
:101F500028468021FEF738FB284620210122FEF783
:101F600033FB284620210022FEF72EFB06F001025B
:101F700028468021FEF728FB284620210122FEF773
:101F800023FB20464FF480710122BDE87040FEF72C
:101F90001BBB00002DE9F04784B041F21800C4F2E9
:101FA0000200016840F6004441F020010160016830
:101FB000C4F2010401F02001009100990168A4F528
:101FC000806541F0040101600168012201F0040113
:101FD0000091009901684FF0030841F00801016089
:101FE0000068032100F008000090009828464FF098
:101FF0000109FEF7E9FA2846502100224FF0000AB5
:10200000FEF7E2FA20464FF488510122FEF7DCFA8F
:1020100020464FF408510022FEF7D6FA53206E46B0
:102020008DE801060227284631460397FEF7BCF9E2
:1020300020463146CDE9008ACDF80890FEF7B4F984
:102040004FF44C508DE80106204631460397FEF7C9
:10205000ABF904B0BDE8F08710B540F2780043F268
:10206000000CC2F20000C4F2010C4FF482724FF473
:10207000004300214FF4007E1824C0E900C20A2268
:10208000C0E90231C0E90411C0E906E4C0E9081161
:10209000C0E90A12FEF73AFE002808BF10BDBDE8ED
:1020A0001040FEF7E9B8000080B540F2D00044F6D9
:1020B0000001C2F20000C4F2000100234FF00C0C3A
:1020C0004FF4165280E80E00C0E90333C0E905C39F
:1020D000C361FFF76FF9002808BF80BDBDE88040ED
:1020E000FEF7CAB8FEE70000FEE7000070470000F8
:1020F00070470000FEF774BA70470000406A002184
:10210000C185C184FEF7A2BE81B090F84210222999
:1021100020D18368B3F5805F08D10169002965D0BB
:1021200000F128010A6803685B680AE0014651F87B
:10213000282F13B90369002BF5D003685B6803F0FF
:102140007F0313700A6801320A60C18D01390A04E5
:10215000C18501D001B070470168CA6822F0200231
:10216000CA60CA6822F48072CA604A6922F0010219
:102170004A61202280F8422000224263036B012B37
:102180003ED1026351E8031F026821F0100142E8CA
:1021900003130168DBB151E8031F026821F010014D
:1021A00042E80313016893B151E8031F026821F06C
:1021B000100142E8031301684BB151E8031F0268A4
:1021C00021F0100142E803130168002BDAD10A68FC
:1021D000D20606D5002200920A6800924968009152
:1021E0000099818D01B0FEF72FBE00BF0168826AA1
:1021F00049686FF35F2122F8021B8262A5E700BFE6
:1022000001B0FFF78DB9000040F2D000C2F200002B
:10221000FEF71EBEFEE70000B0B5054608461446B0
:1022200000F04AF8284600F047F82046BDE8B040E4
:1022300000F042B880B540F60040C4F201004FF40F
:1022400000510022FEF7C0F96FF0950000BF00BFFB
:1022500000BF00BF00BF00BF00BF00BF00BF00BF86
:1022600000BF00BF00BF00BF00BF00BF00BF00BF76
:1022700000BF00BF00BF00BF00BF00BF00BF00BF66
:1022800000BF00BF00BF00BF00BF00BF00BF00BF56
:1022900000BF00BF00BF00BF00BF00BF00BF00BF46
:1022A00000BF00BF00BF00BF00BF00BF00BF323093
:1022B00000BFCBD180BD000070B540F6004504469C
:1022C000C4F20105072629E028464FF400510022F8
:1022D000FEF77AF900BF00BF00BF00BF00BF00BF1C
:1022E00000BF00BF00BF00BF00BF00BF00BF00BFF6
:1022F00000BF00BF00BF00BF00BF00BF00BF00BFE6
:1023000000BF00BF00BF00BF00BF00BF00BF00BFD5
:10231000013E00BF701C00BF08BF70BD28464FF4CF
:1023200000510122FEF750F900BF00BF00BF00BFFF
:1023300000BF00BF00BF00BF00BF00BF24FA06F00F
:1023400000BFC00700BFBFD000BF00BF00BF00BFBD
:1023500000BF00BF00BF00BF00BF00BF00BF00BF85
:1023600000BF00BF00BF00BF00BF00BF00BF2846C6
:102370004FF40051002200BFFEF726F9BEE700002F
:1023800070B540F60004C4F2010404F580652846E7
:102390000121FEF713F940F27006C2F20006B07098
:1023A00028460221FEF70AF9B178F07039B932797E
:1023B000012A04D13278012323EA0202327038B9AB
:1023C0007279012A04D17278012323EA0202727021
:1023D00032783171707120461021002A18BF012215
:1023E000FEF7F2F872782046002A18BF0122402139
:1023F000BDE87040FEF7E8B892B0FEF7FFF80024A1
:102400000120CDE90D44CDE90B4408900C904FF428
:10241000E0104FF480310225119008A8CDE909148D
:10242000CDE90F51FEF798FA20B1EFF3108072B6A4
:10243000FEE700BF0F20CDE903054FF48060CDE932
:10244000060403A802210594FEF77EF920B1EFF3FC
:10245000108072B6FEE700BFFFF79CFDFFF724FE79
:10246000FFF7FAFDFFF7CCF8FFF70EF90020002583
:10247000FFF7B0F8102624A4FF2000210022FFF768
:10248000CBFE0020FF210022FFF7C6FE0020002126
:10249000FF22FFF7C1FEFF20FF210022FFF7BCFE55
:1024A0000020FF21FF22FFF7B7FEFF200021FF22BF
:1024B000FFF7B2FEFF20FF21FF22FFF7ADFE002055
:1024C00000210022FFF7A8FE002000210022FFF7D4
:1024D000A3FE002000210022FFF79EFEEFF31080F4
:1024E00072B6FFF7A7FE62B6FFF74AFF0A200A217D
:1024F00022464FF6FF73CDE900560295FFF790FC98
:102500003220FDF73DFFB7E748454C4C4F00000037
:102510000000000000000000010203040607080993
:10252000000000000102030401020000000000009E
:102530000000000000000000040404040400000483
:10254000000014140A000000000000000000000059
:102550000A0A1F0A0A1F0A0A000000040E150506CF
:102560000C14150E0400000012150D152E2C2A1245
:1025700000000000040A0A361515291600000202A0
:10258000010000000000000000001008080404041E
:1025900004040808100002040408080808080404D9
:1025A000020000000004150E0E15040000000000DB
:1025B0000008083E080800000000000000000000BD
:1025C00000000202010000000000003F00000000C7
:1025D00000000000000000000000000200000020D9
:1025E0001010080804040202010000000E1111116D
:1025F0001111110E00000000040604040404040E6E
:10260000000000000E1111080402011F000000006C
:102610000E11100C1010110E00000000080C0C0A16
:10262000091F081C000000001F01010F1110110EEE
:10263000000000000C12010D1311110E000000002B
:102640001E10080804040404000000000E11110EFE
:102650001111110E000000000E11111916100906BB
:102660000000000000000400000000040000000062
:102670000000000400000004040000001008040230
:10268000020408100000000000003F003F000000AE
:1026900000000000020408101008040200000000FE
:1026A0000E11110804040004000000001C22292D52
:1026B0002D1D221C0000000004040C0A0A1E123307
:1026C000000000000F12120E1212120F0000000084
:1026D0001E1101010101110E000000000F12121263
:1026E0001212120F000000001F120A0E0A02121F1F
:1026F000000000001F120A0E0A020207000000007C
:102700001C1201013911120C000000003312121EBC
:1027100012121233000000001F0404040404041FFA
:10272000000000003E080808080808080907000023
:1027300037120A060A1212370000000007020202CE
:102740000202223F000000003B1B1B1B1515153524
:10275000000000003B1216161A1A121700000000A3
:102760000E1111111111110E000000000F12120EA6
:1027700002020207000000000E1111111117190EBC
:10278000180000000F12120E0A121237000000008B
:102790001E1101060810110F000000001F1504048F
:1027A0000404040E00000000331212121212120C64
:1027B000000000003312120A0A0C0404000000009A
:1027C000151515150E0A0A0A000000001B0A0A0456
:1027D000040A0A1B000000001B0A0A0A0404040E73
:1027E000000000001F0908040402121F00001C045E
:1027F00004040404040404041C000002020404048D
:102800000808081010000E0808080808080808083A
:102810000E00040A0000000000000000000000009C
:102820000000000000000000003F02040000000063
:1028300000000000000000000000000C121C123C10
:10284000000000030202020E1212120E000000002D
:102850000000001C1202120C000000181010101CC6
:102860001212123C000000000000000C121E021C9C
:10287000000000182404041E0404041E00000000CC
:102880000000003C120C021C221C00030202020E7B
:102890001212123700000004040000060404040EA3
:1028A000000000080800000C0808080808070003DA
:1028B0000202021A0A060A130000000704040404B4
:1028C0000404041F000000000000000F151515157A
:1028D000000000000000000F12121237000000007C
:1028E0000000000C1212120C000000000000000F8B
:1028F0001212120E020700000000001C1212121C1D
:10290000103800000000001B060202070000000053
:102910000000001E020C101E000000000004041E37
:102920000404041C000000000000001B1212123CF2
:10293000000000000000001B0A0A04040000000060
:1029400000000015150E0A0A000000000000001B20
:102950000A040A1B000000000000003312120C08D9
:10296000040300000000001E0804041E00001808F4
:102970000808080C080808081800080808080808CB
:1029800008080808080806040404040804040404E9
:102990000600160900000000000000000000000012
:1029A0000000000000000000000000000000000027
:1029B0000008080808080808000018180000004867
:1029C0006C24120000000000000000000000000065
:1029D000002424247F1212127F1212120000000021
:1029E000081C2A2A0A0C1828282A2A1C0808000071
:1029F0000022251515152A585454542200000000B1
:102A0000000C1212120A76252911916E00000006A0
:102A10000604030000000000000000000000004069
:102A200020101008080808080810102040000002B4
:102A3000040808101010101010080804020000000C
:102A4000000008086B1C1C6B080800000000000058
:102A50000000080808087F080808080000000000B7
:102A60000000000000000000000006060403000053
:102A7000000000000000FE00000000000000000058
:102A8000000000000000000000000606000000003A
:102A900080404020201010080804040202000000BA
:102AA00000182442424242424242241800000000E0
:102AB00000080E08080808080808083E0000000082
:102AC000003C4242422020100804427E00000000E8
:102AD000003C4242201820404042221C00000000DE
:102AE00000203028242422227E20207800000000AC
:102AF000007E0202021A26404042221C0000000012
:102B000000382402021A2642424224180000000023
:102B1000007E2222101008080808080800000000A3
:102B2000003C4242422418244242423C0000000041
:102B300000182442424264584040241C0000000017
:102B40000000000018180000000018180000000025
:102B50000000000000080000000000080804000059
:102B6000004020100804020408102040000000006B
:102B7000000000007F0000007F0000000000000057
:102B80000002040810204020100804020000000089
:102B9000003C42424640201010001818000000007F
:102BA000001C225A555555552D42221C000000008C
:102BB000000808181414243C224242E700000000D8
:102BC000001F2222221E22424242221F0000000039
:102BD000007C4242010101010142221C0000000070
:102BE000001F2242424242424242221F0000000095
:102BF000003F4212121E12120242423F0000000029
:102C0000003F4212121E12120202020700000000D0
:102C1000003C2222010101712122221C000000003F
:102C200000E7424242427E42424242E70000000048
:102C3000003E0808080808080808083E00000000D0
:102C4000007C10101010101010101010110F000048
:102C5000007722120A0E0A121222227700000000C8
:102C600000070202020202020202427F000000008C
:102C70000077363636362A2A2A2A2A6B00000000C8
:102C800000E346464A4A5252526262470000000040
:102C9000001C2241414141414141221C00000000F1
:102CA000003F424242423E02020202070000000090
:102CB000001C2241414141414D53321C6000000043
:102CC000003F4242423E1212222242C70000000050
:102CD000007C4242020418204042423E00000000B4
:102CE000007F4908080808080808081C00000000C0
:102CF00000E74242424242424242423C000000005F
:102D000000E742422224241414180808000000009E
:102D1000006B4949494955553622222200000000DE
:102D200000E7422424181818242442E70000000079
:102D300000772222141408080808081C000000006C
:102D4000007E2120101008040442423F0000007859
:102D5000080808080808080808080808780000009B
:102D60000202040408080810102020204040001E21
:102D70001010101010101010101010101E0000383D
:102D800044000000000000000000000000000000FF
:102D900000000000000000000000000000FF00062E
:102DA000080000000000000000000000000000001B
:102DB00000000000003C4278444242FC0000000059
:102DC00000030202021A26424242261A00000000B4
:102DD00000000000003844020202443800000000F5
:102DE0000060404040784442424264D80000000005
:102DF00000000000003C427E0202423C0000000055
:102E000000F08808087E08080808083E0000000056
:102E100000000000007C22221C023C42423C0000D8
:102E200000030202023A4642424242E7000000002A
:102E3000000C0C00000E08080808083E0000000006
:102E4000003030000038202020202020221E0000EA
:102E5000000302020272120A16122277000000001A
:102E6000000E0808080808080808083E00000000CE
:102E700000000000007F9292929292B70000000042
:102E800000000000003B4642424242E700000000D2
:102E900000000000003C42424242423C0000000070
:102EA00000000000001B26424242221E02070000D2
:102EB00000000000007844424242447840E00000B4
:102EC0000000000000774C040404041F0000000010
:102ED00000000000007C42023C40423E0000000036
:102EE00000000008083E080808080830000000003C
:102EF0000000000000634242424262DC0000000029
:102F00000000000000E7422424140808000000002C
:102F10000000000000EB4949555522220000000046
:102F200000000000007624181818246E000000002D
:102F30000000000000E742242414180808070000DD
:102F400000000000007E22100808447E000000C03F
:102F5000202020202010202020202020C000101021
:102F6000101010101010101010101010101000067B
:102F700008080808081008080808080806000C32A5
:102F8000C20000000000000000000000000000007F
:102F90000000000000000000000000000000000031
:102FA0000000000000000000000000000000000021
:102FB0000000000000000000000000000000000011
:102FC0000000000000006000600060006000600021
:102FD0006000600040002000200020000000000091
:102FE00000006000600060000000000000000000C1
:102FF000000060066006300398018800440000006D
:1030000000000000000000000000000000000000C0
:1030100000000000000000000000000000000000B0
:103020000000000000001002100210021002FE0753
:10303000FE0708020801080108010801FE07FE0753
:10304000040104010401040100000000000000006C
:103050000000000040004000F00158034C03CC0386
:103060004C0058007000E000C001C00140034C0358
:103070005C034C034801F0004000400000000000E9
:103080000000000000000E010A0191009100910073
:10309000510051003A00AE03A0025004500448040D
:1030A000480448048402840300000000000000007B
:1030B00000000000000038006C006C006C006C0028
:1030C0006C002C0098071C011A01330133016301C5
:1030D000E300C308C6093C07000000000000000030
:1030E00000000C001C00100010000800040000008C
:1030F00000000000000000000000000000000000D0
:1031000000000000000000000000000000000000BF
:103110000000000400020001800080004000400028
:10312000200020002000200020002000200040007F
:103130004000800080000001000200040000000048
:103140000000020004000800100010002000200011
:10315000400040004000400040004000400020008F
:103160002000100010000800040002000000000011
:10317000000000000000000000004000C00040000F
:10318000460C4E0FD001F0015E0F460C400040008F
:1031900040000000000000000000000000000000EF
:1031A000000000000000000000000000400040009F
:1031B000400040004000FE0F400040004000400042
:1031C00040000000000000000000000000000000BF
:1031D00000000000000000000000000000000000EF
:1031E00000000000000000000000000000000000DF
:1031F00000000C001C00100010000800040000007B
:1032000000000000000000000000000000000000BE
:10321000000000000000FE070000000000000000A9
:10322000000000000000000000000000000000009E
:10323000000000000000000000000000000000008E
:10324000000000000000000000000000000000007E
:1032500000001C001C001C0000000000000000001A
:1032600000000004000600020003000100018000CD
:10327000800040004000600020002000100010008E
:10328000080008000C000400060002000000000016
:103290000000000000000000F00098010C030C0387
:1032A00006060606060606060606060606060606BE
:1032B0000C030C039801F000000000000000000067
:1032C000000000000000000040007C006000600082
:1032D00060006000600060006000600060006000EE
:1032E000600060006000FC030000000000000000BF
:1032F0000000000000000000F80084010203060343
:103300000603000300018001C000600020001000DF
:10331000080204020602FE03000000000000000094
:1033200000000000000000007800C6008601860151
:1033300080018001C00070008001000100030003D3
:10334000060306038601F8000000000000000000EC
:10335000000000000000000080018001C001A00109
:10336000A00190018801880184018201FE0F800183
:10337000800180018001E0070000000000000000E3
:103380000000000000000000FC0304000400040032
:1033900004000400F4008C0104030003000306038E
:1033A000060382018401F800000000000000000014
:1033B0000000000000000000E00118030C030C00F6
:1033C00004000600E60116030E06060606060606BB
:1033D00004060C021803F0000000000000000000CA
:1033E0000000000000000000F8070C0604020401C1
:1033F00000010001800080004000400040006000AB
:10340000600060006000600000000000000000003C
:103410000000000000000000F8010C03060606068C
:1034200006060C021C03F000C8010C030606060683
:10343000060606060C03F001000000000000000074
:103440000000000000000000F0000C010C03060268
:1034500006060606060606078C0678060006000322
:1034600000030C018C017800000000000000000047
:10347000000000000000000000000000000000004C
:103480000000E000E000E00000000000000000009C
:103490000000E000E000E00000000000000000008C
:1034A000000000000000000000000000000000001C
:1034B000000060006000000000000000000000004C
:1034C00000000000600060004000200020000000BC
:1034D0000000000000000004000200018000400025
:1034E0002000100008000400080010002000400028
:1034F0008000000100020004000000000000000045
:1035000000000000000000000000000000000000BB
:103510000000FE07000000000000FE0700000000A1
:10352000000000000000000000000000000000009B
:10353000000000000000040008001000200040000F
:103540008000000100020004000200018000400031
:10355000200010000800040000000000000000002F
:103560000000000000000000E0031806040C040C3A
:103570000C0C0C0C000780014000400040000000D3
:103580000000E000E000E00000000000000000009B
:10359000000000000000E00018030C02CC056405E8
:1035A0006605A605B604B604B604B604B602E40180
:1035B0000C040C021803F0000000000000000000E2
:1035C0000000000000000000600060005000D0001B
:1035D00090009000880088010801F80104030403AA
:1035E0000402020202060F0F0000000000000000AB
:1035F0000000000000000000FE008C030C030C0320
:103600000C030C038C01FC000C030C020C060C06D2
:103610000C060C060C03FE01000000000000000078
:103620000000000000000000E00318030C060C047A
:103630000404060006000600060006000600060454
:103640000C040C021803F000000000000000000051
:1036500000000000000000007F008C010C030C0340
:103660000C060C060C060C060C060C060C060C06CA
:103670000C030C038C017F00000000000000000020
:103680000000000000000000FF030603060406041B
:10369000060086008600FE00860086008600060082
:1036A000060406040602FF030000000000000000FC
:1036B0000000000000000000FF03060306040604EB
:1036C000060086008600FE00860086008600060052
:1036D0000600060006001F000000000000000000B9
:1036E0000000000000000000F00018010C020C02B5
:1036F00004020600060006000600C60F06030603C5
:103700000C030C031803F000000000000000000090
:1037100000000000000000000F0F06060606060667
:10372000060606060606FE07060606060606060640
:103730000606060606060F0F000000000000000047
:103740000000000000000000FC036000600060005A
:103750006000600060006000600060006000600069
:10376000600060006000FC0300000000000000003A
:103770000000000000000000F807C000C000C0000A
:10378000C000C000C000C000C000C000C000C00039
:10379000C000C000C000C000C60066003C000000C1
:1037A0000000000000000000CF038601C6004600B4
:1037B0002600160036002E006E004600C600860069
:1037C0008601060106038F070000000000000000CC
:1037D00000000000000000001F00060006000600B8
:1037E00006000600060006000600060006000600A9
:1037F000060406040602FF030000000000000000AB
:1038000000000000000000000707860386038E0307
:103810008E034E034E034A035A035A033A033203FC
:10382000320332031203870700000000000000008B
:1038300000000000000000008E0F0C021C021C02A1
:1038400034023402640264024402C4028402840327
:103850008403040304031F020000000000000000B2
:103860000000000000000000F00098010C030C02B2
:1038700006060606060606060606060606060606E8
:103880000C020C039801F000000000000000000092
:103890000000000000000000FF0006030606060608
:1038A0000606060606068603FE000600060006005B
:1038B0000600060006001F000000000000000000D7
:1038C0000000000000000000F00098010C030C0252
:1038D0000606060606060606060606060606760618
:1038E0004C02CC039801F0008007000300000000A8
:1038F0000000000000000000FF01060306060606A7
:10390000060606060603FE004600C600860086017F
:103910000603060306060F0E00000000000000006C
:103920000000000000000000F8020C03060206027E
:1039300006000E003C00F800E003800300070206CA
:10394000020606060C03F001000000000000000063
:103950000000000000000000FE076204610861082A
:103960006000600060006000600060006000600057
:10397000600060006000F80100000000000000002E
:1039800000000000000000001E070C020C020C02E8
:103990000C020C020C020C020C020C020C020C02B7
:1039A0000C020C021801F0000000000000000000F2
:1039B00000000000000000000F07060204010401DF
:1039C0000C010C01880088009800980050005000FD
:1039D0007000300020002000000000000000000007
:1039E0000000000000000000F70E620442044604DC
:1039F000460464026402E402E4029C029C01980111
:103A00009801880188008800000000000000000084
:103A100000000000000000009E070C0108011801D2
:103A20009000B0006000200060006000D0009000B6
:103A30008801080104038E07000000000000000058
:103A400000000000000000000F0F060404020C023A
:103A500008011801B800B00070006000600060004C
:103A6000600060006000F80100000000000000003D
:103A70000000000000000000FC070C020603020129
:103A8000800180004000400020002000100018004D
:103A900008040C040402FE03000000000000000003
:103AA0000000E00320002000200020002000200073
:103AB0002000200020002000200020002000200006
:103AC00020002000200020002000E0030000000073
:103AD00000000000000004000400080008001000BE
:103AE000100010002000200040004000C0008000B6
:103AF000800000010001000200020002000400003A
:103B000000007C00400040004000400040004000B9
:103B100040004000400040004000400040004000A5
:103B2000400040004000400040007C0000000000D9
:103B3000600090000801000000000000000000008C
:103B40000000000000000000000000000000000075
:103B50000000000000000000000000000000000065
:103B60000000000000000000000000000000000055
:103B70000000000000000000000000000000000045
:103B8000000000000000000000000000FF0F000027
:103B900000001800600000000000000000000000AD
:103BA0000000000000000000000000000000000015
:103BB0000000000000000000000000000000000005
:103BC00000000000000000000000000000000000F5
:103BD0000000F0010C030C030003E0031C030E03C0
:103BE000060306038E0B7C0E0000000000000000A0
:103BF00000000000000008000E000C000C000C008B
:103C00000C00CC013C031C060C060C060C060C0632
:103C10000C060C021C03E401000000000000000080
:103C20000000000000000000000000000000000094
:103C30000000F0008C018C018601060006000600E1
:103C400006020C020C01F000000000000000000061
:103C50000000000000000002C00300030003000396
:103C6000000378038C030C03060306030603060314
:103C7000060304038C077801000000000000000028
:103C80000000000000000000000000000000000034
:103C90000000E001180308020C060C06FC070C00EB
:103CA0000C0018041802E0010000000000000000F1
:103CB0000000000000000000C00360063006300075
:103CC0003000FE01300030003000300030003000A5
:103CD000300030003000FC01000000000000000057
:103CE00000000000000000000000000000000000D4
:103CF0000000F007D8068C018C018C019801F800B7
:103D00000C00FC00CC03060306038E03F800000041
:103D100000000000000008000E000C000C000C0069
:103D20000C00EC011C030C030C030C030C030C0330
:103D30000C030C030C039E070000000000000000B1
:103D400000000000000000006000600000000000B3
:103D500040007C0060006000600060006000600067
:103D6000600060006000FC03000000000000000034
:103D70000000000000000000C001C00100000000C1
:103D80000001F0018001800180018001800180013B
:103D900080018001800180018001CC007C00000056
:103DA00000000000000008000E000C000C000C00D9
:103DB0000C008C038C008C004C006C005C008C00B0
:103DC0008C010C010C039E070000000000000000A5
:103DD00000000000000040007C0060006000600007
:103DE00060006000600060006000600060006000D3
:103DF000600060006000FC030000000000000000A4
:103E000000000000000000000000000000000000B2
:103E100000003707EE066606660666066606660654
:103E2000660666066606FF0F000000000000000040
:103E30000000000000000000000000000000000082
:103E40000000EE011C030C030C030C030C030C0319
:103E50000C030C030C039E07000000000000000090
:103E60000000000000000000000000000000000052
:103E70000000F00098010C0306060606060606067A
:103E800006060C030C03F000000000000000000018
:103E90000000000000000000000000000000000022
:103EA0000000EE011C030C060C060C060C060C06AA
:103EB0000C060C031C03EC010C000C003E0000007F
:103EC00000000000000000000000000000000000F2
:103ED000000078028C030C030603060306030603A6
:103EE000060304038C03780300030003C0070000EB
:103EF00000000000000000000000000000000000C2
:103F000000009F0358063806180018001800180013
:103F1000180018001800FF0000000000000000005A
:103F20000000000000000000000000000000000091
:103F30000000F0031C030C020C023800F000C00368
:103F4000040304038C03FC010000000000000000D7
:103F500000000000000000000000200020003000F1
:103F60003000FE0130003000300030003000300002
:103F7000300030023002E0010000000000000000CC
:103F80000000000000000000000000000000000031
:103F900008028E030C030C030C030C030C030C032C
:103FA0000C030C039C0778010000000000000000D7
:103FB0000000000000000000000000000000000001
:103FC00000001E070C020801080118019000B00053
:103FD000B000600060002000000000000000000051
:103FE00000000000000000000000000000000000D1
:103FF0000000F70E6204460464026402EC029C01B5
:1040000098019801980108000000000000000000DD
:1040100000000000000000000000000000000000A0
:104020000000BC0718011001B00060006000E00053
:104030009000080108039E07000000000000000037
:104040000000000000000000000000000000000070
:1040500000009E0708010801080190009000B000D0
:104060006000600060002000200024001C000000B0
:104070000000000000000000000000000000000040
:104080000000FC018401C4004400600020003000F6
:10409000180208020C03FC010000000000000000F0
:1040A000000000038000800080008000800080000D
:1040B00080008000400020004000800080008000E0
:1040C000800080008000800080000003000040002D
:1040D00040004000400040004000400040004000E0
:1040E00040004000400040004000400040004000D0
:1040F0004000400040004000400040004000000000
:1041000000000C0010001000100010001000100043
:1041100010001000200040002000100010001000CF
:10412000100010001000100010000C000000000033
:104130001C002204C20480030000000000000000F4
:10414000000000000000000000000000000000006F
:10415000000000000000000000000000000000005F
:10416000000000000000000000000000000000004F
:10417000000000000000000000000000000000003F
:10418000000000000000000000000000000000002F
:10419000000000000000000000000000000000001F
:1041A0000000000000000000C001C001C001C0010B
:1041B000C001C001C001800080008000800080003C
:1041C0008000800000000000000000008001C003AB
:1041D000C00380010000000000000000000000009B
:1041E00000000000E01CE01CF01E700E38071803F1
:1041F0000801840000000000000000000000000032
:1042000000000000000000000000000000000000AE
:10421000000000000000000000000000000000009E
:1042200000000000000000000000201020102010FE
:1042300020102010FE7FFE7F1008100810081008C4
:10424000100810081008FE7FFE7F08040804080408
:104250000804080400000000000000000000000046
:1042600000000000000000010001C00760191031CB
:1042700018311839183938017001E001C00380077E
:10428000000F001D003900311C311C310C310C11A4
:10429000180DE0070001000100010000000000000F
:1042A000000000000000000000001C103618630829
:1042B000630C63046304630263026301361D9C376D
:1042C0008022806340634063206320633063102258
:1042D0001836081C0000000000000000000000006C
:1042E00000000000000000000000F00098018C01B8
:1042F0008C018C018C018C00CC007800183E1C08CD
:104300003608320863046304C304C30383430643CB
:104310008E26781C00000000000000000000000055
:10432000000000001C003C003C0030003000100089
:104330000C0006000000000000000000000000006B
:10434000000000000000000000000000000000006D
:10435000000000000000000000000000000000005D
:10436000000000000040002000100008000C0004C5
:10437000000600030003000380018001800180012A
:10438000800180018001800100030003000300061A
:104390000006000C00080010002000400000000093
:1043A000000000000200040008001000300020009F
:1043B0006000C000C000C000800180018001800159
:1043C0008001800180018001C000C000C000600049
:1043D000600030001000080004000200000000002F
:1043E00000000000000000000000000000000001CC
:1043F0008003800300011C713C79783DC0070001F7
:10440000C007783D3C791C71000180038003800166
:10441000000000000000000000000000000000009C
:10442000000000000000000000000000000000008C
:104430000001000100010001000100010001FC7FFA
:104440000001000100010001000100010001000065
:10445000000000000000000000000000000000005C
:10446000000000000000000000000000000000004C
:10447000000000000000000000000000000000003C
:1044800000000000000000000000000000001C0010
:104490003C003C003000300010000C000600000022
:1044A000000000000000000000000000000000000C
:1044B0000000000000000000000000000000FE7F7F
:1044C00000000000000000000000000000000000EC
:1044D00000000000000000000000000000000000DC
:1044E00000000000000000000000000000000000CC
:1044F00000000000000000000000000000000000BC
:1045000000000000000000000000000018003C0057
:104510003C00180000000000000000000000000047
:104520000000000000400060002000300010001873
:104530000008000C000400060002000300018001D6
:104540008000C00040006000200030001000180013
:1045500008000C000400060002000000000000003B
:1045600000000000000000000000C007600C3018D0
:104570001830183018200C600C600C600C600C6057
:104580000C600C600C600C6018201830183030186B
:10459000600CC007000000000000000000000000E8
:1045A0000000000000000000000000018001F80190
:1045B00080018001800180018001800180018001F3
:1045C00080018001800180018001800180018001E3
:1045D000C003F81F00000000000000000000000001
:1045E00000000000000000000000E007101C081898
:1045F000043004300C300C30003000180008000487
:10460000000200018000400020201020082004301B
:10461000FC1FFC1F00000000000000000000000064
:1046200000000000000000000000E003180E0C0C69
:104630000C180C180C180018000C0006C003000E13
:1046400000180010003000300C300C300C100C182A
:10465000180CE00300000000000000000000000053
:1046600000000000000000000000000C000E000E22
:10467000000F800E800E400E600E200E100E100EE9
:10468000080E040E040EFE7F000E000E000E000E3B
:10469000000E000EC07F00000000000000000000BF
:1046A00000000000000000000000F03FF03F10009C
:1046B0001000100008000800C807280C181808107F
:1046C00000300030003000300C300C30041804187A
:1046D000080CF003000000000000000000000000D3
:1046E00000000000000000000000800FC01020301B
:1046F00010301800180008000C008C0F6C183C30AB
:104700001C600C600C600C600C601860182030306D
:104710006018C0070000000000000000000000005A
:1047200000000000000000000000F83FF83F1C10EF
:104730000C08040804040004000200020001000147
:104740000001800080008000C000C000C000C000E8
:10475000C000C000000000000000000000000000D9
:1047600000000000000000000000E007300C1818F6
:104770000C300C300C301C3038187008E007B007D3
:10478000180E0C1C063806300630063006300C18A1
:10479000180CE00300000000000000000000000012
:1047A00000000000000000000000E00318040C08F6
:1047B0000C180610063006300630063006380C3C61
:1047C0001836F03100300018001800180C0C0C06D8
:1047D0000C03F001000000000000000000000000D9
:1047E00000000000000000000000000000000000C9
:1047F00000000000000000008001C003C003800131
:104800000000000000000000000000008001C00364
:10481000C003800100000000000000000000000054
:104820000000000000000000000000000000000088
:104830000000000000000000C000C00000000000F8
:104840000000000000000000000000000000000068
:10485000C000C00080008000400040000000000058
:10486000000000000000000000200010000800040C
:10487000000600038001C0006000300018000C003A
:10488000180030006000C000800100030006000432
:1048900000080010002000000000000000000000E0
:1048A0000000000000000000000000000000000008
:1048B0000000000000000000FE7F0000000000007B
:1048C00000000000FE7F000000000000000000006B
:1048D00000000000000000000000000000000000D8
:1048E000000000000000000004000800100020008C
:1048F0006000C000800100030006000C00180030BA
:104900000018000C000600038001C00060002000B9
:10491000100008000400000000000000000000007B
:104920000000000000000000C007301808300860D8
:104930000C601C601C601C600030001C0006000144
:104940008000800080008000000000008001C00323
:10495000C003800100000000000000000000000013
:1049600000000000000000000000C00760181030C8
:1049700018200C2F8C4D864CC64CC64C664C664499
:104980006644662666266615CC1C0C400820183046
:104990003018C00700000000000000000000000008
:1049A00000000000000000000001C001C001C001C3
:1049B0004001600320032003200330061006100688
:1049C0001006F80F080C080C080C0C0C041804183E
:1049D00006181F7C0000000000000000000000001E
:1049E00000000000000000000000FE07181C18383E
:1049F00018301830183018301818180CF807181814
:104A00001830182018601860186018601860183086
:104A10001818FE0F00000000000000000000000059
:104A200000000000000000000000C02760381030C7
:104A300018200C400C40040006000600060006008A
:104A400006000600060006000C400C400C20183042
:104A50003018C00700000000000000000000000047
:104A600000000000000000000000FE03180E1818EF
:104A70001830183018301860186018601860186006
:104A8000186018601860186018301830181018185E
:104A9000180EFE03000000000000000000000000EF
:104AA00000000000000000000000FE3F1830182049
:104AB00018601840180018081808180CF80F180C7F
:104AC0001808180818001800180018401840182076
:104AD0001830FE3F00000000000000000000000051
:104AE00000000000000000000000FE7F1870184069
:104AF00018C018801800181018101818F81F181867
:104B000018101810180018001800180018001800C5
:104B100018007E00000000000000000000000000FF
:104B200000000000000000000000C013701C101006
:104B300018100C200C2004000600060006000600D9
:104B4000060006FC063006300C300C3018301830E9
:104B50003008C00700000000000000000000000056
:104B6000000000000000000000003F7E0C180C1840
:104B70000C180C180C180C180C180C180C18FC1F1E
:104B80000C180C180C180C180C180C180C180C1805
:104B90000C183F7E00000000000000000000000034
:104BA00000000000000000000000F81F80018001EC
:104BB00080018001800180018001800180018001ED
:104BC00080018001800180018001800180018001DD
:104BD0008001F81F0000000000000000000000003D
:104BE00000000000000000000000E07F000600065A
:104BF0000006000600060006000600060006000685
:104C00000006000600060006000600060006000674
:104C10000006000600060E060E038E01FC000000D2
:104C2000000000000000000000007E7C181818083A
:104C3000180418061802180198019801D801B80341
:104C4000380318071806180E180C181C18181830F6
:104C500018307EFC00000000000000000000000092
:104C6000000000000000000000007E001800180096
:104C70001800180018001800180018001800180074
:104C800018001800180018001800184018401820C4
:104C90001830FE3F0000000000000000000000008F
:104CA000000000000000000000001FF81C381C3845
:104CB0001C381C3C3434343434343436743264326A
:104CC000643264326431C431C431C431C430C4305C
:104CD00084309FFC00000000000000000000000085
:104CE000000000000000000000001F7C1C103C10B1
:104CF0003410341074106410E410C410C411841102
:104D00008413041304170416041E041C041C041C3E
:104D100004181F1800000000000000000000000040
:104D200000000000000000000000C003300C181854
:104D300008100C300C3006600660066006600660E5
:104D400006600660066006600C200C30081018181B
:104D5000300CC00300000000000000000000000054
:104D600000000000000000000000FE0F18181830BE
:104D70001860186018601860186018301818F80F5C
:104D80001800180018001800180018001800180063
:104D900018007E000000000000000000000000007D
:104DA00000000000000000000000C003300C1818D4
:104DB0000C100C300C200660066006600660066071
:104DC0000660066006600660E4612C331C3218162B
:104DD000300EC007004C007C0038000000000000CE
:104DE00000000000000000000000FE07181C18383A
:104DF00018301830183018301818180CF8079803A5
:104E00001803180718061806180E180C180C181C8A
:104E100018187E780000000000000000000000006C
:104E200000000000000000000000E02730381830CB
:104E30000C200C200C000C0018007800E003800F00
:104E4000001E0038007000600460046008601830C4
:104E50003818C80F0000000000000000000000002B
:104E600000000000000000000000FC3F8C21846175
:104E700082418241800180018001800180018001A6
:104E8000800180018001800180018001800180011A
:104E90008001E007000000000000000000000000AA
:104EA000000000000000000000003F7C0C100C100F
:104EB0000C100C100C100C100C100C100C100C1012
:104EC0000C100C100C100C100C100C100C1008080E
:104ED0003804E003000000000000000000000000B3
:104EE000000000000000000000003EF8182018201C
:104EF0001820301030103010301060086008600842
:104F0000E00CC004C004C00480038003800380035D
:104F1000000100010000000000000000000000008F
:104F200000000000000000000000DFF38661862121
:104F300086218C210C218C238C138C138C134C1305
:104F400058125816580E380E380E380E300C100401
:104F50001004100400000000000000000000000029
:104F6000000000000000000000007E3E1808380825
:104F70003004300470026002E001C001C001800111
:104F800080034003400720062006100C100C081870
:104F900008183E7C00000000000000000000000037
:104FA000000000000000000000007E7C1C101810B3
:104FB00018083008300C700460046002C002C0029F
:104FC000C001800180018001800180018001800199
:104FD0008001E00700000000000000000000000069
:104FE00000000000000000000000F83F181808183A
:104FF000040C040E00060007000380038001C001BA
:10500000C000E000600070003000382018201C1044
:105010000C18FE1F0000000000000000000000004F
:1050200000000000C03F4000400040004000400041
:105030004000400040004000400040004000400070
:105040004000400040004000400040004000400060
:105050004000400040004000C03F00000000000051
:1050600000000000000000000800180018001000F8
:1050700030002000600060004000C000800080011F
:105080008001000100030002000600060004000C7D
:105090000008001800180010003000200000000078
:1050A00000000000FC0300020002000200020002F7
:1050B00000020002000200020002000200020002E0
:1050C00000020002000200020002000200020002D0
:1050D0000002000200020002FC03000000000000C9
:1050E000000000008007C00620081010000000002B
:1050F00000000000000000000000000000000000B0
:10510000000000000000000000000000000000009F
:10511000000000000000000000000000000000008F
:10512000000000000000000000000000000000007F
:10513000000000000000000000000000000000006F
:10514000000000000000000000000000000000005F
:10515000000000000000000000000000FFFF000051
:10516000000000007800C000000100000000000006
:10517000000000000000000000000000000000002F
:10518000000000000000000000000000000000001F
:10519000000000000000000000000000000000000F
:1051A00000000000000000000000000000000000FF
:1051B0000000000000000000F00318060C0C0C0CAE
:1051C000000C800F700C1C0C0C0C060C060C064C12
:1051D0000C4FF83800000000000000000000000044
:1051E000000000000000000010001E001800180061
:1051F0001800180018001800180FD8183830386038
:10520000186018601860186018601860182038302E
:105210007818C8070000000000000000000000002F
:10522000000000000000000000000000000000007E
:105230000000000000000000C007700C18181818CB
:105240000C180C000C000C000C000C20182018107E
:105250003008C0070000000000000000000000004F
:1052600000000000000000000010001E00180018E0
:105270000018001800180018E01B301C1818181827
:105280000C180C180C180C180C180C180818181CF2
:10529000307AE0090000000000000000000000007B
:1052A00000000000000000000000000000000000FE
:1052B0000000000000000000C007300C18180810A3
:1052C0000C300C30FC3F0C000C000C0018201810A7
:1052D0007018C0070000000000000000000000007F
:1052E00000000000000000000000003E80C380C0FD
:1052F000C0C0C000C000C000FC1FC000C000C00093
:10530000C000C000C000C000C000C000C000C0009D
:10531000C000F80F000000000000000000000000C6
:10532000000000000000000000000000000000007D
:105330000000000000000000C077306C1018181842
:10534000181818181018300CF00718001800F00F73
:10535000F03F08700C600C600C603838E00F000003
:10536000000000000000000010001E0018001800DF
:105370001800180018001800980FD8183830183086
:1053800018301830183018301830183018301830DD
:1053900018307EFC0000000000000000000000004B
:1053A0000000000000000000000080038003800374
:1053B0000000000000000001F80180018001800170
:1053C00080018001800180018001800180018001D5
:1053D0008001F81F00000000000000000000000035
:1053E0000000000000000000000000380038003815
:1053F0000000000000000010801F001800180018B6
:1054000000180018001800180018001800180018DC
:105410000018001800180018180C1806F0030000F7
:10542000000000000000000010001E00180018001E
:105430001800180018001800183E180C1806180359
:1054400018019801D801380318071806180C181C01
:1054500018187E7C00000000000000000000000022
:1054600000000000000000000001F8018001800140
:105470008001800180018001800180018001800124
:105480008001800180018001800180018001800114
:105490008001F81F00000000000000000000000074
:1054A00000000000000000000000000000000000FC
:1054B0000000000000000800EE1C9C338C318C3191
:1054C0008C318C318C318C318C318C318C318C31F4
:1054D0008C31DE7B000000000000000000000000B6
:1054E00000000000000000000000000000000000BC
:1054F00000000000000010001E0FD81838301830CF
:10550000183018301830183018301830183018305B
:1055100018307EFC000000000000000000000000C9
:10552000000000000000000000000000000000007B
:105530000000000000000000C007701C1030183090
:105540000C600C600C600C600C600C601830183043
:105550003018C0070000000000000000000000003C
:10556000000000000000000000000000000000003B
:1055700000000000000010009E0F5818383018205E
:10558000186018601860186018601860183038309B
:105590007818980718001800180018007E000000FE
:1055A00000000000000000000000000000000000FB
:1055B0000000000000000000C023303C1838183004
:1055C0000C300C300C300C300C300C3008301838EB
:1055D000303CE033003000300030003000FC000090
:1055E00000000000000000000000000000000000BB
:1055F00000000000000060007E3C60666061E0002A
:10560000E00060006000600060006000600060001A
:105610006000FE0700000000000000000000000025
:10562000000000000000000000000000000000007A
:105630000000000000000000E0273038183018207B
:1056400018007000E003800F001C043004300C30A0
:105650001C18EC0F0000000000000000000000001B
:1056600000000000000000000000000000008000BA
:1056700080008000C000E000FC1FC000C000C0002F
:10568000C000C000C000C000C000C000C020C020DA
:105690008011000F0000000000000000000000006A
:1056A00000000000000000000000000000000000FA
:1056B00000000000000010201E3C18301830183088
:1056C0001830183018301830183018301830183892
:1056D00030F4E013000000000000000000000000B3
:1056E00000000000000000000000000000000000BA
:1056F00000000000000000007E3C18181808380860
:1057000030043004700260026002E001C001C00198
:10571000C000800000000000000000000000000049
:105720000000000000000000000000000000000079
:105730000000000000000000DFF78E630C238C23C4
:105740008C239813981358165816700E700E700EFE
:105750002004200400000000000000000000000001
:105760000000000000000000000000000000000039
:105770000000000000000000FC3E70087004E0041F
:10578000C002C0018003800340076006200C100C9B
:1057900018183E7E0000000000000000000000001D
:1057A00000000000000000000000000000000000F9
:1057B00000000000000000007E7C18181808300867
:1057C0003008300460046004C002C002C0028001DE
:1057D000800180018000800080004C003C000000BF
:1057E00000000000000000000000000000000000B9
:1057F0000000000000000000FC1F0C0C040E04065A
:10580000000380038001C000E000702030203830A9
:105810001C18FC1F00000000000000000000000039
:105820000000000000300008000400040004000430
:1058300000040004000400040004000400028001CD
:10584000000200040004000400040004000400043A
:1058500000040004000400040008003000000001FF
:105860000001000100010001000100010001000130
:105870000001000100010001000100010001000120
:105880000001000100010001000100010001000110
:105890000001000100010001000100010001000001
:1058A000000000000C00100020002000200020005C
:1058B0002000200020002000200020004000800167
:1058C00040002000200020002000200020002000B8
:1058D000200020002000200010000C00000000002C
:1058E0003800C400864002610022001C0000000055
:1058F00000000000000000000000000000000000A8
:105900000000000000000000000000000000000097
:105910000000000000000000000000000000020382
:105920000405060708090A0B0C0D0E0F10100000E5
:10593000505900080000002010000000500100082D
:1059400060590008100000201007000070010008D6
:10595000010000001000000000127A0000000000AA
:04000005080000ED02
:00000001FF
