:100662005B7631305D5B6D355D5B74345DEFBFBDD4
:10067200EFBFBDD3ADCAB9EFBFBDEFBFBDC8ABEFD2
:10068200BFBDEFBFBDD3A5EFBFBDEFBFBDEFBFBDC8
:10069200EFBFBDEFBFBDEFBFBDEFBFBDEFBFBDEF52
:1006A200BFBDEFBFBDEFBFBDEFBFBDCFB5CDB3EF98
:1006B200BFBDEFBFBD00310D0A00320D0A00330D80
:0A06C2000A00340D0A00350D0A008D
:0609060001350001340080
:10072B00E4F52212098412085512095DE47835F6B6
:10073B007BFF7A0679627F0212023E1209F378354B
:10074B00E61460FA24F1601824DF60F22431702083
:10075B0078357601120781EF70E47835763180DEDB
:10076B00120A5C7837EFF6120814E47835F680CE6F
:06077B00E47835F680C8A9
:1009F300120A2E120A2EB2C2120A2EB2C2120A2EE4
:080A0300B2C2120A2EB2C22297
:100984007580FF7590FF75A0FF75B0FF75C0FF758A
:1009940091007592FFC290C291C292C293C2C3D217
:0609A40089D2A8D2AF22A7
:0A0A3B0000007F057E49DEFEDFFCAF
:010A4500228E
:0809CF008F2D8E2C8D2B8C2A3C
:1009D700E4F52EF52FF530F531782A74FF12015220
:0B09E700EC4D4E4F6005120A3B80EE05
:0109F20022E2
:0C0A2E007F117ED07D1BDDFEDEFCDFFAB8
:010A3A002299
:030003000208965A
:10089600C0E0C0F0C083C082C0D075D000C000C028
:1008A60001C002C003C004C005C006C0071204AEE2
:1008B600D007D006D005D004D003D002D001D00096
:0B08C600D0D0D082D083D0F0D0E03240
:10081400EF603DD2C2EF24CF601514601A14601F3C
:10082400146024240470297BFF7A0679B8801E7B27
:10083400FF7A0679BC80167BFF7A0679C0800E7B2E
:10084400FF7A0679C480067BFF7A0679C81209AA62
:010854002281
:100413006461206B61692064656E67206775616E36
:100423006700000000000000000000000000677586
:10043300616E2062692064656E67206775616E670F
:10044300000000000000000000000000686F6E67FD
:10045300207365206D6F2073686900000000000041
:10046300000000000000000000006C616E20736556
:10047300206D6F2073686900000000000000000019
:100483000000000000000000626169207365206DB8
:100493006F20736869000000000000000000000086
:0B04A300000000000000303132333454
:10085500D2B57F057E007D007C001209CFC2B57F31
:10086500057E007D007C001209CFD2B57F057E0094
:100875007D007C001209CFC2A17F057E007D007C32
:10088500001209CFD2A17F057E007D007C00020900
:01089500CF93
:1002DB007F06120A517D357F17120A467F0A7E0070
:1002EB007D007C001209CF7F06120A517D037F89A6
:1002FB00120A467F057E007D007C001209CF7D43EC
:10030B007FCF120A467F057E007D007C001209CF4D
:10031B007D027FCB120A467D0A7F11120A46E4FD4D
:10032B007F1E120A467D3F7F19120A467D487F1BAE
:10033B00120A467D1F7F1D120A467F0A7E007D0032
:10034B007C001209CF7D047FCD120A467F057E000B
:10035B007D007C001209CFE4FD7FB9120A467D4F68
:0C036B007FCF120A467DFF7F6F020A461A
:1006CC001202DBE4FD7FBD120A467D487F17120A39
:1006DC00467F0A7E007D007C001209CF7D807F3C26
:1006EC00120A467D077F3E120A467DFF7F38120AAA
:1006FC00467D077F3A120A46E4FD7F40120A467D8A
:10070C00087F42120A46E4FD7F44120A467D087FA8
:0F071C0046120A467F017E007D007C000209CF55
:1004AE00E4F521C2A87F2B120A517836A607E4FD87
:1004BE007F29120A46E4FD7F02120A467836E6309C
:1004CE00E42D7FB2120A51EF642170237FBF120A0E
:1004DE0051BF351B7FBA120A518F21E521D39400EB
:1004EE00400DE521D39408500678357610800478B7
:1004FE00357611E4FD7F2B120A46E4FD7F1C120AAD
:10050E0046E4FD7F29120A46E4FD7F02120A46E404
:10051E00FD7F2B120A46E4FD7FBA120A46E4FD7FE8
:10052E00BC120A467D017F08120A46E4FD7F0812BE
:04053E000A46D2A8EF
:010542002296
:10078100E4F523F524F523120A627F327E007D0011
:100791007C001209CF120377EF700280117F0A7E6D
:1007A100007D007C001209CF120543EF7010120882
:1007B100557F327E007D007C001209CF80057524B3
:0E07C1000180090523E523C3940540BBAF2446
:0107CF002207
:10093400E4F529F5287FB2120A51BF210575290172
:1009440080147F0A7E007D007C001209CF0528E513
:0809540028C3940A40DFAF291B
:01095C002278
:030A62000206CCBD
:10054300C2A87D557F35120A467D097F1C120A46D3
:100553007D207FBD120A467D017F08120A467F0176
:100563007E007D007C001209CFE4FD7F08120A465D
:100573007F017E007D007C001209CF120934EF70E9
:1005830002FF227D0B7F1C120A467DFF7FB2120AF7
:10059300467F017E007D007C001209CF7D067F37F8
:1005A300120A467F017E007D007C001209CF7D0682
:1005B3007F37120A467F057E007D007C001209CF3B
:1005C3007D107F29120A46E4FD7FBD120A46D2A898
:0305D3007F012283
:10037700752601E4F525120934EF7005F526020408
:1003870010E5259004A993FD7FC1120A46E4FD7F7D
:10039700C3120A467D047F08120A467F017E007D4C
:1003A700007C001209CFE4FD7F08120A467F017E18
:1003B700007D007C001209CFE4F527E52575F01EC6
:1003C700A42413F582E43404F583E5822527F58216
:1003D700E43583F583E493FD600E7F05120A460535
:1003E70027E527C3941E40D3AD277FB9120A467D60
:1003F700FF7FB2120A467D047F37120A460525E5BC
:0B04070025C39405500302037DAF26BF
:0104120022C7
:060A5C007FC5120A5122C1
:0B0A4600908100EFF0908000EDF022A6
:0B0A5100908100EFF0908000E0FF2299
:10090C000508FD000202FD051CFD000203FC05129A
:10091C00FD000204FB0517FD000221DE050DFD00A4
:03092C00028877C7
:08023E008F238B248A258926F9
:10024600E4F528FFFE120A0B8F2790000074FDF0DC
:10025600E4A3F0E5272403A3F0A37401F0E523C487
:1002660054F04401A3F0E4FEFF74002FF5827400FD
:100276003EF583E062280FBF00010EEF64054E7065
:10028600E8E4FEFFC3EF9527EE94005016AB24AAD0
:1002960025A9268F828E8312011562280FBF0001C1
:1002A6000E80E1AF277E0078057C007D01AB24AA95
:1002B60025A9261200D674052527F582E43400F513
:1002C60083E528F07B017A007900E5272406FDE422
:0502D60033FC0208D119
:04092F0002322580EB
:10095D00759850758920AE32AF33AB07AA06E4F90E
:10096D00F8FF7EE1FDFC1207D01201428F8B8F8DB7
:07097D00D28ED2ACD2AF22F2
:0E0A2000C2ACC2998F993099FDC299D2AC2216
:1009AA008B238A248925AB23AA24A9251200FC605B
:1009BA00130525E5257002052414F91200FCFF121F
:0509CA000A2080E2227A
:0A08D1008B298A2A892B8C2C8D2D8F
:1008DB00E4FDFCC3ED952DE52C6480F8EC64809869
:1008EB005018AB29AA2AA92B8D828C83120115FFD4
:0A08FB00120A200DBD00010C80D987
:0109050022CF
:030000000205D620
:0C05D600787FE4F6D8FD75813702061D21
:10000600E709F608DFFA8046E709F208DFFA803EDC
:1000160088828C83E709F0A3DFFA8032E309F608C9
:10002600DFFA8078E309F208DFFA807088828C8331
:10003600E309F0A3DFFA806489828A83E0A3F608E5
:10004600DFFA805889828A83E0A3F208DFFA804CBF
:1000560080D280FA80C680D4806980F28033801096
:1000660080A680EA809A80A880DA80E280CA8033FF
:1000760089828A83ECFAE493A3C8C582C8CCC58377
:10008600CCF0A3C8C582C8CCC583CCDFE9DEE78047
:100096000D89828A83E493A3F608DFF9ECFAA9F0C6
:1000A600EDFB2289828A83ECFAE0A3C8C582C8CC1C
:1000B600C583CCF0A3C8C582C8CCC583CCDFEADE35
:1000C600E880DB89828A83E493A3F208DFF980CC97
:1000D60088F0EF60010E4E60C388F0ED2402B40490
:1000E6000050B9F582EB2402B4040050AF23234537
:0600F60082239000567306
:1000FC00BB010689828A83E0225002E722BBFE0202
:09010C00E32289828A83E4932234
:10011500BB010CE58229F582E5833AF583E022509F
:1001250006E92582F8E622BBFE06E92582F8E222E9
:0D013500E58229F582E5833AF583E4932203
:1007D000C2D5E830E70FB2D5E4C39BFBE49AFAE454
:1007E00099F9E498F8EC30E717B2D512080612012F
:1007F000ACE4C39BFBE49AFAE499F9E498F880032B
:100800001201AC30D50DE4C39FFFE49EFEE49DFDD4
:04081000E49CFC2246
:0E014200C3E49FFFE49EFEE49DFDE49CFC22CE
:100150007401FF3395E0FEFDFC080808E6CF2FF69A
:1001600018E6CE3EF618E6CD3DF618E6CC3CF62273
:100A0B00E4FFFE1200FC600C0FEF70010E09E970A1
:050A1B00F20A80EF2249
:1005E20002072BE493A3F8E493A34003F68001F2FD
:1005F20008DFF48029E493A3F85407240CC8C3331A
:10060200C4540F4420C8834004F456800146F6DFE8
:10061200E4800B0102040810204080900906E47E69
:10062200019360BCA3FF543F30E509541FFEE493DD
:10063200A360010ECF54C025E060A840B8E493A3A4
:10064200FAE493A3F8E493A3C8C582C8CAC583CACF
:10065200F0A3C8C582C8CAC583CADFE9DEE780BE87
:0109330000C3
:1001700075F008758200EF2FFFEE33FECD33CDCC46
:1001800033CCC58233C5829BED9AEC99E5829840C9
:100190000CF582EE9BFEED9AFDEC99FC0FD5F0D6A6
:1001A000E4CEFBE4CDFAE4CCF9A88222B800C1B9D0
:1001B0000059BA002DEC8BF084CFCECDFCE5F0CB0E
:1001C000F97818EF2FFFEE33FEED33FDEC33FCEB47
:1001D00033FB10D703994004EB99FB0FD8E5E4F902
:1001E000FA227818EF2FFFEE33FEED33FDEC33FCEF
:1001F000C933C910D7059BE99A4007EC9BFCE99AE3
:10020000F90FD8E0E4C9FAE4CCFB2275F010EF2F27
:10021000FFEE33FEED33FDCC33CCC833C810D70727
:100220009BEC9AE899400AED9BFDEC9AFCE899F862
:0E0230000FD5F0DAE4CDFBE4CCFAE4C8F922F5
:00000001FF
